{
  "_format": "hh-sol-artifact-1",
  "contractName": "IdentityRegistry",
  "sourceName": "contracts/IdentityRegistry.sol",
  "abi": [
    {
      "inputs": [],
      "stateMutability": "nonpayable",
      "type": "constructor"
    },
    {
      "inputs": [],
      "name": "ECDSAInvalidSignature",
      "type": "error"
    },
    {
      "inputs": [
        {
          "internalType": "uint256",
          "name": "length",
          "type": "uint256"
        }
      ],
      "name": "ECDSAInvalidSignatureLength",
      "type": "error"
    },
    {
      "inputs": [
        {
          "internalType": "bytes32",
          "name": "s",
          "type": "bytes32"
        }
      ],
      "name": "ECDSAInvalidSignatureS",
      "type": "error"
    },
    {
      "inputs": [
        {
          "internalType": "address",
          "name": "sender",
          "type": "address"
        },
        {
          "internalType": "uint256",
          "name": "tokenId",
          "type": "uint256"
        },
        {
          "internalType": "address",
          "name": "owner",
          "type": "address"
        }
      ],
      "name": "ERC721IncorrectOwner",
      "type": "error"
    },
    {
      "inputs": [
        {
          "internalType": "address",
          "name": "operator",
          "type": "address"
        },
        {
          "internalType": "uint256",
          "name": "tokenId",
          "type": "uint256"
        }
      ],
      "name": "ERC721InsufficientApproval",
      "type": "error"
    },
    {
      "inputs": [
        {
          "internalType": "address",
          "name": "approver",
          "type": "address"
        }
      ],
      "name": "ERC721InvalidApprover",
      "type": "error"
    },
    {
      "inputs": [
        {
          "internalType": "address",
          "name": "operator",
          "type": "address"
        }
      ],
      "name": "ERC721InvalidOperator",
      "type": "error"
    },
    {
      "inputs": [
        {
          "internalType": "address",
          "name": "owner",
          "type": "address"
        }
      ],
      "name": "ERC721InvalidOwner",
      "type": "error"
    },
    {
      "inputs": [
        {
          "internalType": "address",
          "name": "receiver",
          "type": "address"
        }
      ],
      "name": "ERC721InvalidReceiver",
      "type": "error"
    },
    {
      "inputs": [
        {
          "internalType": "address",
          "name": "sender",
          "type": "address"
        }
      ],
      "name": "ERC721InvalidSender",
      "type": "error"
    },
    {
      "inputs": [
        {
          "internalType": "uint256",
          "name": "tokenId",
          "type": "uint256"
        }
      ],
      "name": "ERC721NonexistentToken",
      "type": "error"
    },
    {
      "inputs": [],
      "name": "InvalidSignature",
      "type": "error"
    },
    {
      "inputs": [
        {
          "internalType": "address",
          "name": "owner",
          "type": "address"
        }
      ],
      "name": "OwnableInvalidOwner",
      "type": "error"
    },
    {
      "inputs": [
        {
          "internalType": "address",
          "name": "account",
          "type": "address"
        }
      ],
      "name": "OwnableUnauthorizedAccount",
      "type": "error"
    },
    {
      "inputs": [],
      "name": "ReservedMetadataKey",
      "type": "error"
    },
    {
      "inputs": [],
      "name": "SignatureExpired",
      "type": "error"
    },
    {
      "anonymous": false,
      "inputs": [
        {
          "indexed": true,
          "internalType": "address",
          "name": "owner",
          "type": "address"
        },
        {
          "indexed": true,
          "internalType": "address",
          "name": "approved",
          "type": "address"
        },
        {
          "indexed": true,
          "internalType": "uint256",
          "name": "tokenId",
          "type": "uint256"
        }
      ],
      "name": "Approval",
      "type": "event"
    },
    {
      "anonymous": false,
      "inputs": [
        {
          "indexed": true,
          "internalType": "address",
          "name": "owner",
          "type": "address"
        },
        {
          "indexed": true,
          "internalType": "address",
          "name": "operator",
          "type": "address"
        },
        {
          "indexed": false,
          "internalType": "bool",
          "name": "approved",
          "type": "bool"
        }
      ],
      "name": "ApprovalForAll",
      "type": "event"
    },
    {
      "anonymous": false,
      "inputs": [
        {
          "indexed": false,
          "internalType": "uint256",
          "name": "_fromTokenId",
          "type": "uint256"
        },
        {
          "indexed": false,
          "internalType": "uint256",
          "name": "_toTokenId",
          "type": "uint256"
        }
      ],
      "name": "BatchMetadataUpdate",
      "type": "event"
    },
    {
      "anonymous": false,
      "inputs": [
        {
          "indexed": true,
          "internalType": "uint256",
          "name": "agentId",
          "type": "uint256"
        },
        {
          "indexed": true,
          "internalType": "string",
          "name": "indexedMetadataKey",
          "type": "string"
        },
        {
          "indexed": false,
          "internalType": "string",
          "name": "metadataKey",
          "type": "string"
        },
        {
          "indexed": false,
          "internalType": "bytes",
          "name": "metadataValue",
          "type": "bytes"
        }
      ],
      "name": "MetadataSet",
      "type": "event"
    },
    {
      "anonymous": false,
      "inputs": [
        {
          "indexed": false,
          "internalType": "uint256",
          "name": "_tokenId",
          "type": "uint256"
        }
      ],
      "name": "MetadataUpdate",
      "type": "event"
    },
    {
      "anonymous": false,
      "inputs": [
        {
          "indexed": true,
          "internalType": "address",
          "name": "previousOwner",
          "type": "address"
        },
        {
          "indexed": true,
          "internalType": "address",
          "name": "newOwner",
          "type": "address"
        }
      ],
      "name": "OwnershipTransferred",
      "type": "event"
    },
    {
      "anonymous": false,
      "inputs": [
        {
          "indexed": true,
          "internalType": "uint256",
          "name": "agentId",
          "type": "uint256"
        },
        {
          "indexed": false,
          "internalType": "string",
          "name": "agentURI",
          "type": "string"
        },
        {
          "indexed": true,
          "internalType": "address",
          "name": "owner",
          "type": "address"
        }
      ],
      "name": "Registered",
      "type": "event"
    },
    {
      "anonymous": false,
      "inputs": [
        {
          "indexed": true,
          "internalType": "address",
          "name": "from",
          "type": "address"
        },
        {
          "indexed": true,
          "internalType": "address",
          "name": "to",
          "type": "address"
        },
        {
          "indexed": true,
          "internalType": "uint256",
          "name": "tokenId",
          "type": "uint256"
        }
      ],
      "name": "Transfer",
      "type": "event"
    },
    {
      "anonymous": false,
      "inputs": [
        {
          "indexed": true,
          "internalType": "uint256",
          "name": "agentId",
          "type": "uint256"
        },
        {
          "indexed": false,
          "internalType": "string",
          "name": "newURI",
          "type": "string"
        },
        {
          "indexed": true,
          "internalType": "address",
          "name": "updatedBy",
          "type": "address"
        }
      ],
      "name": "URIUpdated",
      "type": "event"
    },
    {
      "inputs": [
        {
          "internalType": "address",
          "name": "to",
          "type": "address"
        },
        {
          "internalType": "uint256",
          "name": "tokenId",
          "type": "uint256"
        }
      ],
      "name": "approve",
      "outputs": [],
      "stateMutability": "nonpayable",
      "type": "function"
    },
    {
      "inputs": [
        {
          "internalType": "address",
          "name": "owner",
          "type": "address"
        }
      ],
      "name": "balanceOf",
      "outputs": [
        {
          "internalType": "uint256",
          "name": "",
          "type": "uint256"
        }
      ],
      "stateMutability": "view",
      "type": "function"
    },
    {
      "inputs": [
        {
          "internalType": "uint256",
          "name": "agentId",
          "type": "uint256"
        }
      ],
      "name": "getAgentWallet",
      "outputs": [
        {
          "internalType": "address",
          "name": "",
          "type": "address"
        }
      ],
      "stateMutability": "view",
      "type": "function"
    },
    {
      "inputs": [
        {
          "internalType": "uint256",
          "name": "tokenId",
          "type": "uint256"
        }
      ],
      "name": "getApproved",
      "outputs": [
        {
          "internalType": "address",
          "name": "",
          "type": "address"
        }
      ],
      "stateMutability": "view",
      "type": "function"
    },
    {
      "inputs": [
        {
          "internalType": "uint256",
          "name": "agentId",
          "type": "uint256"
        },
        {
          "internalType": "string",
          "name": "metadataKey",
          "type": "string"
        }
      ],
      "name": "getMetadata",
      "outputs": [
        {
          "internalType": "bytes",
          "name": "",
          "type": "bytes"
        }
      ],
      "stateMutability": "view",
      "type": "function"
    },
    {
      "inputs": [
        {
          "internalType": "address",
          "name": "owner",
          "type": "address"
        },
        {
          "internalType": "address",
          "name": "operator",
          "type": "address"
        }
      ],
      "name": "isApprovedForAll",
      "outputs": [
        {
          "internalType": "bool",
          "name": "",
          "type": "bool"
        }
      ],
      "stateMutability": "view",
      "type": "function"
    },
    {
      "inputs": [],
      "name": "name",
      "outputs": [
        {
          "internalType": "string",
          "name": "",
          "type": "string"
        }
      ],
      "stateMutability": "view",
      "type": "function"
    },
    {
      "inputs": [],
      "name": "owner",
      "outputs": [
        {
          "internalType": "address",
          "name": "",
          "type": "address"
        }
      ],
      "stateMutability": "view",
      "type": "function"
    },
    {
      "inputs": [
        {
          "internalType": "uint256",
          "name": "tokenId",
          "type": "uint256"
        }
      ],
      "name": "ownerOf",
      "outputs": [
        {
          "internalType": "address",
          "name": "",
          "type": "address"
        }
      ],
      "stateMutability": "view",
      "type": "function"
    },
    {
      "inputs": [],
      "name": "register",
      "outputs": [
        {
          "internalType": "uint256",
          "name": "agentId",
          "type": "uint256"
        }
      ],
      "stateMutability": "nonpayable",
      "type": "function"
    },
    {
      "inputs": [
        {
          "internalType": "string",
          "name": "agentURI",
          "type": "string"
        },
        {
          "components": [
            {
              "internalType": "string",
              "name": "metadataKey",
              "type": "string"
            },
            {
              "internalType": "bytes",
              "name": "metadataValue",
              "type": "bytes"
            }
          ],
          "internalType": "struct IdentityRegistry.MetadataEntry[]",
          "name": "metadata",
          "type": "tuple[]"
        }
      ],
      "name": "register",
      "outputs": [
        {
          "internalType": "uint256",
          "name": "agentId",
          "type": "uint256"
        }
      ],
      "stateMutability": "nonpayable",
      "type": "function"
    },
    {
      "inputs": [
        {
          "internalType": "string",
          "name": "agentURI",
          "type": "string"
        }
      ],
      "name": "register",
      "outputs": [
        {
          "internalType": "uint256",
          "name": "agentId",
          "type": "uint256"
        }
      ],
      "stateMutability": "nonpayable",
      "type": "function"
    },
    {
      "inputs": [],
      "name": "renounceOwnership",
      "outputs": [],
      "stateMutability": "nonpayable",
      "type": "function"
    },
    {
      "inputs": [
        {
          "internalType": "address",
          "name": "from",
          "type": "address"
        },
        {
          "internalType": "address",
          "name": "to",
          "type": "address"
        },
        {
          "internalType": "uint256",
          "name": "tokenId",
          "type": "uint256"
        }
      ],
      "name": "safeTransferFrom",
      "outputs": [],
      "stateMutability": "nonpayable",
      "type": "function"
    },
    {
      "inputs": [
        {
          "internalType": "address",
          "name": "from",
          "type": "address"
        },
        {
          "internalType": "address",
          "name": "to",
          "type": "address"
        },
        {
          "internalType": "uint256",
          "name": "tokenId",
          "type": "uint256"
        },
        {
          "internalType": "bytes",
          "name": "data",
          "type": "bytes"
        }
      ],
      "name": "safeTransferFrom",
      "outputs": [],
      "stateMutability": "nonpayable",
      "type": "function"
    },
    {
      "inputs": [
        {
          "internalType": "uint256",
          "name": "agentId",
          "type": "uint256"
        },
        {
          "internalType": "string",
          "name": "newURI",
          "type": "string"
        }
      ],
      "name": "setAgentURI",
      "outputs": [],
      "stateMutability": "nonpayable",
      "type": "function"
    },
    {
      "inputs": [
        {
          "internalType": "uint256",
          "name": "agentId",
          "type": "uint256"
        },
        {
          "internalType": "address",
          "name": "newWallet",
          "type": "address"
        },
        {
          "internalType": "uint256",
          "name": "deadline",
          "type": "uint256"
        },
        {
          "internalType": "bytes",
          "name": "signature",
          "type": "bytes"
        }
      ],
      "name": "setAgentWallet",
      "outputs": [],
      "stateMutability": "nonpayable",
      "type": "function"
    },
    {
      "inputs": [
        {
          "internalType": "address",
          "name": "operator",
          "type": "address"
        },
        {
          "internalType": "bool",
          "name": "approved",
          "type": "bool"
        }
      ],
      "name": "setApprovalForAll",
      "outputs": [],
      "stateMutability": "nonpayable",
      "type": "function"
    },
    {
      "inputs": [
        {
          "internalType": "uint256",
          "name": "agentId",
          "type": "uint256"
        },
        {
          "internalType": "string",
          "name": "metadataKey",
          "type": "string"
        },
        {
          "internalType": "bytes",
          "name": "metadataValue",
          "type": "bytes"
        }
      ],
      "name": "setMetadata",
      "outputs": [],
      "stateMutability": "nonpayable",
      "type": "function"
    },
    {
      "inputs": [
        {
          "internalType": "bytes4",
          "name": "interfaceId",
          "type": "bytes4"
        }
      ],
      "name": "supportsInterface",
      "outputs": [
        {
          "internalType": "bool",
          "name": "",
          "type": "bool"
        }
      ],
      "stateMutability": "view",
      "type": "function"
    },
    {
      "inputs": [],
      "name": "symbol",
      "outputs": [
        {
          "internalType": "string",
          "name": "",
          "type": "string"
        }
      ],
      "stateMutability": "view",
      "type": "function"
    },
    {
      "inputs": [
        {
          "internalType": "uint256",
          "name": "tokenId",
          "type": "uint256"
        }
      ],
      "name": "tokenURI",
      "outputs": [
        {
          "internalType": "string",
          "name": "",
          "type": "string"
        }
      ],
      "stateMutability": "view",
      "type": "function"
    },
    {
      "inputs": [
        {
          "internalType": "address",
          "name": "from",
          "type": "address"
        },
        {
          "internalType": "address",
          "name": "to",
          "type": "address"
        },
        {
          "internalType": "uint256",
          "name": "tokenId",
          "type": "uint256"
        }
      ],
      "name": "transferFrom",
      "outputs": [],
      "stateMutability": "nonpayable",
      "type": "function"
    },
    {
      "inputs": [
        {
          "internalType": "address",
          "name": "newOwner",
          "type": "address"
        }
      ],
      "name": "transferOwnership",
      "outputs": [],
      "stateMutability": "nonpayable",
      "type": "function"
    },
    {
      "inputs": [
        {
          "internalType": "uint256",
          "name": "agentId",
          "type": "uint256"
        }
      ],
      "name": "unsetAgentWallet",
      "outputs": [],
      "stateMutability": "nonpayable",
      "type": "function"
    }
  ],
  "bytecode": "0x60806040523461037657604080519081016001600160401b0381118282101761028c576040908152600e82526d4167656e74204964656e7469747960901b602083015280519081016001600160401b0381118282101761028c5760405260058152641051d1539560da1b602082015281516001600160401b03811161028c575f54600181811c9116801561036c575b602082101461026e57601f811161030a575b50602092601f82116001146102ab57928192935f926102a0575b50508160011b915f199060031b1c1916175f555b80516001600160401b03811161028c57600154600181811c91168015610282575b602082101461026e57601f811161020b575b50602091601f82116001146101ab579181925f926101a0575b50508160011b915f199060031b1c1916176001555b331561018d5760078054336001600160a01b03198216811790925560405191906001600160a01b03167f8be0079c531659141344cd1fd0a4f28419497f9722a3daafe3b4186f6b6457e05f80a36001600855612bd2908161037b8239f35b631e4fbdf760e01b5f525f60045260245ffd5b015190505f8061011a565b601f1982169260015f52805f20915f5b8581106101f3575083600195106101db575b505050811b0160015561012f565b01515f1960f88460031b161c191690555f80806101cd565b919260206001819286850151815501940192016101bb565b60015f527fb10e2d527612073b26eecdfd717e6a320cf44b4afac2b0732d9fcbe2b7fa0cf6601f830160051c81019160208410610264575b601f0160051c01905b8181106102595750610101565b5f815560010161024c565b9091508190610243565b634e487b7160e01b5f52602260045260245ffd5b90607f16906100ef565b634e487b7160e01b5f52604160045260245ffd5b015190505f806100ba565b601f198216935f8052805f20915f5b8681106102f257508360019596106102da575b505050811b015f556100ce565b01515f1960f88460031b161c191690555f80806102cd565b919260206001819286850151815501940192016102ba565b5f80527f290decd9548b62a8d60345a988386fc84ba6bc95484008f6362f93160ef3e563601f830160051c81019160208410610362575b601f0160051c01905b81811061035757506100a0565b5f815560010161034a565b9091508190610341565b90607f169061008e565b5f80fdfe60806040526004361015610011575f80fd5b5f3560e01c80623395091461196f57806301ffc9a71461184c57806306fdde031461178c578063081812fc14611724578063095ea7b3146115a85780630af28bd3146114d25780631aa3a0081461140657806323b872dd146113ef5780632d1ef5ae1461116d5780633fddcf191461108957806342842e0e1461105a578063466648da14610d485780636352211e14610cee57806370a0823114610c59578063715018a614610bbd5780638da5cb5b14610b6c5780638ea42286146107bf57806395d89b41146106b9578063a22cb4651461058a578063b88d4fde146104fe578063c87b56dd146104c1578063cb4799f2146103bc578063e985e9c51461032b578063f2c298be1461021d5763f2fde38b1461012b575f80fd5b346102195760207ffffffffffffffffffffffffffffffffffffffffffffffffffffffffffffffffc3601126102195773ffffffffffffffffffffffffffffffffffffffff610177611a1a565b61017f6126a8565b1680156101ed5773ffffffffffffffffffffffffffffffffffffffff600754827fffffffffffffffffffffffff0000000000000000000000000000000000000000821617600755167f8be0079c531659141344cd1fd0a4f28419497f9722a3daafe3b4186f6b6457e05f80a3005b7f1e4fbdf7000000000000000000000000000000000000000000000000000000005f525f60045260245ffd5b5f80fd5b346102195760207ffffffffffffffffffffffffffffffffffffffffffffffffffffffffffffffffc3601126102195760043567ffffffffffffffff8111610219576103206102716020923690600401611a60565b907fca52e62c367d81bb2e328eb795f7c7ba24afb478408a26c0e201d155c449bc4a6008549384926102a284611c92565b6008556102af843361232b565b6102c36102bd368784611bcd565b856121a9565b835f526009875260405f2073ffffffffffffffffffffffffffffffffffffffff33167fffffffffffffffffffffffff0000000000000000000000000000000000000000825416179055604051918291888352339689840191611c54565b0390a3604051908152f35b346102195760407ffffffffffffffffffffffffffffffffffffffffffffffffffffffffffffffffc36011261021957610362611a1a565b73ffffffffffffffffffffffffffffffffffffffff61037f611a3d565b91165f52600560205273ffffffffffffffffffffffffffffffffffffffff60405f2091165f52602052602060ff60405f2054166040519015158152f35b34610219576103ea6103cd36611a8e565b90916103d881612150565b505f52600a60205260405f2091612000565b604051905f908054906103fc82611c03565b808552916001811690811561047c575060011461043c575b6104388461042481860382611b52565b6040519182916020835260208301906119d7565b0390f35b5f90815260208120939250905b8082106104625750909150810160200161042482610414565b919260018160209254838588010152019101909291610449565b7fffffffffffffffffffffffffffffffffffffffffffffffffffffffffffffff001660208087019190915292151560051b850190920192506104249150839050610414565b346102195760207ffffffffffffffffffffffffffffffffffffffffffffffffffffffffffffffffc36011261021957610438610424600435612875565b346102195760807ffffffffffffffffffffffffffffffffffffffffffffffffffffffffffffffffc36011261021957610535611a1a565b61053d611a3d565b906044356064359267ffffffffffffffff8411610219573660238501121561021957610576610588943690602481600401359101611bcd565b92610582838383611cec565b336126c9565b005b346102195760407ffffffffffffffffffffffffffffffffffffffffffffffffffffffffffffffffc360112610219576105c1611a1a565b6024359081151580920361021957331561068d5773ffffffffffffffffffffffffffffffffffffffff1690811561066157335f52600560205260405f20825f5260205260405f207fffffffffffffffffffffffffffffffffffffffffffffffffffffffffffffff0081541660ff83161790556040519081527f17307eab39ab6107e8899845ad3d59bd9653f200f220920489ca2b5937696c3160203392a3005b507f5b08ba18000000000000000000000000000000000000000000000000000000005f5260045260245ffd5b7fa9fbf51f000000000000000000000000000000000000000000000000000000005f525f60045260245ffd5b34610219575f7ffffffffffffffffffffffffffffffffffffffffffffffffffffffffffffffffc360112610219576040515f6001546106f781611c03565b808452906001811690811561077d575060011461071f575b6104388361042481850382611b52565b91905060015f527fb10e2d527612073b26eecdfd717e6a320cf44b4afac2b0732d9fcbe2b7fa0cf6915f905b8082106107635750909150810160200161042461070f565b91926001816020925483858801015201910190929161074b565b7fffffffffffffffffffffffffffffffffffffffffffffffffffffffffffffff001660208086019190915291151560051b84019091019150610424905061070f565b346102195760407ffffffffffffffffffffffffffffffffffffffffffffffffffffffffffffffffc3601126102195760043567ffffffffffffffff81116102195761080e903690600401611a60565b6024359067ffffffffffffffff821161021957366023830112156102195781600401359067ffffffffffffffff8211610219576024830192602436918460051b01011161021957610904937fca52e62c367d81bb2e328eb795f7c7ba24afb478408a26c0e201d155c449bc4a60085495869261088984611c92565b600855610896843361232b565b6108a46102bd368784611bcd565b835f52600960205260405f2073ffffffffffffffffffffffffffffffffffffffff33167fffffffffffffffffffffffff00000000000000000000000000000000000000008254161790556040519182916020835233966020840191611c54565b0390a35f5b81811061091b57602084604051908152f35b61093961093261092c838587612092565b806120ff565b3691611bcd565b60208151910120610948611fc5565b6020815191012014610b645761096c610962828486612092565b60208101906120ff565b855f52600a60205261098f60405f2061098961092c86888a612092565b90612000565b9167ffffffffffffffff8211610b37576109b3826109ad8554611c03565b85612019565b5f90601f8311600114610a92579180610a049260019695945f92610a87575b50507fffffffffffffffffffffffffffffffffffffffffffffffffffffffffffffffff8260011b9260031b1c19161790565b90555b610a7d857f2c149ed548c6d2993cd73efe187df6eccabe4538091b33adbd25fafdb8a1468b8587610a3c61092c878484612092565b610a5c61096289610a5461092c8289899d989d612092565b979096612092565b91909781604051928392833781015f81520390209660405194859485612068565b0390a35b01610909565b0135905089806109d2565b7fffffffffffffffffffffffffffffffffffffffffffffffffffffffffffffffe0831691845f5260205f20925f5b818110610b1f575091600196959492918388959310610ae7575b505050811b019055610a07565b7fffffffffffffffffffffffffffffffffffffffffffffffffffffffffffffffff60f88560031b161c19910135169055888080610ada565b83830135855560019094019360209283019201610ac0565b7f4e487b71000000000000000000000000000000000000000000000000000000005f52604160045260245ffd5b600190610a81565b34610219575f7ffffffffffffffffffffffffffffffffffffffffffffffffffffffffffffffffc36011261021957602073ffffffffffffffffffffffffffffffffffffffff60075416604051908152f35b34610219575f7ffffffffffffffffffffffffffffffffffffffffffffffffffffffffffffffffc36011261021957610bf36126a8565b5f73ffffffffffffffffffffffffffffffffffffffff6007547fffffffffffffffffffffffff00000000000000000000000000000000000000008116600755167f8be0079c531659141344cd1fd0a4f28419497f9722a3daafe3b4186f6b6457e08280a3005b346102195760207ffffffffffffffffffffffffffffffffffffffffffffffffffffffffffffffffc3601126102195773ffffffffffffffffffffffffffffffffffffffff610ca5611a1a565b168015610cc2575f526003602052602060405f2054604051908152f35b7f89c62b64000000000000000000000000000000000000000000000000000000005f525f60045260245ffd5b346102195760207ffffffffffffffffffffffffffffffffffffffffffffffffffffffffffffffffc360112610219576020610d2a600435612150565b73ffffffffffffffffffffffffffffffffffffffff60405191168152f35b346102195760607ffffffffffffffffffffffffffffffffffffffffffffffffffffffffffffffffc3601126102195760043560243567ffffffffffffffff811161021957610d9a903690600401611a60565b60449291923567ffffffffffffffff811161021957610dbd903690600401611a60565b610dc984959295612150565b50835f52600260205273ffffffffffffffffffffffffffffffffffffffff60405f20541633141580611017575b610feb57610e05368484611bcd565b60208151910120610e14611fc5565b6020815191012014610fc357835f52600a602052610e3660405f208484612000565b67ffffffffffffffff8211610b3757610e5982610e538354611c03565b83612019565b5f601f8311600114610efc5791610eec91610ecb82807f2c149ed548c6d2993cd73efe187df6eccabe4538091b33adbd25fafdb8a1468b9897965f91610ef1575b507fffffffffffffffffffffffffffffffffffffffffffffffffffffffffffffffff8260011b9260031b1c19161790565b90555b60405184848237808581015f81520390209660405194859485612068565b0390a3005b90508a01358b610e9a565b7fffffffffffffffffffffffffffffffffffffffffffffffffffffffffffffffe0831690825f5260205f20915f5b818110610fab575091610eec9391857f2c149ed548c6d2993cd73efe187df6eccabe4538091b33adbd25fafdb8a1468b9897969410610f73575b5050600182811b019055610ece565b7fffffffffffffffffffffffffffffffffffffffffffffffffffffffffffffffff60f88560031b161c19908a01351690558880610f64565b9192602060018192868d013581550194019201610f2a565b7fd3356558000000000000000000000000000000000000000000000000000000005f5260045ffd5b7f118cdaa7000000000000000000000000000000000000000000000000000000005f523360045260245ffd5b505f8481526002602090815260408083205473ffffffffffffffffffffffffffffffffffffffff1683526005825280832033845290915290205460ff1615610df6565b346102195761058861106b36611ae0565b906040519261107b602085611b52565b5f8452610582838383611cec565b346102195760207ffffffffffffffffffffffffffffffffffffffffffffffffffffffffffffffffc360112610219576004356110c481612150565b50805f52600260205273ffffffffffffffffffffffffffffffffffffffff60405f2054163314158061112a575b610feb575f52600960205260405f207fffffffffffffffffffffffff000000000000000000000000000000000000000081541690555f80f35b505f8181526002602090815260408083205473ffffffffffffffffffffffffffffffffffffffff1683526005825280832033845290915290205460ff16156110f1565b346102195760807ffffffffffffffffffffffffffffffffffffffffffffffffffffffffffffffffc360112610219576004356111a7611a3d565b906044359060643567ffffffffffffffff8111610219576111cc903690600401611a60565b6111d883949294612150565b504282106113c75761136461135b73ffffffffffffffffffffffffffffffffffffffff92611355604051988560208b01917fa3181b3f6075b6c71999c3cc621b869e7d9267ae4befcd6fd724006e9e0ad76583528960408d015216998a9788606083015260808201526080815261125060a082611b52565b5190209760426040998a601c6020825161126a8482611b52565b828152017f4167656e7457616c6c6574204964656e746974795265676973747279000000008152206001602083516112a28582611b52565b828152017f310000000000000000000000000000000000000000000000000000000000000081522082519160208301937f8b73c3c69bb8fe3d512ecc4cf759cc79239f7b179b0ffacaa9a75d522b39400f855283015260608201524660808201523060a082015260a0815261131860c082611b52565b519020908b51917f190100000000000000000000000000000000000000000000000000000000000083526002830152602282015220923691611bcd565b906129f0565b90929192612a2a565b160361139f575f5260096020525f20907fffffffffffffffffffffffff00000000000000000000000000000000000000008254161790555f80f35b7f8baa579f000000000000000000000000000000000000000000000000000000005f5260045ffd5b7f0819bdcd000000000000000000000000000000000000000000000000000000005f5260045ffd5b346102195761058861140036611ae0565b91611cec565b34610219575f7ffffffffffffffffffffffffffffffffffffffffffffffffffffffffffffffffc36011261021957602060085461144281611c92565b60085561144f813361232b565b805f526009825260405f2073ffffffffffffffffffffffffffffffffffffffff33167fffffffffffffffffffffffff00000000000000000000000000000000000000008254161790556040518281525f83820152817fca52e62c367d81bb2e328eb795f7c7ba24afb478408a26c0e201d155c449bc4a60403393a3604051908152f35b34610219576114e036611a8e565b91906114eb82612150565b50815f52600260205273ffffffffffffffffffffffffffffffffffffffff60405f20541633141580611565575b610feb57610eec7f3a2c7fffc2cba7582c690e3b82c453ea02a308326a98a3ad7576c606336409fb9161154f6102bd368784611bcd565b6040519182916020835233966020840191611c54565b505f8281526002602090815260408083205473ffffffffffffffffffffffffffffffffffffffff1683526005825280832033845290915290205460ff1615611518565b346102195760407ffffffffffffffffffffffffffffffffffffffffffffffffffffffffffffffffc360112610219576115df611a1a565b6024356115eb81612150565b33151580611704575b806116b7575b61168b57819073ffffffffffffffffffffffffffffffffffffffff80851691167f8c5be1e5ebec7d5bd14f71427d1e84f3dd0314c0f7b2291e5b200ac8c7c3b9255f80a45f52600460205273ffffffffffffffffffffffffffffffffffffffff60405f2091167fffffffffffffffffffffffff00000000000000000000000000000000000000008254161790555f80f35b7fa9fbf51f000000000000000000000000000000000000000000000000000000005f523360045260245ffd5b5073ffffffffffffffffffffffffffffffffffffffff81165f52600560205260405f2073ffffffffffffffffffffffffffffffffffffffff33165f5260205260ff60405f205416156115fa565b503373ffffffffffffffffffffffffffffffffffffffff821614156115f4565b346102195760207ffffffffffffffffffffffffffffffffffffffffffffffffffffffffffffffffc3601126102195760043561175f81612150565b505f526004602052602073ffffffffffffffffffffffffffffffffffffffff60405f205416604051908152f35b34610219575f7ffffffffffffffffffffffffffffffffffffffffffffffffffffffffffffffffc360112610219576040515f5f546117c981611c03565b808452906001811690811561077d57506001146117f0576104388361042481850382611b52565b5f8080527f290decd9548b62a8d60345a988386fc84ba6bc95484008f6362f93160ef3e563939250905b8082106118325750909150810160200161042461070f565b91926001816020925483858801015201910190929161181a565b346102195760207ffffffffffffffffffffffffffffffffffffffffffffffffffffffffffffffffc360112610219576004357fffffffff00000000000000000000000000000000000000000000000000000000811680910361021957807f4906490600000000000000000000000000000000000000000000000000000000602092149081156118e1575b506040519015158152f35b7f80ac58cd00000000000000000000000000000000000000000000000000000000811491508115611945575b811561191b575b50826118d6565b7f01ffc9a70000000000000000000000000000000000000000000000000000000091501482611914565b7f5b5e139f000000000000000000000000000000000000000000000000000000008114915061190d565b346102195760207ffffffffffffffffffffffffffffffffffffffffffffffffffffffffffffffffc360112610219576004356119aa81612150565b505f526009602052602073ffffffffffffffffffffffffffffffffffffffff60405f205416604051908152f35b907fffffffffffffffffffffffffffffffffffffffffffffffffffffffffffffffe0601f602080948051918291828752018686015e5f8582860101520116010190565b6004359073ffffffffffffffffffffffffffffffffffffffff8216820361021957565b6024359073ffffffffffffffffffffffffffffffffffffffff8216820361021957565b9181601f840112156102195782359167ffffffffffffffff8311610219576020838186019501011161021957565b9060407ffffffffffffffffffffffffffffffffffffffffffffffffffffffffffffffffc83011261021957600435916024359067ffffffffffffffff821161021957611adc91600401611a60565b9091565b7ffffffffffffffffffffffffffffffffffffffffffffffffffffffffffffffffc60609101126102195760043573ffffffffffffffffffffffffffffffffffffffff81168103610219579060243573ffffffffffffffffffffffffffffffffffffffff81168103610219579060443590565b90601f7fffffffffffffffffffffffffffffffffffffffffffffffffffffffffffffffe0910116810190811067ffffffffffffffff821117610b3757604052565b67ffffffffffffffff8111610b3757601f017fffffffffffffffffffffffffffffffffffffffffffffffffffffffffffffffe01660200190565b929192611bd982611b93565b91611be76040519384611b52565b829481845281830111610219578281602093845f960137010152565b90600182811c92168015611c4a575b6020831014611c1d57565b7f4e487b71000000000000000000000000000000000000000000000000000000005f52602260045260245ffd5b91607f1691611c12565b601f82602094937fffffffffffffffffffffffffffffffffffffffffffffffffffffffffffffffe093818652868601375f8582860101520116010190565b7fffffffffffffffffffffffffffffffffffffffffffffffffffffffffffffffff8114611cbf5760010190565b7f4e487b71000000000000000000000000000000000000000000000000000000005f52601160045260245ffd5b919073ffffffffffffffffffffffffffffffffffffffff168015611f99575f8281526002602052604090205473ffffffffffffffffffffffffffffffffffffffff1692331515918490849084611eae575b73ffffffffffffffffffffffffffffffffffffffff945086611e40575b805f52600360205260405f2060018154019055815f52600260205260405f20817fffffffffffffffffffffffff0000000000000000000000000000000000000000825416179055867fddf252ad1be2c89b69c2b068fc378daa952ba7f163c4a11628f55a4df523b3ef5f80a4611e09575b16808303611dd857505050565b7f64283d7b000000000000000000000000000000000000000000000000000000005f5260045260245260445260645ffd5b825f52600960205260405f207fffffffffffffffffffffffff00000000000000000000000000000000000000008154169055611dcb565b611e77825f52600460205260405f207fffffffffffffffffffffffff00000000000000000000000000000000000000008154169055565b865f52600360205260405f207fffffffffffffffffffffffffffffffffffffffffffffffffffffffffffffffff8154019055611d5a565b91929380915090611f28575b15611ec85790838392611d3d565b8385611ef9577f7e273289000000000000000000000000000000000000000000000000000000005f5260045260245ffd5b7f177e802f000000000000000000000000000000000000000000000000000000005f523360045260245260445ffd5b503385148015611f63575b80611eba5750835f5260046020523373ffffffffffffffffffffffffffffffffffffffff60405f20541614611eba565b50845f52600560205260405f2073ffffffffffffffffffffffffffffffffffffffff33165f5260205260ff60405f205416611f33565b7f64a0ae92000000000000000000000000000000000000000000000000000000005f525f60045260245ffd5b60405190611fd4604083611b52565b600b82527f6167656e7457616c6c65740000000000000000000000000000000000000000006020830152565b6020919283604051948593843782019081520301902090565b601f821161202657505050565b5f5260205f20906020601f840160051c8301931061205e575b601f0160051c01905b818110612053575050565b5f8155600101612048565b909150819061203f565b92906120819061208f9593604086526040860191611c54565b926020818503910152611c54565b90565b91908110156120d25760051b810135907fffffffffffffffffffffffffffffffffffffffffffffffffffffffffffffffc181360301821215610219570190565b7f4e487b71000000000000000000000000000000000000000000000000000000005f52603260045260245ffd5b9035907fffffffffffffffffffffffffffffffffffffffffffffffffffffffffffffffe181360301821215610219570180359067ffffffffffffffff82116102195760200191813603831361021957565b805f52600260205273ffffffffffffffffffffffffffffffffffffffff60405f20541690811561217e575090565b7f7e273289000000000000000000000000000000000000000000000000000000005f5260045260245ffd5b919091805f52600660205260405f20835167ffffffffffffffff8111610b37576121dd816121d78454611c03565b84612019565b6020601f82116001146122665781602094939261224f927ff8e1a15aba9398e019f0b49df1a4fde98ee17ae345cb5f6b5e2c27f5033e8ce797985f9261225b5750507fffffffffffffffffffffffffffffffffffffffffffffffffffffffffffffffff8260011b9260031b1c19161790565b90555b604051908152a1565b015190505f806109d2565b7fffffffffffffffffffffffffffffffffffffffffffffffffffffffffffffffe0821695835f52815f20965f5b818110612313575096600192849260209796957ff8e1a15aba9398e019f0b49df1a4fde98ee17ae345cb5f6b5e2c27f5033e8ce7999a106122dc575b505050811b019055612252565b01517fffffffffffffffffffffffffffffffffffffffffffffffffffffffffffffffff60f88460031b161c191690555f80806122cf565b83830151895560019098019760209384019301612293565b906020906040519061233d8383611b52565b5f825273ffffffffffffffffffffffffffffffffffffffff8416938415611f9957815f526002845273ffffffffffffffffffffffffffffffffffffffff60405f205416825f526002855273ffffffffffffffffffffffffffffffffffffffff60405f205416801515918261263b575b875f526003875260405f2060018154019055845f526002875260405f20887fffffffffffffffffffffffff00000000000000000000000000000000000000008254161790558488837fddf252ad1be2c89b69c2b068fc378daa952ba7f163c4a11628f55a4df523b3ef5f80a4612605575b506125d9573b61242e575b50505050565b91612484918194959360405193849283927f150b7a020000000000000000000000000000000000000000000000000000000084523360048501525f602485015260448401526080606484015260848301906119d7565b03815f885af15f9181612581575b506125005750503d156124f8573d906124aa82611b93565b916124b86040519384611b52565b82523d5f8284013e5b815191826124f557837f64a0ae92000000000000000000000000000000000000000000000000000000005f5260045260245ffd5b01fd5b6060906124c1565b7f150b7a0200000000000000000000000000000000000000000000000000000000919392507fffffffff00000000000000000000000000000000000000000000000000000000160361255657505f808080612428565b7f64a0ae92000000000000000000000000000000000000000000000000000000005f5260045260245ffd5b9091508381813d83116125d2575b6125998183611b52565b8101031261021957517fffffffff000000000000000000000000000000000000000000000000000000008116810361021957905f612492565b503d61258f565b7f73c6ac6e000000000000000000000000000000000000000000000000000000005f525f60045260245ffd5b835f526009865260405f207fffffffffffffffffffffffff0000000000000000000000000000000000000000815416905561241d565b612672855f52600460205260405f207fffffffffffffffffffffffff00000000000000000000000000000000000000008154169055565b815f526003875260405f207fffffffffffffffffffffffffffffffffffffffffffffffffffffffffffffffff81540190556123ac565b73ffffffffffffffffffffffffffffffffffffffff600754163303610feb57565b93909293823b6126db575b5050505050565b61274873ffffffffffffffffffffffffffffffffffffffff928360209516968460405197889687967f150b7a0200000000000000000000000000000000000000000000000000000000885216600487015216602485015260448401526080606484015260848301906119d7565b03815f865af15f9181612818575b506127c457503d156127bd573d61276c81611b93565b9061277a6040519283611b52565b81523d5f602083013e5b805190816127b857827f64a0ae92000000000000000000000000000000000000000000000000000000005f5260045260245ffd5b602001fd5b6060612784565b7fffffffff000000000000000000000000000000000000000000000000000000007f150b7a020000000000000000000000000000000000000000000000000000000091160361255657505f808080806126d4565b9091506020813d60201161286d575b8161283460209383611b52565b8101031261021957517fffffffff000000000000000000000000000000000000000000000000000000008116810361021957905f612756565b3d9150612827565b61287e81612150565b5060209060405161288f8382611b52565b5f8152815f526006835260405f206040515f91818154936128af85611c03565b9283835288830195896001821691825f146129b4575050600114612978575b506128db92500382611b52565b82511561297057908185925161291b57505050506128f890612150565b505f6040516129078382611b52565b526129156040519182611b52565b5f815290565b61208f94506040519584879551918291018587015e840190838201905f8252519283915e01015f8152037fffffffffffffffffffffffffffffffffffffffffffffffffffffffffffffffe08101835282611b52565b935050505090565b9150505f528186805f205f905b84821061299b57506128db93508201015f6128ce565b6001919350805483858801015201910187908492612985565b7fffffffffffffffffffffffffffffffffffffffffffffffffffffffffffffff001688526128db95151560051b85010192505f91506128ce9050565b8151919060418303612a2057612a199250602082015190606060408401519301515f1a90612b02565b9192909190565b50505f9160029190565b6004811015612ad55780612a3c575050565b60018103612a6c577ff645eedf000000000000000000000000000000000000000000000000000000005f5260045ffd5b60028103612aa057507ffce698f7000000000000000000000000000000000000000000000000000000005f5260045260245ffd5b600314612aaa5750565b7fd78bce0c000000000000000000000000000000000000000000000000000000005f5260045260245ffd5b7f4e487b71000000000000000000000000000000000000000000000000000000005f52602160045260245ffd5b91907f7fffffffffffffffffffffffffffffff5d576e7357a4501ddfe92f46681b20a08411612b91579160209360809260ff5f9560405194855216868401526040830152606082015282805260015afa15612b86575f5173ffffffffffffffffffffffffffffffffffffffff811615612b7c57905f905f90565b505f906001905f90565b6040513d5f823e3d90fd5b5050505f916003919056fea2646970667358221220b15eec98e2f2a1b8e3e82bc1d9adc00e42b108b5c95059476d7128abe275728864736f6c634300081c0033",
  "linkReferences": {},
  "deployedLinkReferences": {}
}