{
  "_format": "hh-sol-artifact-1",
  "contractName": "IdentityRegistry",
  "sourceName": "contracts/IdentityRegistry.sol",
  "abi": [
    {
      "inputs": [],
      "stateMutability": "nonpayable",
      "type": "constructor"
    },
    {
      "inputs": [],
      "name": "ECDSAInvalidSignature",
      "type": "error"
    },
    {
      "inputs": [
        {
          "internalType": "uint256",
          "name": "length",
          "type": "uint256"
        }
      ],
      "name": "ECDSAInvalidSignatureLength",
      "type": "error"
    },
    {
      "inputs": [
        {
          "internalType": "bytes32",
          "name": "s",
          "type": "bytes32"
        }
      ],
      "name": "ECDSAInvalidSignatureS",
      "type": "error"
    },
    {
      "inputs": [
        {
          "internalType": "address",
          "name": "sender",
          "type": "address"
        },
        {
          "internalType": "uint256",
          "name": "tokenId",
          "type": "uint256"
        },
        {
          "internalType": "address",
          "name": "owner",
          "type": "address"
        }
      ],
      "name": "ERC721IncorrectOwner",
      "type": "error"
    },
    {
      "inputs": [
        {
          "internalType": "address",
          "name": "operator",
          "type": "address"
        },
        {
          "internalType": "uint256",
          "name": "tokenId",
          "type": "uint256"
        }
      ],
      "name": "ERC721InsufficientApproval",
      "type": "error"
    },
    {
      "inputs": [
        {
          "internalType": "address",
          "name": "approver",
          "type": "address"
        }
      ],
      "name": "ERC721InvalidApprover",
      "type": "error"
    },
    {
      "inputs": [
        {
          "internalType": "address",
          "name": "operator",
          "type": "address"
        }
      ],
      "name": "ERC721InvalidOperator",
      "type": "error"
    },
    {
      "inputs": [
        {
          "internalType": "address",
          "name": "owner",
          "type": "address"
        }
      ],
      "name": "ERC721InvalidOwner",
      "type": "error"
    },
    {
      "inputs": [
        {
          "internalType": "address",
          "name": "receiver",
          "type": "address"
        }
      ],
      "name": "ERC721InvalidReceiver",
      "type": "error"
    },
    {
      "inputs": [
        {
          "internalType": "address",
          "name": "sender",
          "type": "address"
        }
      ],
      "name": "ERC721InvalidSender",
      "type": "error"
    },
    {
      "inputs": [
        {
          "internalType": "uint256",
          "name": "tokenId",
          "type": "uint256"
        }
      ],
      "name": "ERC721NonexistentToken",
      "type": "error"
    },
    {
      "inputs": [],
      "name": "InvalidSignature",
      "type": "error"
    },
    {
      "inputs": [
        {
          "internalType": "address",
          "name": "owner",
          "type": "address"
        }
      ],
      "name": "OwnableInvalidOwner",
      "type": "error"
    },
    {
      "inputs": [
        {
          "internalType": "address",
          "name": "account",
          "type": "address"
        }
      ],
      "name": "OwnableUnauthorizedAccount",
      "type": "error"
    },
    {
      "inputs": [],
      "name": "ReservedMetadataKey",
      "type": "error"
    },
    {
      "inputs": [],
      "name": "SignatureExpired",
      "type": "error"
    },
    {
      "anonymous": false,
      "inputs": [
        {
          "indexed": true,
          "internalType": "address",
          "name": "owner",
          "type": "address"
        },
        {
          "indexed": true,
          "internalType": "address",
          "name": "approved",
          "type": "address"
        },
        {
          "indexed": true,
          "internalType": "uint256",
          "name": "tokenId",
          "type": "uint256"
        }
      ],
      "name": "Approval",
      "type": "event"
    },
    {
      "anonymous": false,
      "inputs": [
        {
          "indexed": true,
          "internalType": "address",
          "name": "owner",
          "type": "address"
        },
        {
          "indexed": true,
          "internalType": "address",
          "name": "operator",
          "type": "address"
        },
        {
          "indexed": false,
          "internalType": "bool",
          "name": "approved",
          "type": "bool"
        }
      ],
      "name": "ApprovalForAll",
      "type": "event"
    },
    {
      "anonymous": false,
      "inputs": [
        {
          "indexed": false,
          "internalType": "uint256",
          "name": "_fromTokenId",
          "type": "uint256"
        },
        {
          "indexed": false,
          "internalType": "uint256",
          "name": "_toTokenId",
          "type": "uint256"
        }
      ],
      "name": "BatchMetadataUpdate",
      "type": "event"
    },
    {
      "anonymous": false,
      "inputs": [
        {
          "indexed": true,
          "internalType": "uint256",
          "name": "agentId",
          "type": "uint256"
        },
        {
          "indexed": true,
          "internalType": "string",
          "name": "indexedMetadataKey",
          "type": "string"
        },
        {
          "indexed": false,
          "internalType": "string",
          "name": "metadataKey",
          "type": "string"
        },
        {
          "indexed": false,
          "internalType": "bytes",
          "name": "metadataValue",
          "type": "bytes"
        }
      ],
      "name": "MetadataSet",
      "type": "event"
    },
    {
      "anonymous": false,
      "inputs": [
        {
          "indexed": false,
          "internalType": "uint256",
          "name": "_tokenId",
          "type": "uint256"
        }
      ],
      "name": "MetadataUpdate",
      "type": "event"
    },
    {
      "anonymous": false,
      "inputs": [
        {
          "indexed": true,
          "internalType": "address",
          "name": "previousOwner",
          "type": "address"
        },
        {
          "indexed": true,
          "internalType": "address",
          "name": "newOwner",
          "type": "address"
        }
      ],
      "name": "OwnershipTransferred",
      "type": "event"
    },
    {
      "anonymous": false,
      "inputs": [
        {
          "indexed": true,
          "internalType": "uint256",
          "name": "agentId",
          "type": "uint256"
        },
        {
          "indexed": false,
          "internalType": "string",
          "name": "agentURI",
          "type": "string"
        },
        {
          "indexed": true,
          "internalType": "address",
          "name": "owner",
          "type": "address"
        }
      ],
      "name": "Registered",
      "type": "event"
    },
    {
      "anonymous": false,
      "inputs": [
        {
          "indexed": true,
          "internalType": "address",
          "name": "from",
          "type": "address"
        },
        {
          "indexed": true,
          "internalType": "address",
          "name": "to",
          "type": "address"
        },
        {
          "indexed": true,
          "internalType": "uint256",
          "name": "tokenId",
          "type": "uint256"
        }
      ],
      "name": "Transfer",
      "type": "event"
    },
    {
      "anonymous": false,
      "inputs": [
        {
          "indexed": true,
          "internalType": "uint256",
          "name": "agentId",
          "type": "uint256"
        },
        {
          "indexed": false,
          "internalType": "string",
          "name": "newURI",
          "type": "string"
        },
        {
          "indexed": true,
          "internalType": "address",
          "name": "updatedBy",
          "type": "address"
        }
      ],
      "name": "URIUpdated",
      "type": "event"
    },
    {
      "inputs": [
        {
          "internalType": "address",
          "name": "to",
          "type": "address"
        },
        {
          "internalType": "uint256",
          "name": "tokenId",
          "type": "uint256"
        }
      ],
      "name": "approve",
      "outputs": [],
      "stateMutability": "nonpayable",
      "type": "function"
    },
    {
      "inputs": [
        {
          "internalType": "address",
          "name": "owner",
          "type": "address"
        }
      ],
      "name": "balanceOf",
      "outputs": [
        {
          "internalType": "uint256",
          "name": "",
          "type": "uint256"
        }
      ],
      "stateMutability": "view",
      "type": "function"
    },
    {
      "inputs": [
        {
          "internalType": "uint256",
          "name": "agentId",
          "type": "uint256"
        }
      ],
      "name": "getAgentWallet",
      "outputs": [
        {
          "internalType": "address",
          "name": "",
          "type": "address"
        }
      ],
      "stateMutability": "view",
      "type": "function"
    },
    {
      "inputs": [
        {
          "internalType": "uint256",
          "name": "tokenId",
          "type": "uint256"
        }
      ],
      "name": "getApproved",
      "outputs": [
        {
          "internalType": "address",
          "name": "",
          "type": "address"
        }
      ],
      "stateMutability": "view",
      "type": "function"
    },
    {
      "inputs": [
        {
          "internalType": "uint256",
          "name": "agentId",
          "type": "uint256"
        },
        {
          "internalType": "string",
          "name": "metadataKey",
          "type": "string"
        }
      ],
      "name": "getMetadata",
      "outputs": [
        {
          "internalType": "bytes",
          "name": "",
          "type": "bytes"
        }
      ],
      "stateMutability": "view",
      "type": "function"
    },
    {
      "inputs": [
        {
          "internalType": "address",
          "name": "owner",
          "type": "address"
        },
        {
          "internalType": "address",
          "name": "operator",
          "type": "address"
        }
      ],
      "name": "isApprovedForAll",
      "outputs": [
        {
          "internalType": "bool",
          "name": "",
          "type": "bool"
        }
      ],
      "stateMutability": "view",
      "type": "function"
    },
    {
      "inputs": [],
      "name": "name",
      "outputs": [
        {
          "internalType": "string",
          "name": "",
          "type": "string"
        }
      ],
      "stateMutability": "view",
      "type": "function"
    },
    {
      "inputs": [],
      "name": "owner",
      "outputs": [
        {
          "internalType": "address",
          "name": "",
          "type": "address"
        }
      ],
      "stateMutability": "view",
      "type": "function"
    },
    {
      "inputs": [
        {
          "internalType": "uint256",
          "name": "tokenId",
          "type": "uint256"
        }
      ],
      "name": "ownerOf",
      "outputs": [
        {
          "internalType": "address",
          "name": "",
          "type": "address"
        }
      ],
      "stateMutability": "view",
      "type": "function"
    },
    {
      "inputs": [],
      "name": "register",
      "outputs": [
        {
          "internalType": "uint256",
          "name": "agentId",
          "type": "uint256"
        }
      ],
      "stateMutability": "nonpayable",
      "type": "function"
    },
    {
      "inputs": [
        {
          "internalType": "string",
          "name": "agentURI",
          "type": "string"
        },
        {
          "components": [
            {
              "internalType": "string",
              "name": "metadataKey",
              "type": "string"
            },
            {
              "internalType": "bytes",
              "name": "metadataValue",
              "type": "bytes"
            }
          ],
          "internalType": "struct IdentityRegistry.MetadataEntry[]",
          "name": "metadata",
          "type": "tuple[]"
        }
      ],
      "name": "register",
      "outputs": [
        {
          "internalType": "uint256",
          "name": "agentId",
          "type": "uint256"
        }
      ],
      "stateMutability": "nonpayable",
      "type": "function"
    },
    {
      "inputs": [
        {
          "internalType": "string",
          "name": "agentURI",
          "type": "string"
        }
      ],
      "name": "register",
      "outputs": [
        {
          "internalType": "uint256",
          "name": "agentId",
          "type": "uint256"
        }
      ],
      "stateMutability": "nonpayable",
      "type": "function"
    },
    {
      "inputs": [],
      "name": "renounceOwnership",
      "outputs": [],
      "stateMutability": "nonpayable",
      "type": "function"
    },
    {
      "inputs": [
        {
          "internalType": "address",
          "name": "from",
          "type": "address"
        },
        {
          "internalType": "address",
          "name": "to",
          "type": "address"
        },
        {
          "internalType": "uint256",
          "name": "tokenId",
          "type": "uint256"
        }
      ],
      "name": "safeTransferFrom",
      "outputs": [],
      "stateMutability": "nonpayable",
      "type": "function"
    },
    {
      "inputs": [
        {
          "internalType": "address",
          "name": "from",
          "type": "address"
        },
        {
          "internalType": "address",
          "name": "to",
          "type": "address"
        },
        {
          "internalType": "uint256",
          "name": "tokenId",
          "type": "uint256"
        },
        {
          "internalType": "bytes",
          "name": "data",
          "type": "bytes"
        }
      ],
      "name": "safeTransferFrom",
      "outputs": [],
      "stateMutability": "nonpayable",
      "type": "function"
    },
    {
      "inputs": [
        {
          "internalType": "uint256",
          "name": "agentId",
          "type": "uint256"
        },
        {
          "internalType": "string",
          "name": "newURI",
          "type": "string"
        }
      ],
      "name": "setAgentURI",
      "outputs": [],
      "stateMutability": "nonpayable",
      "type": "function"
    },
    {
      "inputs": [
        {
          "internalType": "uint256",
          "name": "agentId",
          "type": "uint256"
        },
        {
          "internalType": "address",
          "name": "newWallet",
          "type": "address"
        },
        {
          "internalType": "uint256",
          "name": "deadline",
          "type": "uint256"
        },
        {
          "internalType": "bytes",
          "name": "signature",
          "type": "bytes"
        }
      ],
      "name": "setAgentWallet",
      "outputs": [],
      "stateMutability": "nonpayable",
      "type": "function"
    },
    {
      "inputs": [
        {
          "internalType": "address",
          "name": "operator",
          "type": "address"
        },
        {
          "internalType": "bool",
          "name": "approved",
          "type": "bool"
        }
      ],
      "name": "setApprovalForAll",
      "outputs": [],
      "stateMutability": "nonpayable",
      "type": "function"
    },
    {
      "inputs": [
        {
          "internalType": "uint256",
          "name": "agentId",
          "type": "uint256"
        },
        {
          "internalType": "string",
          "name": "metadataKey",
          "type": "string"
        },
        {
          "internalType": "bytes",
          "name": "metadataValue",
          "type": "bytes"
        }
      ],
      "name": "setMetadata",
      "outputs": [],
      "stateMutability": "nonpayable",
      "type": "function"
    },
    {
      "inputs": [
        {
          "internalType": "bytes4",
          "name": "interfaceId",
          "type": "bytes4"
        }
      ],
      "name": "supportsInterface",
      "outputs": [
        {
          "internalType": "bool",
          "name": "",
          "type": "bool"
        }
      ],
      "stateMutability": "view",
      "type": "function"
    },
    {
      "inputs": [],
      "name": "symbol",
      "outputs": [
        {
          "internalType": "string",
          "name": "",
          "type": "string"
        }
      ],
      "stateMutability": "view",
      "type": "function"
    },
    {
      "inputs": [
        {
          "internalType": "uint256",
          "name": "tokenId",
          "type": "uint256"
        }
      ],
      "name": "tokenURI",
      "outputs": [
        {
          "internalType": "string",
          "name": "",
          "type": "string"
        }
      ],
      "stateMutability": "view",
      "type": "function"
    },
    {
      "inputs": [
        {
          "internalType": "address",
          "name": "from",
          "type": "address"
        },
        {
          "internalType": "address",
          "name": "to",
          "type": "address"
        },
        {
          "internalType": "uint256",
          "name": "tokenId",
          "type": "uint256"
        }
      ],
      "name": "transferFrom",
      "outputs": [],
      "stateMutability": "nonpayable",
      "type": "function"
    },
    {
      "inputs": [
        {
          "internalType": "address",
          "name": "newOwner",
          "type": "address"
        }
      ],
      "name": "transferOwnership",
      "outputs": [],
      "stateMutability": "nonpayable",
      "type": "function"
    },
    {
      "inputs": [
        {
          "internalType": "uint256",
          "name": "agentId",
          "type": "uint256"
        }
      ],
      "name": "unsetAgentWallet",
      "outputs": [],
      "stateMutability": "nonpayable",
      "type": "function"
    }
  ],
  "bytecode": "0x60806040523461037657604080519081016001600160401b0381118282101761028c576040908152600e82526d4167656e74204964656e7469747960901b602083015280519081016001600160401b0381118282101761028c5760405260058152641051d1539560da1b602082015281516001600160401b03811161028c575f54600181811c9116801561036c575b602082101461026e57601f811161030a575b50602092601f82116001146102ab57928192935f926102a0575b50508160011b915f199060031b1c1916175f555b80516001600160401b03811161028c57600154600181811c91168015610282575b602082101461026e57601f811161020b575b50602091601f82116001146101ab579181925f926101a0575b50508160011b915f199060031b1c1916176001555b331561018d5760078054336001600160a01b03198216811790925560405191906001600160a01b03167f8be0079c531659141344cd1fd0a4f28419497f9722a3daafe3b4186f6b6457e05f80a36001600855612a0f908161037b8239f35b631e4fbdf760e01b5f525f60045260245ffd5b015190505f8061011a565b601f1982169260015f52805f20915f5b8581106101f3575083600195106101db575b505050811b0160015561012f565b01515f1960f88460031b161c191690555f80806101cd565b919260206001819286850151815501940192016101bb565b60015f527fb10e2d527612073b26eecdfd717e6a320cf44b4afac2b0732d9fcbe2b7fa0cf6601f830160051c81019160208410610264575b601f0160051c01905b8181106102595750610101565b5f815560010161024c565b9091508190610243565b634e487b7160e01b5f52602260045260245ffd5b90607f16906100ef565b634e487b7160e01b5f52604160045260245ffd5b015190505f806100ba565b601f198216935f8052805f20915f5b8681106102f257508360019596106102da575b505050811b015f556100ce565b01515f1960f88460031b161c191690555f80806102cd565b919260206001819286850151815501940192016102ba565b5f80527f290decd9548b62a8d60345a988386fc84ba6bc95484008f6362f93160ef3e563601f830160051c81019160208410610362575b601f0160051c01905b81811061035757506100a0565b5f815560010161034a565b9091508190610341565b90607f169061008e565b5f80fdfe60806040526004361015610011575f80fd5b5f3560e01c80623395091461195d57806301ffc9a71461183a57806306fdde031461177a578063081812fc14611712578063095ea7b3146115965780630af28bd3146114c05780631aa3a008146113f457806323b872dd146113dd5780632d1ef5ae1461115b5780633fddcf191461107757806342842e0e1461104e578063466648da14610d3c5780636352211e14610ce257806370a0823114610c4d578063715018a614610bb15780638da5cb5b14610b605780638ea42286146107b357806395d89b41146106ad578063a22cb4651461057e578063b88d4fde146104fe578063c87b56dd146104c1578063cb4799f2146103bc578063e985e9c51461032b578063f2c298be1461021d5763f2fde38b1461012b575f80fd5b346102195760207ffffffffffffffffffffffffffffffffffffffffffffffffffffffffffffffffc3601126102195773ffffffffffffffffffffffffffffffffffffffff610177611a08565b61017f612691565b1680156101ed5773ffffffffffffffffffffffffffffffffffffffff600754827fffffffffffffffffffffffff0000000000000000000000000000000000000000821617600755167f8be0079c531659141344cd1fd0a4f28419497f9722a3daafe3b4186f6b6457e05f80a3005b7f1e4fbdf7000000000000000000000000000000000000000000000000000000005f525f60045260245ffd5b5f80fd5b346102195760207ffffffffffffffffffffffffffffffffffffffffffffffffffffffffffffffffc3601126102195760043567ffffffffffffffff8111610219576103206102716020923690600401611a4e565b907fca52e62c367d81bb2e328eb795f7c7ba24afb478408a26c0e201d155c449bc4a6008549384926102a284611c80565b6008556102af84336124f5565b6102c36102bd368784611bbb565b85612373565b835f526009875260405f2073ffffffffffffffffffffffffffffffffffffffff33167fffffffffffffffffffffffff0000000000000000000000000000000000000000825416179055604051918291888352339689840191611c42565b0390a3604051908152f35b346102195760407ffffffffffffffffffffffffffffffffffffffffffffffffffffffffffffffffc36011261021957610362611a08565b73ffffffffffffffffffffffffffffffffffffffff61037f611a2b565b91165f52600560205273ffffffffffffffffffffffffffffffffffffffff60405f2091165f52602052602060ff60405f2054166040519015158152f35b34610219576103ea6103cd36611a7c565b90916103d88161231a565b505f52600a60205260405f2091611fee565b604051905f908054906103fc82611bf1565b808552916001811690811561047c575060011461043c575b6104388461042481860382611b40565b6040519182916020835260208301906119c5565b0390f35b5f90815260208120939250905b8082106104625750909150810160200161042482610414565b919260018160209254838588010152019101909291610449565b7fffffffffffffffffffffffffffffffffffffffffffffffffffffffffffffff001660208087019190915292151560051b850190920192506104249150839050610414565b346102195760207ffffffffffffffffffffffffffffffffffffffffffffffffffffffffffffffffc360112610219576104386104246004356126b2565b346102195760807ffffffffffffffffffffffffffffffffffffffffffffffffffffffffffffffffc36011261021957610535611a08565b61053d611a2b565b6064359167ffffffffffffffff831161021957366023840112156102195761057261057c933690602481600401359101611bbb565b916044359161213e565b005b346102195760407ffffffffffffffffffffffffffffffffffffffffffffffffffffffffffffffffc360112610219576105b5611a08565b602435908115158092036102195733156106815773ffffffffffffffffffffffffffffffffffffffff1690811561065557335f52600560205260405f20825f5260205260405f207fffffffffffffffffffffffffffffffffffffffffffffffffffffffffffffff0081541660ff83161790556040519081527f17307eab39ab6107e8899845ad3d59bd9653f200f220920489ca2b5937696c3160203392a3005b507f5b08ba18000000000000000000000000000000000000000000000000000000005f5260045260245ffd5b7fa9fbf51f000000000000000000000000000000000000000000000000000000005f525f60045260245ffd5b34610219575f7ffffffffffffffffffffffffffffffffffffffffffffffffffffffffffffffffc360112610219576040515f6001546106eb81611bf1565b80845290600181169081156107715750600114610713575b6104388361042481850382611b40565b91905060015f527fb10e2d527612073b26eecdfd717e6a320cf44b4afac2b0732d9fcbe2b7fa0cf6915f905b80821061075757509091508101602001610424610703565b91926001816020925483858801015201910190929161073f565b7fffffffffffffffffffffffffffffffffffffffffffffffffffffffffffffff001660208086019190915291151560051b840190910191506104249050610703565b346102195760407ffffffffffffffffffffffffffffffffffffffffffffffffffffffffffffffffc3601126102195760043567ffffffffffffffff811161021957610802903690600401611a4e565b6024359067ffffffffffffffff821161021957366023830112156102195781600401359067ffffffffffffffff8211610219576024830192602436918460051b010111610219576108f8937fca52e62c367d81bb2e328eb795f7c7ba24afb478408a26c0e201d155c449bc4a60085495869261087d84611c80565b60085561088a84336124f5565b6108986102bd368784611bbb565b835f52600960205260405f2073ffffffffffffffffffffffffffffffffffffffff33167fffffffffffffffffffffffff00000000000000000000000000000000000000008254161790556040519182916020835233966020840191611c42565b0390a35f5b81811061090f57602084604051908152f35b61092d610926610920838587612080565b806120ed565b3691611bbb565b6020815191012061093c611fb3565b6020815191012014610b5857610960610956828486612080565b60208101906120ed565b855f52600a60205261098360405f2061097d61092086888a612080565b90611fee565b9167ffffffffffffffff8211610b2b576109a7826109a18554611bf1565b85612007565b5f90601f8311600114610a865791806109f89260019695945f92610a7b575b50507fffffffffffffffffffffffffffffffffffffffffffffffffffffffffffffffff8260011b9260031b1c19161790565b90555b610a71857f2c149ed548c6d2993cd73efe187df6eccabe4538091b33adbd25fafdb8a1468b8587610a30610920878484612080565b610a5061095689610a486109208289899d989d612080565b979096612080565b91909781604051928392833781015f81520390209660405194859485612056565b0390a35b016108fd565b0135905089806109c6565b7fffffffffffffffffffffffffffffffffffffffffffffffffffffffffffffffe0831691845f5260205f20925f5b818110610b13575091600196959492918388959310610adb575b505050811b0190556109fb565b7fffffffffffffffffffffffffffffffffffffffffffffffffffffffffffffffff60f88560031b161c19910135169055888080610ace565b83830135855560019094019360209283019201610ab4565b7f4e487b71000000000000000000000000000000000000000000000000000000005f52604160045260245ffd5b600190610a75565b34610219575f7ffffffffffffffffffffffffffffffffffffffffffffffffffffffffffffffffc36011261021957602073ffffffffffffffffffffffffffffffffffffffff60075416604051908152f35b34610219575f7ffffffffffffffffffffffffffffffffffffffffffffffffffffffffffffffffc36011261021957610be7612691565b5f73ffffffffffffffffffffffffffffffffffffffff6007547fffffffffffffffffffffffff00000000000000000000000000000000000000008116600755167f8be0079c531659141344cd1fd0a4f28419497f9722a3daafe3b4186f6b6457e08280a3005b346102195760207ffffffffffffffffffffffffffffffffffffffffffffffffffffffffffffffffc3601126102195773ffffffffffffffffffffffffffffffffffffffff610c99611a08565b168015610cb6575f526003602052602060405f2054604051908152f35b7f89c62b64000000000000000000000000000000000000000000000000000000005f525f60045260245ffd5b346102195760207ffffffffffffffffffffffffffffffffffffffffffffffffffffffffffffffffc360112610219576020610d1e60043561231a565b73ffffffffffffffffffffffffffffffffffffffff60405191168152f35b346102195760607ffffffffffffffffffffffffffffffffffffffffffffffffffffffffffffffffc3601126102195760043560243567ffffffffffffffff811161021957610d8e903690600401611a4e565b60449291923567ffffffffffffffff811161021957610db1903690600401611a4e565b610dbd8495929561231a565b50835f52600260205273ffffffffffffffffffffffffffffffffffffffff60405f2054163314158061100b575b610fdf57610df9368484611bbb565b60208151910120610e08611fb3565b6020815191012014610fb757835f52600a602052610e2a60405f208484611fee565b67ffffffffffffffff8211610b2b57610e4d82610e478354611bf1565b83612007565b5f601f8311600114610ef05791610ee091610ebf82807f2c149ed548c6d2993cd73efe187df6eccabe4538091b33adbd25fafdb8a1468b9897965f91610ee5575b507fffffffffffffffffffffffffffffffffffffffffffffffffffffffffffffffff8260011b9260031b1c19161790565b90555b60405184848237808581015f81520390209660405194859485612056565b0390a3005b90508a01358b610e8e565b7fffffffffffffffffffffffffffffffffffffffffffffffffffffffffffffffe0831690825f5260205f20915f5b818110610f9f575091610ee09391857f2c149ed548c6d2993cd73efe187df6eccabe4538091b33adbd25fafdb8a1468b9897969410610f67575b5050600182811b019055610ec2565b7fffffffffffffffffffffffffffffffffffffffffffffffffffffffffffffffff60f88560031b161c19908a01351690558880610f58565b9192602060018192868d013581550194019201610f1e565b7fd3356558000000000000000000000000000000000000000000000000000000005f5260045ffd5b7f118cdaa7000000000000000000000000000000000000000000000000000000005f523360045260245ffd5b505f8481526002602090815260408083205473ffffffffffffffffffffffffffffffffffffffff1683526005825280832033845290915290205460ff1615610dea565b346102195761057c61105f36611ace565b906040519261106f602085611b40565b5f845261213e565b346102195760207ffffffffffffffffffffffffffffffffffffffffffffffffffffffffffffffffc360112610219576004356110b28161231a565b50805f52600260205273ffffffffffffffffffffffffffffffffffffffff60405f20541633141580611118575b610fdf575f52600960205260405f207fffffffffffffffffffffffff000000000000000000000000000000000000000081541690555f80f35b505f8181526002602090815260408083205473ffffffffffffffffffffffffffffffffffffffff1683526005825280832033845290915290205460ff16156110df565b346102195760807ffffffffffffffffffffffffffffffffffffffffffffffffffffffffffffffffc36011261021957600435611195611a2b565b906044359060643567ffffffffffffffff8111610219576111ba903690600401611a4e565b6111c68394929461231a565b504282106113b55761135261134973ffffffffffffffffffffffffffffffffffffffff92611343604051988560208b01917fa3181b3f6075b6c71999c3cc621b869e7d9267ae4befcd6fd724006e9e0ad76583528960408d015216998a9788606083015260808201526080815261123e60a082611b40565b5190209760426040998a601c602082516112588482611b40565b828152017f4167656e7457616c6c6574204964656e746974795265676973747279000000008152206001602083516112908582611b40565b828152017f310000000000000000000000000000000000000000000000000000000000000081522082519160208301937f8b73c3c69bb8fe3d512ecc4cf759cc79239f7b179b0ffacaa9a75d522b39400f855283015260608201524660808201523060a082015260a0815261130660c082611b40565b519020908b51917f190100000000000000000000000000000000000000000000000000000000000083526002830152602282015220923691611bbb565b9061282d565b90929192612867565b160361138d575f5260096020525f20907fffffffffffffffffffffffff00000000000000000000000000000000000000008254161790555f80f35b7f8baa579f000000000000000000000000000000000000000000000000000000005f5260045ffd5b7f0819bdcd000000000000000000000000000000000000000000000000000000005f5260045ffd5b346102195761057c6113ee36611ace565b91611cda565b34610219575f7ffffffffffffffffffffffffffffffffffffffffffffffffffffffffffffffffc36011261021957602060085461143081611c80565b60085561143d81336124f5565b805f526009825260405f2073ffffffffffffffffffffffffffffffffffffffff33167fffffffffffffffffffffffff00000000000000000000000000000000000000008254161790556040518281525f83820152817fca52e62c367d81bb2e328eb795f7c7ba24afb478408a26c0e201d155c449bc4a60403393a3604051908152f35b34610219576114ce36611a7c565b91906114d98261231a565b50815f52600260205273ffffffffffffffffffffffffffffffffffffffff60405f20541633141580611553575b610fdf57610ee07f3a2c7fffc2cba7582c690e3b82c453ea02a308326a98a3ad7576c606336409fb9161153d6102bd368784611bbb565b6040519182916020835233966020840191611c42565b505f8281526002602090815260408083205473ffffffffffffffffffffffffffffffffffffffff1683526005825280832033845290915290205460ff1615611506565b346102195760407ffffffffffffffffffffffffffffffffffffffffffffffffffffffffffffffffc360112610219576115cd611a08565b6024356115d98161231a565b331515806116f2575b806116a5575b61167957819073ffffffffffffffffffffffffffffffffffffffff80851691167f8c5be1e5ebec7d5bd14f71427d1e84f3dd0314c0f7b2291e5b200ac8c7c3b9255f80a45f52600460205273ffffffffffffffffffffffffffffffffffffffff60405f2091167fffffffffffffffffffffffff00000000000000000000000000000000000000008254161790555f80f35b7fa9fbf51f000000000000000000000000000000000000000000000000000000005f523360045260245ffd5b5073ffffffffffffffffffffffffffffffffffffffff81165f52600560205260405f2073ffffffffffffffffffffffffffffffffffffffff33165f5260205260ff60405f205416156115e8565b503373ffffffffffffffffffffffffffffffffffffffff821614156115e2565b346102195760207ffffffffffffffffffffffffffffffffffffffffffffffffffffffffffffffffc3601126102195760043561174d8161231a565b505f526004602052602073ffffffffffffffffffffffffffffffffffffffff60405f205416604051908152f35b34610219575f7ffffffffffffffffffffffffffffffffffffffffffffffffffffffffffffffffc360112610219576040515f5f546117b781611bf1565b808452906001811690811561077157506001146117de576104388361042481850382611b40565b5f8080527f290decd9548b62a8d60345a988386fc84ba6bc95484008f6362f93160ef3e563939250905b80821061182057509091508101602001610424610703565b919260018160209254838588010152019101909291611808565b346102195760207ffffffffffffffffffffffffffffffffffffffffffffffffffffffffffffffffc360112610219576004357fffffffff00000000000000000000000000000000000000000000000000000000811680910361021957807f4906490600000000000000000000000000000000000000000000000000000000602092149081156118cf575b506040519015158152f35b7f80ac58cd00000000000000000000000000000000000000000000000000000000811491508115611933575b8115611909575b50826118c4565b7f01ffc9a70000000000000000000000000000000000000000000000000000000091501482611902565b7f5b5e139f00000000000000000000000000000000000000000000000000000000811491506118fb565b346102195760207ffffffffffffffffffffffffffffffffffffffffffffffffffffffffffffffffc360112610219576004356119988161231a565b505f526009602052602073ffffffffffffffffffffffffffffffffffffffff60405f205416604051908152f35b907fffffffffffffffffffffffffffffffffffffffffffffffffffffffffffffffe0601f602080948051918291828752018686015e5f8582860101520116010190565b6004359073ffffffffffffffffffffffffffffffffffffffff8216820361021957565b6024359073ffffffffffffffffffffffffffffffffffffffff8216820361021957565b9181601f840112156102195782359167ffffffffffffffff8311610219576020838186019501011161021957565b9060407ffffffffffffffffffffffffffffffffffffffffffffffffffffffffffffffffc83011261021957600435916024359067ffffffffffffffff821161021957611aca91600401611a4e565b9091565b7ffffffffffffffffffffffffffffffffffffffffffffffffffffffffffffffffc60609101126102195760043573ffffffffffffffffffffffffffffffffffffffff81168103610219579060243573ffffffffffffffffffffffffffffffffffffffff81168103610219579060443590565b90601f7fffffffffffffffffffffffffffffffffffffffffffffffffffffffffffffffe0910116810190811067ffffffffffffffff821117610b2b57604052565b67ffffffffffffffff8111610b2b57601f017fffffffffffffffffffffffffffffffffffffffffffffffffffffffffffffffe01660200190565b929192611bc782611b81565b91611bd56040519384611b40565b829481845281830111610219578281602093845f960137010152565b90600182811c92168015611c38575b6020831014611c0b57565b7f4e487b71000000000000000000000000000000000000000000000000000000005f52602260045260245ffd5b91607f1691611c00565b601f82602094937fffffffffffffffffffffffffffffffffffffffffffffffffffffffffffffffe093818652868601375f8582860101520116010190565b7fffffffffffffffffffffffffffffffffffffffffffffffffffffffffffffffff8114611cad5760010190565b7f4e487b71000000000000000000000000000000000000000000000000000000005f52601160045260245ffd5b919073ffffffffffffffffffffffffffffffffffffffff168015611f87575f8281526002602052604090205473ffffffffffffffffffffffffffffffffffffffff1692331515918490849084611e9c575b73ffffffffffffffffffffffffffffffffffffffff945086611e2e575b805f52600360205260405f2060018154019055815f52600260205260405f20817fffffffffffffffffffffffff0000000000000000000000000000000000000000825416179055867fddf252ad1be2c89b69c2b068fc378daa952ba7f163c4a11628f55a4df523b3ef5f80a4611df7575b16808303611dc657505050565b7f64283d7b000000000000000000000000000000000000000000000000000000005f5260045260245260445260645ffd5b825f52600960205260405f207fffffffffffffffffffffffff00000000000000000000000000000000000000008154169055611db9565b611e65825f52600460205260405f207fffffffffffffffffffffffff00000000000000000000000000000000000000008154169055565b865f52600360205260405f207fffffffffffffffffffffffffffffffffffffffffffffffffffffffffffffffff8154019055611d48565b91929380915090611f16575b15611eb65790838392611d2b565b8385611ee7577f7e273289000000000000000000000000000000000000000000000000000000005f5260045260245ffd5b7f177e802f000000000000000000000000000000000000000000000000000000005f523360045260245260445ffd5b503385148015611f51575b80611ea85750835f5260046020523373ffffffffffffffffffffffffffffffffffffffff60405f20541614611ea8565b50845f52600560205260405f2073ffffffffffffffffffffffffffffffffffffffff33165f5260205260ff60405f205416611f21565b7f64a0ae92000000000000000000000000000000000000000000000000000000005f525f60045260245ffd5b60405190611fc2604083611b40565b600b82527f6167656e7457616c6c65740000000000000000000000000000000000000000006020830152565b6020919283604051948593843782019081520301902090565b601f821161201457505050565b5f5260205f20906020601f840160051c8301931061204c575b601f0160051c01905b818110612041575050565b5f8155600101612036565b909150819061202d565b929061206f9061207d9593604086526040860191611c42565b926020818503910152611c42565b90565b91908110156120c05760051b810135907fffffffffffffffffffffffffffffffffffffffffffffffffffffffffffffffc181360301821215610219570190565b7f4e487b71000000000000000000000000000000000000000000000000000000005f52603260045260245ffd5b9035907fffffffffffffffffffffffffffffffffffffffffffffffffffffffffffffffe181360301821215610219570180359067ffffffffffffffff82116102195760200191813603831361021957565b9061214a838284611cda565b803b612157575b50505050565b6020916121c373ffffffffffffffffffffffffffffffffffffffff8093169560405195869485947f150b7a0200000000000000000000000000000000000000000000000000000000865233600487015216602485015260448401526080606484015260848301906119c5565b03815f865af15f91816122bd575b5061223f57503d15612238573d6121e781611b81565b906121f56040519283611b40565b81523d5f602083013e5b8051908161223357827f64a0ae92000000000000000000000000000000000000000000000000000000005f5260045260245ffd5b602001fd5b60606121ff565b7fffffffff000000000000000000000000000000000000000000000000000000007f150b7a020000000000000000000000000000000000000000000000000000000091160361229257505f808080612151565b7f64a0ae92000000000000000000000000000000000000000000000000000000005f5260045260245ffd5b9091506020813d602011612312575b816122d960209383611b40565b8101031261021957517fffffffff000000000000000000000000000000000000000000000000000000008116810361021957905f6121d1565b3d91506122cc565b805f52600260205273ffffffffffffffffffffffffffffffffffffffff60405f205416908115612348575090565b7f7e273289000000000000000000000000000000000000000000000000000000005f5260045260245ffd5b919091805f52600660205260405f20835167ffffffffffffffff8111610b2b576123a7816123a18454611bf1565b84612007565b6020601f821160011461243057816020949392612419927ff8e1a15aba9398e019f0b49df1a4fde98ee17ae345cb5f6b5e2c27f5033e8ce797985f926124255750507fffffffffffffffffffffffffffffffffffffffffffffffffffffffffffffffff8260011b9260031b1c19161790565b90555b604051908152a1565b015190505f806109c6565b7fffffffffffffffffffffffffffffffffffffffffffffffffffffffffffffffe0821695835f52815f20965f5b8181106124dd575096600192849260209796957ff8e1a15aba9398e019f0b49df1a4fde98ee17ae345cb5f6b5e2c27f5033e8ce7999a106124a6575b505050811b01905561241c565b01517fffffffffffffffffffffffffffffffffffffffffffffffffffffffffffffffff60f88460031b161c191690555f8080612499565b8383015189556001909801976020938401930161245d565b73ffffffffffffffffffffffffffffffffffffffff16908115611f87575f8181526002602052604090205473ffffffffffffffffffffffffffffffffffffffff16801515929091908290829085612623575b805f52600360205260405f2060018154019055815f52600260205260405f20817fffffffffffffffffffffffff0000000000000000000000000000000000000000825416179055847fddf252ad1be2c89b69c2b068fc378daa952ba7f163c4a11628f55a4df523b3ef5f80a46125ec575b50506125c057565b7f73c6ac6e000000000000000000000000000000000000000000000000000000005f525f60045260245ffd5b5f52600960205260405f207fffffffffffffffffffffffff000000000000000000000000000000000000000081541690555f6125b8565b61265a825f52600460205260405f207fffffffffffffffffffffffff00000000000000000000000000000000000000008154169055565b845f52600360205260405f207fffffffffffffffffffffffffffffffffffffffffffffffffffffffffffffffff8154019055612547565b73ffffffffffffffffffffffffffffffffffffffff600754163303610fdf57565b6126bb8161231a565b506020906040516126cc8382611b40565b5f8152815f526006835260405f206040515f91818154936126ec85611bf1565b9283835288830195896001821691825f146127f15750506001146127b5575b5061271892500382611b40565b8251156127ad57908185925161275857505050506127359061231a565b505f6040516127448382611b40565b526127526040519182611b40565b5f815290565b61207d94506040519584879551918291018587015e840190838201905f8252519283915e01015f8152037fffffffffffffffffffffffffffffffffffffffffffffffffffffffffffffffe08101835282611b40565b935050505090565b9150505f528186805f205f905b8482106127d8575061271893508201015f61270b565b60019193508054838588010152019101879084926127c2565b7fffffffffffffffffffffffffffffffffffffffffffffffffffffffffffffff0016885261271895151560051b85010192505f915061270b9050565b815191906041830361285d576128569250602082015190606060408401519301515f1a9061293f565b9192909190565b50505f9160029190565b60048110156129125780612879575050565b600181036128a9577ff645eedf000000000000000000000000000000000000000000000000000000005f5260045ffd5b600281036128dd57507ffce698f7000000000000000000000000000000000000000000000000000000005f5260045260245ffd5b6003146128e75750565b7fd78bce0c000000000000000000000000000000000000000000000000000000005f5260045260245ffd5b7f4e487b71000000000000000000000000000000000000000000000000000000005f52602160045260245ffd5b91907f7fffffffffffffffffffffffffffffff5d576e7357a4501ddfe92f46681b20a084116129ce579160209360809260ff5f9560405194855216868401526040830152606082015282805260015afa156129c3575f5173ffffffffffffffffffffffffffffffffffffffff8116156129b957905f905f90565b505f906001905f90565b6040513d5f823e3d90fd5b5050505f916003919056fea2646970667358221220fd35c33bc79802d8eb6bfdaf1e9e10280412e13318aa704c0e9123315c00cdaa64736f6c634300081c0033",
  "linkReferences": {},
  "deployedLinkReferences": {}
}