{"contracts/IdentityRegistry.sol":{"IdentityRegistry":{"abi":[{"inputs":[],"stateMutability":"nonpayable","type":"constructor"},{"inputs":[],"name":"ECDSAInvalidSignature","type":"error"},{"inputs":[{"internalType":"uint256","name":"length","type":"uint256"}],"name":"ECDSAInvalidSignatureLength","type":"error"},{"inputs":[{"internalType":"bytes32","name":"s","type":"bytes32"}],"name":"ECDSAInvalidSignatureS","type":"error"},{"inputs":[{"internalType":"address","name":"sender","type":"address"},{"internalType":"uint256","name":"tokenId","type":"uint256"},{"internalType":"address","name":"owner","type":"address"}],"name":"ERC721IncorrectOwner","type":"error"},{"inputs":[{"internalType":"address","name":"operator","type":"address"},{"internalType":"uint256","name":"tokenId","type":"uint256"}],"name":"ERC721InsufficientApproval","type":"error"},{"inputs":[{"internalType":"address","name":"approver","type":"address"}],"name":"ERC721InvalidApprover","type":"error"},{"inputs":[{"internalType":"address","name":"operator","type":"address"}],"name":"ERC721InvalidOperator","type":"error"},{"inputs":[{"internalType":"address","name":"owner","type":"address"}],"name":"ERC721InvalidOwner","type":"error"},{"inputs":[{"internalType":"address","name":"receiver","type":"address"}],"name":"ERC721InvalidReceiver","type":"error"},{"inputs":[{"internalType":"address","name":"sender","type":"address"}],"name":"ERC721InvalidSender","type":"error"},{"inputs":[{"internalType":"uint256","name":"tokenId","type":"uint256"}],"name":"ERC721NonexistentToken","type":"error"},{"inputs":[],"name":"InvalidSignature","type":"error"},{"inputs":[{"internalType":"address","name":"owner","type":"address"}],"name":"OwnableInvalidOwner","type":"error"},{"inputs":[{"internalType":"address","name":"account","type":"address"}],"name":"OwnableUnauthorizedAccount","type":"error"},{"inputs":[],"name":"ReservedMetadataKey","type":"error"},{"inputs":[],"name":"SignatureExpired","type":"error"},{"anonymous":false,"inputs":[{"indexed":true,"internalType":"address","name":"owner","type":"address"},{"indexed":true,"internalType":"address","name":"approved","type":"address"},{"indexed":true,"internalType":"uint256","name":"tokenId","type":"uint256"}],"name":"Approval","type":"event"},{"anonymous":false,"inputs":[{"indexed":true,"internalType":"address","name":"owner","type":"address"},{"indexed":true,"internalType":"address","name":"operator","type":"address"},{"indexed":false,"internalType":"bool","name":"approved","type":"bool"}],"name":"ApprovalForAll","type":"event"},{"anonymous":false,"inputs":[{"indexed":false,"internalType":"uint256","name":"_fromTokenId","type":"uint256"},{"indexed":false,"internalType":"uint256","name":"_toTokenId","type":"uint256"}],"name":"BatchMetadataUpdate","type":"event"},{"anonymous":false,"inputs":[{"indexed":true,"internalType":"uint256","name":"agentId","type":"uint256"},{"indexed":true,"internalType":"string","name":"indexedMetadataKey","type":"string"},{"indexed":false,"internalType":"string","name":"metadataKey","type":"string"},{"indexed":false,"internalType":"bytes","name":"metadataValue","type":"bytes"}],"name":"MetadataSet","type":"event"},{"anonymous":false,"inputs":[{"indexed":false,"internalType":"uint256","name":"_tokenId","type":"uint256"}],"name":"MetadataUpdate","type":"event"},{"anonymous":false,"inputs":[{"indexed":true,"internalType":"address","name":"previousOwner","type":"address"},{"indexed":true,"internalType":"address","name":"newOwner","type":"address"}],"name":"OwnershipTransferred","type":"event"},{"anonymous":false,"inputs":[{"indexed":true,"internalType":"uint256","name":"agentId","type":"uint256"},{"indexed":false,"internalType":"string","name":"agentURI","type":"string"},{"indexed":true,"internalType":"address","name":"owner","type":"address"}],"name":"Registered","type":"event"},{"anonymous":false,"inputs":[{"indexed":true,"internalType":"address","name":"from","type":"address"},{"indexed":true,"internalType":"address","name":"to","type":"address"},{"indexed":true,"internalType":"uint256","name":"tokenId","type":"uint256"}],"name":"Transfer","type":"event"},{"anonymous":false,"inputs":[{"indexed":true,"internalType":"uint256","name":"agentId","type":"uint256"},{"indexed":false,"internalType":"string","name":"newURI","type":"string"},{"indexed":true,"internalType":"address","name":"updatedBy","type":"address"}],"name":"URIUpdated","type":"event"},{"inputs":[{"internalType":"address","name":"to","type":"address"},{"internalType":"uint256","name":"tokenId","type":"uint256"}],"name":"approve","outputs":[],"stateMutability":"nonpayable","type":"function"},{"inputs":[{"internalType":"address","name":"owner","type":"address"}],"name":"balanceOf","outputs":[{"internalType":"uint256","name":"","type":"uint256"}],"stateMutability":"view","type":"function"},{"inputs":[{"internalType":"uint256","name":"agentId","type":"uint256"}],"name":"getAgentWallet","outputs":[{"internalType":"address","name":"","type":"address"}],"stateMutability":"view","type":"function"},{"inputs":[{"internalType":"uint256","name":"tokenId","type":"uint256"}],"name":"getApproved","outputs":[{"internalType":"address","name":"","type":"address"}],"stateMutability":"view","type":"function"},{"inputs":[{"internalType":"uint256","name":"agentId","type":"uint256"},{"internalType":"string","name":"metadataKey","type":"string"}],"name":"getMetadata","outputs":[{"internalType":"bytes","name":"","type":"bytes"}],"stateMutability":"view","type":"function"},{"inputs":[{"internalType":"address","name":"owner","type":"address"},{"internalType":"address","name":"operator","type":"address"}],"name":"isApprovedForAll","outputs":[{"internalType":"bool","name":"","type":"bool"}],"stateMutability":"view","type":"function"},{"inputs":[],"name":"name","outputs":[{"internalType":"string","name":"","type":"string"}],"stateMutability":"view","type":"function"},{"inputs":[],"name":"owner","outputs":[{"internalType":"address","name":"","type":"address"}],"stateMutability":"view","type":"function"},{"inputs":[{"internalType":"uint256","name":"tokenId","type":"uint256"}],"name":"ownerOf","outputs":[{"internalType":"address","name":"","type":"address"}],"stateMutability":"view","type":"function"},{"inputs":[],"name":"register","outputs":[{"internalType":"uint256","name":"agentId","type":"uint256"}],"stateMutability":"nonpayable","type":"function"},{"inputs":[{"internalType":"string","name":"agentURI","type":"string"},{"components":[{"internalType":"string","name":"metadataKey","type":"string"},{"internalType":"bytes","name":"metadataValue","type":"bytes"}],"internalType":"struct IdentityRegistry.MetadataEntry[]","name":"metadata","type":"tuple[]"}],"name":"register","outputs":[{"internalType":"uint256","name":"agentId","type":"uint256"}],"stateMutability":"nonpayable","type":"function"},{"inputs":[{"internalType":"string","name":"agentURI","type":"string"}],"name":"register","outputs":[{"internalType":"uint256","name":"agentId","type":"uint256"}],"stateMutability":"nonpayable","type":"function"},{"inputs":[],"name":"renounceOwnership","outputs":[],"stateMutability":"nonpayable","type":"function"},{"inputs":[{"internalType":"address","name":"from","type":"address"},{"internalType":"address","name":"to","type":"address"},{"internalType":"uint256","name":"tokenId","type":"uint256"}],"name":"safeTransferFrom","outputs":[],"stateMutability":"nonpayable","type":"function"},{"inputs":[{"internalType":"address","name":"from","type":"address"},{"internalType":"address","name":"to","type":"address"},{"internalType":"uint256","name":"tokenId","type":"uint256"},{"internalType":"bytes","name":"data","type":"bytes"}],"name":"safeTransferFrom","outputs":[],"stateMutability":"nonpayable","type":"function"},{"inputs":[{"internalType":"uint256","name":"agentId","type":"uint256"},{"internalType":"string","name":"newURI","type":"string"}],"name":"setAgentURI","outputs":[],"stateMutability":"nonpayable","type":"function"},{"inputs":[{"internalType":"uint256","name":"agentId","type":"uint256"},{"internalType":"address","name":"newWallet","type":"address"},{"internalType":"uint256","name":"deadline","type":"uint256"},{"internalType":"bytes","name":"signature","type":"bytes"}],"name":"setAgentWallet","outputs":[],"stateMutability":"nonpayable","type":"function"},{"inputs":[{"internalType":"address","name":"operator","type":"address"},{"internalType":"bool","name":"approved","type":"bool"}],"name":"setApprovalForAll","outputs":[],"stateMutability":"nonpayable","type":"function"},{"inputs":[{"internalType":"uint256","name":"agentId","type":"uint256"},{"internalType":"string","name":"metadataKey","type":"string"},{"internalType":"bytes","name":"metadataValue","type":"bytes"}],"name":"setMetadata","outputs":[],"stateMutability":"nonpayable","type":"function"},{"inputs":[{"internalType":"bytes4","name":"interfaceId","type":"bytes4"}],"name":"supportsInterface","outputs":[{"internalType":"bool","name":"","type":"bool"}],"stateMutability":"view","type":"function"},{"inputs":[],"name":"symbol","outputs":[{"internalType":"string","name":"","type":"string"}],"stateMutability":"view","type":"function"},{"inputs":[{"internalType":"uint256","name":"tokenId","type":"uint256"}],"name":"tokenURI","outputs":[{"internalType":"string","name":"","type":"string"}],"stateMutability":"view","type":"function"},{"inputs":[{"internalType":"address","name":"from","type":"address"},{"internalType":"address","name":"to","type":"address"},{"internalType":"uint256","name":"tokenId","type":"uint256"}],"name":"transferFrom","outputs":[],"stateMutability":"nonpayable","type":"function"},{"inputs":[{"internalType":"address","name":"newOwner","type":"address"}],"name":"transferOwnership","outputs":[],"stateMutability":"nonpayable","type":"function"},{"inputs":[{"internalType":"uint256","name":"agentId","type":"uint256"}],"name":"unsetAgentWallet","outputs":[],"stateMutability":"nonpayable","type":"function"}],"evm":{"bytecode":{"linkReferences":{},"object":"60806040523461037657604080519081016001600160401b0381118282101761028c576040908152600e82526d4167656e74204964656e7469747960901b602083015280519081016001600160401b0381118282101761028c5760405260058152641051d1539560da1b602082015281516001600160401b03811161028c575f54600181811c9116801561036c575b602082101461026e57601f811161030a575b50602092601f82116001146102ab57928192935f926102a0575b50508160011b915f199060031b1c1916175f555b80516001600160401b03811161028c57600154600181811c91168015610282575b602082101461026e57601f811161020b575b50602091601f82116001146101ab579181925f926101a0575b50508160011b915f199060031b1c1916176001555b331561018d5760078054336001600160a01b03198216811790925560405191906001600160a01b03167f8be0079c531659141344cd1fd0a4f28419497f9722a3daafe3b4186f6b6457e05f80a36001600855612a0f908161037b8239f35b631e4fbdf760e01b5f525f60045260245ffd5b015190505f8061011a565b601f1982169260015f52805f20915f5b8581106101f3575083600195106101db575b505050811b0160015561012f565b01515f1960f88460031b161c191690555f80806101cd565b919260206001819286850151815501940192016101bb565b60015f527fb10e2d527612073b26eecdfd717e6a320cf44b4afac2b0732d9fcbe2b7fa0cf6601f830160051c81019160208410610264575b601f0160051c01905b8181106102595750610101565b5f815560010161024c565b9091508190610243565b634e487b7160e01b5f52602260045260245ffd5b90607f16906100ef565b634e487b7160e01b5f52604160045260245ffd5b015190505f806100ba565b601f198216935f8052805f20915f5b8681106102f257508360019596106102da575b505050811b015f556100ce565b01515f1960f88460031b161c191690555f80806102cd565b919260206001819286850151815501940192016102ba565b5f80527f290decd9548b62a8d60345a988386fc84ba6bc95484008f6362f93160ef3e563601f830160051c81019160208410610362575b601f0160051c01905b81811061035757506100a0565b5f815560010161034a565b9091508190610341565b90607f169061008e565b5f80fdfe60806040526004361015610011575f80fd5b5f3560e01c80623395091461195d57806301ffc9a71461183a57806306fdde031461177a578063081812fc14611712578063095ea7b3146115965780630af28bd3146114c05780631aa3a008146113f457806323b872dd146113dd5780632d1ef5ae1461115b5780633fddcf191461107757806342842e0e1461104e578063466648da14610d3c5780636352211e14610ce257806370a0823114610c4d578063715018a614610bb15780638da5cb5b14610b605780638ea42286146107b357806395d89b41146106ad578063a22cb4651461057e578063b88d4fde146104fe578063c87b56dd146104c1578063cb4799f2146103bc578063e985e9c51461032b578063f2c298be1461021d5763f2fde38b1461012b575f80fd5b346102195760207ffffffffffffffffffffffffffffffffffffffffffffffffffffffffffffffffc3601126102195773ffffffffffffffffffffffffffffffffffffffff610177611a08565b61017f612691565b1680156101ed5773ffffffffffffffffffffffffffffffffffffffff600754827fffffffffffffffffffffffff0000000000000000000000000000000000000000821617600755167f8be0079c531659141344cd1fd0a4f28419497f9722a3daafe3b4186f6b6457e05f80a3005b7f1e4fbdf7000000000000000000000000000000000000000000000000000000005f525f60045260245ffd5b5f80fd5b346102195760207ffffffffffffffffffffffffffffffffffffffffffffffffffffffffffffffffc3601126102195760043567ffffffffffffffff8111610219576103206102716020923690600401611a4e565b907fca52e62c367d81bb2e328eb795f7c7ba24afb478408a26c0e201d155c449bc4a6008549384926102a284611c80565b6008556102af84336124f5565b6102c36102bd368784611bbb565b85612373565b835f526009875260405f2073ffffffffffffffffffffffffffffffffffffffff33167fffffffffffffffffffffffff0000000000000000000000000000000000000000825416179055604051918291888352339689840191611c42565b0390a3604051908152f35b346102195760407ffffffffffffffffffffffffffffffffffffffffffffffffffffffffffffffffc36011261021957610362611a08565b73ffffffffffffffffffffffffffffffffffffffff61037f611a2b565b91165f52600560205273ffffffffffffffffffffffffffffffffffffffff60405f2091165f52602052602060ff60405f2054166040519015158152f35b34610219576103ea6103cd36611a7c565b90916103d88161231a565b505f52600a60205260405f2091611fee565b604051905f908054906103fc82611bf1565b808552916001811690811561047c575060011461043c575b6104388461042481860382611b40565b6040519182916020835260208301906119c5565b0390f35b5f90815260208120939250905b8082106104625750909150810160200161042482610414565b919260018160209254838588010152019101909291610449565b7fffffffffffffffffffffffffffffffffffffffffffffffffffffffffffffff001660208087019190915292151560051b850190920192506104249150839050610414565b346102195760207ffffffffffffffffffffffffffffffffffffffffffffffffffffffffffffffffc360112610219576104386104246004356126b2565b346102195760807ffffffffffffffffffffffffffffffffffffffffffffffffffffffffffffffffc36011261021957610535611a08565b61053d611a2b565b6064359167ffffffffffffffff831161021957366023840112156102195761057261057c933690602481600401359101611bbb565b916044359161213e565b005b346102195760407ffffffffffffffffffffffffffffffffffffffffffffffffffffffffffffffffc360112610219576105b5611a08565b602435908115158092036102195733156106815773ffffffffffffffffffffffffffffffffffffffff1690811561065557335f52600560205260405f20825f5260205260405f207fffffffffffffffffffffffffffffffffffffffffffffffffffffffffffffff0081541660ff83161790556040519081527f17307eab39ab6107e8899845ad3d59bd9653f200f220920489ca2b5937696c3160203392a3005b507f5b08ba18000000000000000000000000000000000000000000000000000000005f5260045260245ffd5b7fa9fbf51f000000000000000000000000000000000000000000000000000000005f525f60045260245ffd5b34610219575f7ffffffffffffffffffffffffffffffffffffffffffffffffffffffffffffffffc360112610219576040515f6001546106eb81611bf1565b80845290600181169081156107715750600114610713575b6104388361042481850382611b40565b91905060015f527fb10e2d527612073b26eecdfd717e6a320cf44b4afac2b0732d9fcbe2b7fa0cf6915f905b80821061075757509091508101602001610424610703565b91926001816020925483858801015201910190929161073f565b7fffffffffffffffffffffffffffffffffffffffffffffffffffffffffffffff001660208086019190915291151560051b840190910191506104249050610703565b346102195760407ffffffffffffffffffffffffffffffffffffffffffffffffffffffffffffffffc3601126102195760043567ffffffffffffffff811161021957610802903690600401611a4e565b6024359067ffffffffffffffff821161021957366023830112156102195781600401359067ffffffffffffffff8211610219576024830192602436918460051b010111610219576108f8937fca52e62c367d81bb2e328eb795f7c7ba24afb478408a26c0e201d155c449bc4a60085495869261087d84611c80565b60085561088a84336124f5565b6108986102bd368784611bbb565b835f52600960205260405f2073ffffffffffffffffffffffffffffffffffffffff33167fffffffffffffffffffffffff00000000000000000000000000000000000000008254161790556040519182916020835233966020840191611c42565b0390a35f5b81811061090f57602084604051908152f35b61092d610926610920838587612080565b806120ed565b3691611bbb565b6020815191012061093c611fb3565b6020815191012014610b5857610960610956828486612080565b60208101906120ed565b855f52600a60205261098360405f2061097d61092086888a612080565b90611fee565b9167ffffffffffffffff8211610b2b576109a7826109a18554611bf1565b85612007565b5f90601f8311600114610a865791806109f89260019695945f92610a7b575b50507fffffffffffffffffffffffffffffffffffffffffffffffffffffffffffffffff8260011b9260031b1c19161790565b90555b610a71857f2c149ed548c6d2993cd73efe187df6eccabe4538091b33adbd25fafdb8a1468b8587610a30610920878484612080565b610a5061095689610a486109208289899d989d612080565b979096612080565b91909781604051928392833781015f81520390209660405194859485612056565b0390a35b016108fd565b0135905089806109c6565b7fffffffffffffffffffffffffffffffffffffffffffffffffffffffffffffffe0831691845f5260205f20925f5b818110610b13575091600196959492918388959310610adb575b505050811b0190556109fb565b7fffffffffffffffffffffffffffffffffffffffffffffffffffffffffffffffff60f88560031b161c19910135169055888080610ace565b83830135855560019094019360209283019201610ab4565b7f4e487b71000000000000000000000000000000000000000000000000000000005f52604160045260245ffd5b600190610a75565b34610219575f7ffffffffffffffffffffffffffffffffffffffffffffffffffffffffffffffffc36011261021957602073ffffffffffffffffffffffffffffffffffffffff60075416604051908152f35b34610219575f7ffffffffffffffffffffffffffffffffffffffffffffffffffffffffffffffffc36011261021957610be7612691565b5f73ffffffffffffffffffffffffffffffffffffffff6007547fffffffffffffffffffffffff00000000000000000000000000000000000000008116600755167f8be0079c531659141344cd1fd0a4f28419497f9722a3daafe3b4186f6b6457e08280a3005b346102195760207ffffffffffffffffffffffffffffffffffffffffffffffffffffffffffffffffc3601126102195773ffffffffffffffffffffffffffffffffffffffff610c99611a08565b168015610cb6575f526003602052602060405f2054604051908152f35b7f89c62b64000000000000000000000000000000000000000000000000000000005f525f60045260245ffd5b346102195760207ffffffffffffffffffffffffffffffffffffffffffffffffffffffffffffffffc360112610219576020610d1e60043561231a565b73ffffffffffffffffffffffffffffffffffffffff60405191168152f35b346102195760607ffffffffffffffffffffffffffffffffffffffffffffffffffffffffffffffffc3601126102195760043560243567ffffffffffffffff811161021957610d8e903690600401611a4e565b60449291923567ffffffffffffffff811161021957610db1903690600401611a4e565b610dbd8495929561231a565b50835f52600260205273ffffffffffffffffffffffffffffffffffffffff60405f2054163314158061100b575b610fdf57610df9368484611bbb565b60208151910120610e08611fb3565b6020815191012014610fb757835f52600a602052610e2a60405f208484611fee565b67ffffffffffffffff8211610b2b57610e4d82610e478354611bf1565b83612007565b5f601f8311600114610ef05791610ee091610ebf82807f2c149ed548c6d2993cd73efe187df6eccabe4538091b33adbd25fafdb8a1468b9897965f91610ee5575b507fffffffffffffffffffffffffffffffffffffffffffffffffffffffffffffffff8260011b9260031b1c19161790565b90555b60405184848237808581015f81520390209660405194859485612056565b0390a3005b90508a01358b610e8e565b7fffffffffffffffffffffffffffffffffffffffffffffffffffffffffffffffe0831690825f5260205f20915f5b818110610f9f575091610ee09391857f2c149ed548c6d2993cd73efe187df6eccabe4538091b33adbd25fafdb8a1468b9897969410610f67575b5050600182811b019055610ec2565b7fffffffffffffffffffffffffffffffffffffffffffffffffffffffffffffffff60f88560031b161c19908a01351690558880610f58565b9192602060018192868d013581550194019201610f1e565b7fd3356558000000000000000000000000000000000000000000000000000000005f5260045ffd5b7f118cdaa7000000000000000000000000000000000000000000000000000000005f523360045260245ffd5b505f8481526002602090815260408083205473ffffffffffffffffffffffffffffffffffffffff1683526005825280832033845290915290205460ff1615610dea565b346102195761057c61105f36611ace565b906040519261106f602085611b40565b5f845261213e565b346102195760207ffffffffffffffffffffffffffffffffffffffffffffffffffffffffffffffffc360112610219576004356110b28161231a565b50805f52600260205273ffffffffffffffffffffffffffffffffffffffff60405f20541633141580611118575b610fdf575f52600960205260405f207fffffffffffffffffffffffff000000000000000000000000000000000000000081541690555f80f35b505f8181526002602090815260408083205473ffffffffffffffffffffffffffffffffffffffff1683526005825280832033845290915290205460ff16156110df565b346102195760807ffffffffffffffffffffffffffffffffffffffffffffffffffffffffffffffffc36011261021957600435611195611a2b565b906044359060643567ffffffffffffffff8111610219576111ba903690600401611a4e565b6111c68394929461231a565b504282106113b55761135261134973ffffffffffffffffffffffffffffffffffffffff92611343604051988560208b01917fa3181b3f6075b6c71999c3cc621b869e7d9267ae4befcd6fd724006e9e0ad76583528960408d015216998a9788606083015260808201526080815261123e60a082611b40565b5190209760426040998a601c602082516112588482611b40565b828152017f4167656e7457616c6c6574204964656e746974795265676973747279000000008152206001602083516112908582611b40565b828152017f310000000000000000000000000000000000000000000000000000000000000081522082519160208301937f8b73c3c69bb8fe3d512ecc4cf759cc79239f7b179b0ffacaa9a75d522b39400f855283015260608201524660808201523060a082015260a0815261130660c082611b40565b519020908b51917f190100000000000000000000000000000000000000000000000000000000000083526002830152602282015220923691611bbb565b9061282d565b90929192612867565b160361138d575f5260096020525f20907fffffffffffffffffffffffff00000000000000000000000000000000000000008254161790555f80f35b7f8baa579f000000000000000000000000000000000000000000000000000000005f5260045ffd5b7f0819bdcd000000000000000000000000000000000000000000000000000000005f5260045ffd5b346102195761057c6113ee36611ace565b91611cda565b34610219575f7ffffffffffffffffffffffffffffffffffffffffffffffffffffffffffffffffc36011261021957602060085461143081611c80565b60085561143d81336124f5565b805f526009825260405f2073ffffffffffffffffffffffffffffffffffffffff33167fffffffffffffffffffffffff00000000000000000000000000000000000000008254161790556040518281525f83820152817fca52e62c367d81bb2e328eb795f7c7ba24afb478408a26c0e201d155c449bc4a60403393a3604051908152f35b34610219576114ce36611a7c565b91906114d98261231a565b50815f52600260205273ffffffffffffffffffffffffffffffffffffffff60405f20541633141580611553575b610fdf57610ee07f3a2c7fffc2cba7582c690e3b82c453ea02a308326a98a3ad7576c606336409fb9161153d6102bd368784611bbb565b6040519182916020835233966020840191611c42565b505f8281526002602090815260408083205473ffffffffffffffffffffffffffffffffffffffff1683526005825280832033845290915290205460ff1615611506565b346102195760407ffffffffffffffffffffffffffffffffffffffffffffffffffffffffffffffffc360112610219576115cd611a08565b6024356115d98161231a565b331515806116f2575b806116a5575b61167957819073ffffffffffffffffffffffffffffffffffffffff80851691167f8c5be1e5ebec7d5bd14f71427d1e84f3dd0314c0f7b2291e5b200ac8c7c3b9255f80a45f52600460205273ffffffffffffffffffffffffffffffffffffffff60405f2091167fffffffffffffffffffffffff00000000000000000000000000000000000000008254161790555f80f35b7fa9fbf51f000000000000000000000000000000000000000000000000000000005f523360045260245ffd5b5073ffffffffffffffffffffffffffffffffffffffff81165f52600560205260405f2073ffffffffffffffffffffffffffffffffffffffff33165f5260205260ff60405f205416156115e8565b503373ffffffffffffffffffffffffffffffffffffffff821614156115e2565b346102195760207ffffffffffffffffffffffffffffffffffffffffffffffffffffffffffffffffc3601126102195760043561174d8161231a565b505f526004602052602073ffffffffffffffffffffffffffffffffffffffff60405f205416604051908152f35b34610219575f7ffffffffffffffffffffffffffffffffffffffffffffffffffffffffffffffffc360112610219576040515f5f546117b781611bf1565b808452906001811690811561077157506001146117de576104388361042481850382611b40565b5f8080527f290decd9548b62a8d60345a988386fc84ba6bc95484008f6362f93160ef3e563939250905b80821061182057509091508101602001610424610703565b919260018160209254838588010152019101909291611808565b346102195760207ffffffffffffffffffffffffffffffffffffffffffffffffffffffffffffffffc360112610219576004357fffffffff00000000000000000000000000000000000000000000000000000000811680910361021957807f4906490600000000000000000000000000000000000000000000000000000000602092149081156118cf575b506040519015158152f35b7f80ac58cd00000000000000000000000000000000000000000000000000000000811491508115611933575b8115611909575b50826118c4565b7f01ffc9a70000000000000000000000000000000000000000000000000000000091501482611902565b7f5b5e139f00000000000000000000000000000000000000000000000000000000811491506118fb565b346102195760207ffffffffffffffffffffffffffffffffffffffffffffffffffffffffffffffffc360112610219576004356119988161231a565b505f526009602052602073ffffffffffffffffffffffffffffffffffffffff60405f205416604051908152f35b907fffffffffffffffffffffffffffffffffffffffffffffffffffffffffffffffe0601f602080948051918291828752018686015e5f8582860101520116010190565b6004359073ffffffffffffffffffffffffffffffffffffffff8216820361021957565b6024359073ffffffffffffffffffffffffffffffffffffffff8216820361021957565b9181601f840112156102195782359167ffffffffffffffff8311610219576020838186019501011161021957565b9060407ffffffffffffffffffffffffffffffffffffffffffffffffffffffffffffffffc83011261021957600435916024359067ffffffffffffffff821161021957611aca91600401611a4e565b9091565b7ffffffffffffffffffffffffffffffffffffffffffffffffffffffffffffffffc60609101126102195760043573ffffffffffffffffffffffffffffffffffffffff81168103610219579060243573ffffffffffffffffffffffffffffffffffffffff81168103610219579060443590565b90601f7fffffffffffffffffffffffffffffffffffffffffffffffffffffffffffffffe0910116810190811067ffffffffffffffff821117610b2b57604052565b67ffffffffffffffff8111610b2b57601f017fffffffffffffffffffffffffffffffffffffffffffffffffffffffffffffffe01660200190565b929192611bc782611b81565b91611bd56040519384611b40565b829481845281830111610219578281602093845f960137010152565b90600182811c92168015611c38575b6020831014611c0b57565b7f4e487b71000000000000000000000000000000000000000000000000000000005f52602260045260245ffd5b91607f1691611c00565b601f82602094937fffffffffffffffffffffffffffffffffffffffffffffffffffffffffffffffe093818652868601375f8582860101520116010190565b7fffffffffffffffffffffffffffffffffffffffffffffffffffffffffffffffff8114611cad5760010190565b7f4e487b71000000000000000000000000000000000000000000000000000000005f52601160045260245ffd5b919073ffffffffffffffffffffffffffffffffffffffff168015611f87575f8281526002602052604090205473ffffffffffffffffffffffffffffffffffffffff1692331515918490849084611e9c575b73ffffffffffffffffffffffffffffffffffffffff945086611e2e575b805f52600360205260405f2060018154019055815f52600260205260405f20817fffffffffffffffffffffffff0000000000000000000000000000000000000000825416179055867fddf252ad1be2c89b69c2b068fc378daa952ba7f163c4a11628f55a4df523b3ef5f80a4611df7575b16808303611dc657505050565b7f64283d7b000000000000000000000000000000000000000000000000000000005f5260045260245260445260645ffd5b825f52600960205260405f207fffffffffffffffffffffffff00000000000000000000000000000000000000008154169055611db9565b611e65825f52600460205260405f207fffffffffffffffffffffffff00000000000000000000000000000000000000008154169055565b865f52600360205260405f207fffffffffffffffffffffffffffffffffffffffffffffffffffffffffffffffff8154019055611d48565b91929380915090611f16575b15611eb65790838392611d2b565b8385611ee7577f7e273289000000000000000000000000000000000000000000000000000000005f5260045260245ffd5b7f177e802f000000000000000000000000000000000000000000000000000000005f523360045260245260445ffd5b503385148015611f51575b80611ea85750835f5260046020523373ffffffffffffffffffffffffffffffffffffffff60405f20541614611ea8565b50845f52600560205260405f2073ffffffffffffffffffffffffffffffffffffffff33165f5260205260ff60405f205416611f21565b7f64a0ae92000000000000000000000000000000000000000000000000000000005f525f60045260245ffd5b60405190611fc2604083611b40565b600b82527f6167656e7457616c6c65740000000000000000000000000000000000000000006020830152565b6020919283604051948593843782019081520301902090565b601f821161201457505050565b5f5260205f20906020601f840160051c8301931061204c575b601f0160051c01905b818110612041575050565b5f8155600101612036565b909150819061202d565b929061206f9061207d9593604086526040860191611c42565b926020818503910152611c42565b90565b91908110156120c05760051b810135907fffffffffffffffffffffffffffffffffffffffffffffffffffffffffffffffc181360301821215610219570190565b7f4e487b71000000000000000000000000000000000000000000000000000000005f52603260045260245ffd5b9035907fffffffffffffffffffffffffffffffffffffffffffffffffffffffffffffffe181360301821215610219570180359067ffffffffffffffff82116102195760200191813603831361021957565b9061214a838284611cda565b803b612157575b50505050565b6020916121c373ffffffffffffffffffffffffffffffffffffffff8093169560405195869485947f150b7a0200000000000000000000000000000000000000000000000000000000865233600487015216602485015260448401526080606484015260848301906119c5565b03815f865af15f91816122bd575b5061223f57503d15612238573d6121e781611b81565b906121f56040519283611b40565b81523d5f602083013e5b8051908161223357827f64a0ae92000000000000000000000000000000000000000000000000000000005f5260045260245ffd5b602001fd5b60606121ff565b7fffffffff000000000000000000000000000000000000000000000000000000007f150b7a020000000000000000000000000000000000000000000000000000000091160361229257505f808080612151565b7f64a0ae92000000000000000000000000000000000000000000000000000000005f5260045260245ffd5b9091506020813d602011612312575b816122d960209383611b40565b8101031261021957517fffffffff000000000000000000000000000000000000000000000000000000008116810361021957905f6121d1565b3d91506122cc565b805f52600260205273ffffffffffffffffffffffffffffffffffffffff60405f205416908115612348575090565b7f7e273289000000000000000000000000000000000000000000000000000000005f5260045260245ffd5b919091805f52600660205260405f20835167ffffffffffffffff8111610b2b576123a7816123a18454611bf1565b84612007565b6020601f821160011461243057816020949392612419927ff8e1a15aba9398e019f0b49df1a4fde98ee17ae345cb5f6b5e2c27f5033e8ce797985f926124255750507fffffffffffffffffffffffffffffffffffffffffffffffffffffffffffffffff8260011b9260031b1c19161790565b90555b604051908152a1565b015190505f806109c6565b7fffffffffffffffffffffffffffffffffffffffffffffffffffffffffffffffe0821695835f52815f20965f5b8181106124dd575096600192849260209796957ff8e1a15aba9398e019f0b49df1a4fde98ee17ae345cb5f6b5e2c27f5033e8ce7999a106124a6575b505050811b01905561241c565b01517fffffffffffffffffffffffffffffffffffffffffffffffffffffffffffffffff60f88460031b161c191690555f8080612499565b8383015189556001909801976020938401930161245d565b73ffffffffffffffffffffffffffffffffffffffff16908115611f87575f8181526002602052604090205473ffffffffffffffffffffffffffffffffffffffff16801515929091908290829085612623575b805f52600360205260405f2060018154019055815f52600260205260405f20817fffffffffffffffffffffffff0000000000000000000000000000000000000000825416179055847fddf252ad1be2c89b69c2b068fc378daa952ba7f163c4a11628f55a4df523b3ef5f80a46125ec575b50506125c057565b7f73c6ac6e000000000000000000000000000000000000000000000000000000005f525f60045260245ffd5b5f52600960205260405f207fffffffffffffffffffffffff000000000000000000000000000000000000000081541690555f6125b8565b61265a825f52600460205260405f207fffffffffffffffffffffffff00000000000000000000000000000000000000008154169055565b845f52600360205260405f207fffffffffffffffffffffffffffffffffffffffffffffffffffffffffffffffff8154019055612547565b73ffffffffffffffffffffffffffffffffffffffff600754163303610fdf57565b6126bb8161231a565b506020906040516126cc8382611b40565b5f8152815f526006835260405f206040515f91818154936126ec85611bf1565b9283835288830195896001821691825f146127f15750506001146127b5575b5061271892500382611b40565b8251156127ad57908185925161275857505050506127359061231a565b505f6040516127448382611b40565b526127526040519182611b40565b5f815290565b61207d94506040519584879551918291018587015e840190838201905f8252519283915e01015f8152037fffffffffffffffffffffffffffffffffffffffffffffffffffffffffffffffe08101835282611b40565b935050505090565b9150505f528186805f205f905b8482106127d8575061271893508201015f61270b565b60019193508054838588010152019101879084926127c2565b7fffffffffffffffffffffffffffffffffffffffffffffffffffffffffffffff0016885261271895151560051b85010192505f915061270b9050565b815191906041830361285d576128569250602082015190606060408401519301515f1a9061293f565b9192909190565b50505f9160029190565b60048110156129125780612879575050565b600181036128a9577ff645eedf000000000000000000000000000000000000000000000000000000005f5260045ffd5b600281036128dd57507ffce698f7000000000000000000000000000000000000000000000000000000005f5260045260245ffd5b6003146128e75750565b7fd78bce0c000000000000000000000000000000000000000000000000000000005f5260045260245ffd5b7f4e487b71000000000000000000000000000000000000000000000000000000005f52602160045260245ffd5b91907f7fffffffffffffffffffffffffffffff5d576e7357a4501ddfe92f46681b20a084116129ce579160209360809260ff5f9560405194855216868401526040830152606082015282805260015afa156129c3575f5173ffffffffffffffffffffffffffffffffffffffff8116156129b957905f905f90565b505f906001905f90565b6040513d5f823e3d90fd5b5050505f916003919056fea2646970667358221220fd35c33bc79802d8eb6bfdaf1e9e10280412e13318aa704c0e9123315c00cdaa64736f6c634300081c0033","opcodes":"PUSH1 0x80 PUSH1 0x40 MSTORE CALLVALUE PUSH2 0x376 JUMPI PUSH1 0x40 DUP1 MLOAD SWAP1 DUP2 ADD PUSH1 0x1 PUSH1 0x1 PUSH1 0x40 SHL SUB DUP2 GT DUP3 DUP3 LT OR PUSH2 0x28C JUMPI PUSH1 0x40 SWAP1 DUP2 MSTORE PUSH1 0xE DUP3 MSTORE PUSH14 0x4167656E74204964656E74697479 PUSH1 0x90 SHL PUSH1 0x20 DUP4 ADD MSTORE DUP1 MLOAD SWAP1 DUP2 ADD PUSH1 0x1 PUSH1 0x1 PUSH1 0x40 SHL SUB DUP2 GT DUP3 DUP3 LT OR PUSH2 0x28C JUMPI PUSH1 0x40 MSTORE PUSH1 0x5 DUP2 MSTORE PUSH5 0x1051D15395 PUSH1 0xDA SHL PUSH1 0x20 DUP3 ADD MSTORE DUP2 MLOAD PUSH1 0x1 PUSH1 0x1 PUSH1 0x40 SHL SUB DUP2 GT PUSH2 0x28C JUMPI PUSH0 SLOAD PUSH1 0x1 DUP2 DUP2 SHR SWAP2 AND DUP1 ISZERO PUSH2 0x36C JUMPI JUMPDEST PUSH1 0x20 DUP3 LT EQ PUSH2 0x26E JUMPI PUSH1 0x1F DUP2 GT PUSH2 0x30A JUMPI JUMPDEST POP PUSH1 0x20 SWAP3 PUSH1 0x1F DUP3 GT PUSH1 0x1 EQ PUSH2 0x2AB JUMPI SWAP3 DUP2 SWAP3 SWAP4 PUSH0 SWAP3 PUSH2 0x2A0 JUMPI JUMPDEST POP POP DUP2 PUSH1 0x1 SHL SWAP2 PUSH0 NOT SWAP1 PUSH1 0x3 SHL SHR NOT AND OR PUSH0 SSTORE JUMPDEST DUP1 MLOAD PUSH1 0x1 PUSH1 0x1 PUSH1 0x40 SHL SUB DUP2 GT PUSH2 0x28C JUMPI PUSH1 0x1 SLOAD PUSH1 0x1 DUP2 DUP2 SHR SWAP2 AND DUP1 ISZERO PUSH2 0x282 JUMPI JUMPDEST PUSH1 0x20 DUP3 LT EQ PUSH2 0x26E JUMPI PUSH1 0x1F DUP2 GT PUSH2 0x20B JUMPI JUMPDEST POP PUSH1 0x20 SWAP2 PUSH1 0x1F DUP3 GT PUSH1 0x1 EQ PUSH2 0x1AB JUMPI SWAP2 DUP2 SWAP3 PUSH0 SWAP3 PUSH2 0x1A0 JUMPI JUMPDEST POP POP DUP2 PUSH1 0x1 SHL SWAP2 PUSH0 NOT SWAP1 PUSH1 0x3 SHL SHR NOT AND OR PUSH1 0x1 SSTORE JUMPDEST CALLER ISZERO PUSH2 0x18D JUMPI PUSH1 0x7 DUP1 SLOAD CALLER PUSH1 0x1 PUSH1 0x1 PUSH1 0xA0 SHL SUB NOT DUP3 AND DUP2 OR SWAP1 SWAP3 SSTORE PUSH1 0x40 MLOAD SWAP2 SWAP1 PUSH1 0x1 PUSH1 0x1 PUSH1 0xA0 SHL SUB AND PUSH32 0x8BE0079C531659141344CD1FD0A4F28419497F9722A3DAAFE3B4186F6B6457E0 PUSH0 DUP1 LOG3 PUSH1 0x1 PUSH1 0x8 SSTORE PUSH2 0x2A0F SWAP1 DUP2 PUSH2 0x37B DUP3 CODECOPY RETURN JUMPDEST PUSH4 0x1E4FBDF7 PUSH1 0xE0 SHL PUSH0 MSTORE PUSH0 PUSH1 0x4 MSTORE PUSH1 0x24 PUSH0 REVERT JUMPDEST ADD MLOAD SWAP1 POP PUSH0 DUP1 PUSH2 0x11A JUMP JUMPDEST PUSH1 0x1F NOT DUP3 AND SWAP3 PUSH1 0x1 PUSH0 MSTORE DUP1 PUSH0 KECCAK256 SWAP2 PUSH0 JUMPDEST DUP6 DUP2 LT PUSH2 0x1F3 JUMPI POP DUP4 PUSH1 0x1 SWAP6 LT PUSH2 0x1DB JUMPI JUMPDEST POP POP POP DUP2 SHL ADD PUSH1 0x1 SSTORE PUSH2 0x12F JUMP JUMPDEST ADD MLOAD PUSH0 NOT PUSH1 0xF8 DUP5 PUSH1 0x3 SHL AND SHR NOT AND SWAP1 SSTORE PUSH0 DUP1 DUP1 PUSH2 0x1CD JUMP JUMPDEST SWAP2 SWAP3 PUSH1 0x20 PUSH1 0x1 DUP2 SWAP3 DUP7 DUP6 ADD MLOAD DUP2 SSTORE ADD SWAP5 ADD SWAP3 ADD PUSH2 0x1BB JUMP JUMPDEST PUSH1 0x1 PUSH0 MSTORE PUSH32 0xB10E2D527612073B26EECDFD717E6A320CF44B4AFAC2B0732D9FCBE2B7FA0CF6 PUSH1 0x1F DUP4 ADD PUSH1 0x5 SHR DUP2 ADD SWAP2 PUSH1 0x20 DUP5 LT PUSH2 0x264 JUMPI JUMPDEST PUSH1 0x1F ADD PUSH1 0x5 SHR ADD SWAP1 JUMPDEST DUP2 DUP2 LT PUSH2 0x259 JUMPI POP PUSH2 0x101 JUMP JUMPDEST PUSH0 DUP2 SSTORE PUSH1 0x1 ADD PUSH2 0x24C JUMP JUMPDEST SWAP1 SWAP2 POP DUP2 SWAP1 PUSH2 0x243 JUMP JUMPDEST PUSH4 0x4E487B71 PUSH1 0xE0 SHL PUSH0 MSTORE PUSH1 0x22 PUSH1 0x4 MSTORE PUSH1 0x24 PUSH0 REVERT JUMPDEST SWAP1 PUSH1 0x7F AND SWAP1 PUSH2 0xEF JUMP JUMPDEST PUSH4 0x4E487B71 PUSH1 0xE0 SHL PUSH0 MSTORE PUSH1 0x41 PUSH1 0x4 MSTORE PUSH1 0x24 PUSH0 REVERT JUMPDEST ADD MLOAD SWAP1 POP PUSH0 DUP1 PUSH2 0xBA JUMP JUMPDEST PUSH1 0x1F NOT DUP3 AND SWAP4 PUSH0 DUP1 MSTORE DUP1 PUSH0 KECCAK256 SWAP2 PUSH0 JUMPDEST DUP7 DUP2 LT PUSH2 0x2F2 JUMPI POP DUP4 PUSH1 0x1 SWAP6 SWAP7 LT PUSH2 0x2DA JUMPI JUMPDEST POP POP POP DUP2 SHL ADD PUSH0 SSTORE PUSH2 0xCE JUMP JUMPDEST ADD MLOAD PUSH0 NOT PUSH1 0xF8 DUP5 PUSH1 0x3 SHL AND SHR NOT AND SWAP1 SSTORE PUSH0 DUP1 DUP1 PUSH2 0x2CD JUMP JUMPDEST SWAP2 SWAP3 PUSH1 0x20 PUSH1 0x1 DUP2 SWAP3 DUP7 DUP6 ADD MLOAD DUP2 SSTORE ADD SWAP5 ADD SWAP3 ADD PUSH2 0x2BA JUMP JUMPDEST PUSH0 DUP1 MSTORE PUSH32 0x290DECD9548B62A8D60345A988386FC84BA6BC95484008F6362F93160EF3E563 PUSH1 0x1F DUP4 ADD PUSH1 0x5 SHR DUP2 ADD SWAP2 PUSH1 0x20 DUP5 LT PUSH2 0x362 JUMPI JUMPDEST PUSH1 0x1F ADD PUSH1 0x5 SHR ADD SWAP1 JUMPDEST DUP2 DUP2 LT PUSH2 0x357 JUMPI POP PUSH2 0xA0 JUMP JUMPDEST PUSH0 DUP2 SSTORE PUSH1 0x1 ADD PUSH2 0x34A JUMP JUMPDEST SWAP1 SWAP2 POP DUP2 SWAP1 PUSH2 0x341 JUMP JUMPDEST SWAP1 PUSH1 0x7F AND SWAP1 PUSH2 0x8E JUMP JUMPDEST PUSH0 DUP1 REVERT INVALID PUSH1 0x80 PUSH1 0x40 MSTORE PUSH1 0x4 CALLDATASIZE LT ISZERO PUSH2 0x11 JUMPI PUSH0 DUP1 REVERT JUMPDEST PUSH0 CALLDATALOAD PUSH1 0xE0 SHR DUP1 PUSH3 0x339509 EQ PUSH2 0x195D JUMPI DUP1 PUSH4 0x1FFC9A7 EQ PUSH2 0x183A JUMPI DUP1 PUSH4 0x6FDDE03 EQ PUSH2 0x177A JUMPI DUP1 PUSH4 0x81812FC EQ PUSH2 0x1712 JUMPI DUP1 PUSH4 0x95EA7B3 EQ PUSH2 0x1596 JUMPI DUP1 PUSH4 0xAF28BD3 EQ PUSH2 0x14C0 JUMPI DUP1 PUSH4 0x1AA3A008 EQ PUSH2 0x13F4 JUMPI DUP1 PUSH4 0x23B872DD EQ PUSH2 0x13DD JUMPI DUP1 PUSH4 0x2D1EF5AE EQ PUSH2 0x115B JUMPI DUP1 PUSH4 0x3FDDCF19 EQ PUSH2 0x1077 JUMPI DUP1 PUSH4 0x42842E0E EQ PUSH2 0x104E JUMPI DUP1 PUSH4 0x466648DA EQ PUSH2 0xD3C JUMPI DUP1 PUSH4 0x6352211E EQ PUSH2 0xCE2 JUMPI DUP1 PUSH4 0x70A08231 EQ PUSH2 0xC4D JUMPI DUP1 PUSH4 0x715018A6 EQ PUSH2 0xBB1 JUMPI DUP1 PUSH4 0x8DA5CB5B EQ PUSH2 0xB60 JUMPI DUP1 PUSH4 0x8EA42286 EQ PUSH2 0x7B3 JUMPI DUP1 PUSH4 0x95D89B41 EQ PUSH2 0x6AD JUMPI DUP1 PUSH4 0xA22CB465 EQ PUSH2 0x57E JUMPI DUP1 PUSH4 0xB88D4FDE EQ PUSH2 0x4FE JUMPI DUP1 PUSH4 0xC87B56DD EQ PUSH2 0x4C1 JUMPI DUP1 PUSH4 0xCB4799F2 EQ PUSH2 0x3BC JUMPI DUP1 PUSH4 0xE985E9C5 EQ PUSH2 0x32B JUMPI DUP1 PUSH4 0xF2C298BE EQ PUSH2 0x21D JUMPI PUSH4 0xF2FDE38B EQ PUSH2 0x12B JUMPI PUSH0 DUP1 REVERT JUMPDEST CALLVALUE PUSH2 0x219 JUMPI PUSH1 0x20 PUSH32 0xFFFFFFFFFFFFFFFFFFFFFFFFFFFFFFFFFFFFFFFFFFFFFFFFFFFFFFFFFFFFFFFC CALLDATASIZE ADD SLT PUSH2 0x219 JUMPI PUSH20 0xFFFFFFFFFFFFFFFFFFFFFFFFFFFFFFFFFFFFFFFF PUSH2 0x177 PUSH2 0x1A08 JUMP JUMPDEST PUSH2 0x17F PUSH2 0x2691 JUMP JUMPDEST AND DUP1 ISZERO PUSH2 0x1ED JUMPI PUSH20 0xFFFFFFFFFFFFFFFFFFFFFFFFFFFFFFFFFFFFFFFF PUSH1 0x7 SLOAD DUP3 PUSH32 0xFFFFFFFFFFFFFFFFFFFFFFFF0000000000000000000000000000000000000000 DUP3 AND OR PUSH1 0x7 SSTORE AND PUSH32 0x8BE0079C531659141344CD1FD0A4F28419497F9722A3DAAFE3B4186F6B6457E0 PUSH0 DUP1 LOG3 STOP JUMPDEST PUSH32 0x1E4FBDF700000000000000000000000000000000000000000000000000000000 PUSH0 MSTORE PUSH0 PUSH1 0x4 MSTORE PUSH1 0x24 PUSH0 REVERT JUMPDEST PUSH0 DUP1 REVERT JUMPDEST CALLVALUE PUSH2 0x219 JUMPI PUSH1 0x20 PUSH32 0xFFFFFFFFFFFFFFFFFFFFFFFFFFFFFFFFFFFFFFFFFFFFFFFFFFFFFFFFFFFFFFFC CALLDATASIZE ADD SLT PUSH2 0x219 JUMPI PUSH1 0x4 CALLDATALOAD PUSH8 0xFFFFFFFFFFFFFFFF DUP2 GT PUSH2 0x219 JUMPI PUSH2 0x320 PUSH2 0x271 PUSH1 0x20 SWAP3 CALLDATASIZE SWAP1 PUSH1 0x4 ADD PUSH2 0x1A4E JUMP JUMPDEST SWAP1 PUSH32 0xCA52E62C367D81BB2E328EB795F7C7BA24AFB478408A26C0E201D155C449BC4A PUSH1 0x8 SLOAD SWAP4 DUP5 SWAP3 PUSH2 0x2A2 DUP5 PUSH2 0x1C80 JUMP JUMPDEST PUSH1 0x8 SSTORE PUSH2 0x2AF DUP5 CALLER PUSH2 0x24F5 JUMP JUMPDEST PUSH2 0x2C3 PUSH2 0x2BD CALLDATASIZE DUP8 DUP5 PUSH2 0x1BBB JUMP JUMPDEST DUP6 PUSH2 0x2373 JUMP JUMPDEST DUP4 PUSH0 MSTORE PUSH1 0x9 DUP8 MSTORE PUSH1 0x40 PUSH0 KECCAK256 PUSH20 0xFFFFFFFFFFFFFFFFFFFFFFFFFFFFFFFFFFFFFFFF CALLER AND PUSH32 0xFFFFFFFFFFFFFFFFFFFFFFFF0000000000000000000000000000000000000000 DUP3 SLOAD AND OR SWAP1 SSTORE PUSH1 0x40 MLOAD SWAP2 DUP3 SWAP2 DUP9 DUP4 MSTORE CALLER SWAP7 DUP10 DUP5 ADD SWAP2 PUSH2 0x1C42 JUMP JUMPDEST SUB SWAP1 LOG3 PUSH1 0x40 MLOAD SWAP1 DUP2 MSTORE RETURN JUMPDEST CALLVALUE PUSH2 0x219 JUMPI PUSH1 0x40 PUSH32 0xFFFFFFFFFFFFFFFFFFFFFFFFFFFFFFFFFFFFFFFFFFFFFFFFFFFFFFFFFFFFFFFC CALLDATASIZE ADD SLT PUSH2 0x219 JUMPI PUSH2 0x362 PUSH2 0x1A08 JUMP JUMPDEST PUSH20 0xFFFFFFFFFFFFFFFFFFFFFFFFFFFFFFFFFFFFFFFF PUSH2 0x37F PUSH2 0x1A2B JUMP JUMPDEST SWAP2 AND PUSH0 MSTORE PUSH1 0x5 PUSH1 0x20 MSTORE PUSH20 0xFFFFFFFFFFFFFFFFFFFFFFFFFFFFFFFFFFFFFFFF PUSH1 0x40 PUSH0 KECCAK256 SWAP2 AND PUSH0 MSTORE PUSH1 0x20 MSTORE PUSH1 0x20 PUSH1 0xFF PUSH1 0x40 PUSH0 KECCAK256 SLOAD AND PUSH1 0x40 MLOAD SWAP1 ISZERO ISZERO DUP2 MSTORE RETURN JUMPDEST CALLVALUE PUSH2 0x219 JUMPI PUSH2 0x3EA PUSH2 0x3CD CALLDATASIZE PUSH2 0x1A7C JUMP JUMPDEST SWAP1 SWAP2 PUSH2 0x3D8 DUP2 PUSH2 0x231A JUMP JUMPDEST POP PUSH0 MSTORE PUSH1 0xA PUSH1 0x20 MSTORE PUSH1 0x40 PUSH0 KECCAK256 SWAP2 PUSH2 0x1FEE JUMP JUMPDEST PUSH1 0x40 MLOAD SWAP1 PUSH0 SWAP1 DUP1 SLOAD SWAP1 PUSH2 0x3FC DUP3 PUSH2 0x1BF1 JUMP JUMPDEST DUP1 DUP6 MSTORE SWAP2 PUSH1 0x1 DUP2 AND SWAP1 DUP2 ISZERO PUSH2 0x47C JUMPI POP PUSH1 0x1 EQ PUSH2 0x43C JUMPI JUMPDEST PUSH2 0x438 DUP5 PUSH2 0x424 DUP2 DUP7 SUB DUP3 PUSH2 0x1B40 JUMP JUMPDEST PUSH1 0x40 MLOAD SWAP2 DUP3 SWAP2 PUSH1 0x20 DUP4 MSTORE PUSH1 0x20 DUP4 ADD SWAP1 PUSH2 0x19C5 JUMP JUMPDEST SUB SWAP1 RETURN JUMPDEST PUSH0 SWAP1 DUP2 MSTORE PUSH1 0x20 DUP2 KECCAK256 SWAP4 SWAP3 POP SWAP1 JUMPDEST DUP1 DUP3 LT PUSH2 0x462 JUMPI POP SWAP1 SWAP2 POP DUP2 ADD PUSH1 0x20 ADD PUSH2 0x424 DUP3 PUSH2 0x414 JUMP JUMPDEST SWAP2 SWAP3 PUSH1 0x1 DUP2 PUSH1 0x20 SWAP3 SLOAD DUP4 DUP6 DUP9 ADD ADD MSTORE ADD SWAP2 ADD SWAP1 SWAP3 SWAP2 PUSH2 0x449 JUMP JUMPDEST PUSH32 0xFFFFFFFFFFFFFFFFFFFFFFFFFFFFFFFFFFFFFFFFFFFFFFFFFFFFFFFFFFFFFF00 AND PUSH1 0x20 DUP1 DUP8 ADD SWAP2 SWAP1 SWAP2 MSTORE SWAP3 ISZERO ISZERO PUSH1 0x5 SHL DUP6 ADD SWAP1 SWAP3 ADD SWAP3 POP PUSH2 0x424 SWAP2 POP DUP4 SWAP1 POP PUSH2 0x414 JUMP JUMPDEST CALLVALUE PUSH2 0x219 JUMPI PUSH1 0x20 PUSH32 0xFFFFFFFFFFFFFFFFFFFFFFFFFFFFFFFFFFFFFFFFFFFFFFFFFFFFFFFFFFFFFFFC CALLDATASIZE ADD SLT PUSH2 0x219 JUMPI PUSH2 0x438 PUSH2 0x424 PUSH1 0x4 CALLDATALOAD PUSH2 0x26B2 JUMP JUMPDEST CALLVALUE PUSH2 0x219 JUMPI PUSH1 0x80 PUSH32 0xFFFFFFFFFFFFFFFFFFFFFFFFFFFFFFFFFFFFFFFFFFFFFFFFFFFFFFFFFFFFFFFC CALLDATASIZE ADD SLT PUSH2 0x219 JUMPI PUSH2 0x535 PUSH2 0x1A08 JUMP JUMPDEST PUSH2 0x53D PUSH2 0x1A2B JUMP JUMPDEST PUSH1 0x64 CALLDATALOAD SWAP2 PUSH8 0xFFFFFFFFFFFFFFFF DUP4 GT PUSH2 0x219 JUMPI CALLDATASIZE PUSH1 0x23 DUP5 ADD SLT ISZERO PUSH2 0x219 JUMPI PUSH2 0x572 PUSH2 0x57C SWAP4 CALLDATASIZE SWAP1 PUSH1 0x24 DUP2 PUSH1 0x4 ADD CALLDATALOAD SWAP2 ADD PUSH2 0x1BBB JUMP JUMPDEST SWAP2 PUSH1 0x44 CALLDATALOAD SWAP2 PUSH2 0x213E JUMP JUMPDEST STOP JUMPDEST CALLVALUE PUSH2 0x219 JUMPI PUSH1 0x40 PUSH32 0xFFFFFFFFFFFFFFFFFFFFFFFFFFFFFFFFFFFFFFFFFFFFFFFFFFFFFFFFFFFFFFFC CALLDATASIZE ADD SLT PUSH2 0x219 JUMPI PUSH2 0x5B5 PUSH2 0x1A08 JUMP JUMPDEST PUSH1 0x24 CALLDATALOAD SWAP1 DUP2 ISZERO ISZERO DUP1 SWAP3 SUB PUSH2 0x219 JUMPI CALLER ISZERO PUSH2 0x681 JUMPI PUSH20 0xFFFFFFFFFFFFFFFFFFFFFFFFFFFFFFFFFFFFFFFF AND SWAP1 DUP2 ISZERO PUSH2 0x655 JUMPI CALLER PUSH0 MSTORE PUSH1 0x5 PUSH1 0x20 MSTORE PUSH1 0x40 PUSH0 KECCAK256 DUP3 PUSH0 MSTORE PUSH1 0x20 MSTORE PUSH1 0x40 PUSH0 KECCAK256 PUSH32 0xFFFFFFFFFFFFFFFFFFFFFFFFFFFFFFFFFFFFFFFFFFFFFFFFFFFFFFFFFFFFFF00 DUP2 SLOAD AND PUSH1 0xFF DUP4 AND OR SWAP1 SSTORE PUSH1 0x40 MLOAD SWAP1 DUP2 MSTORE PUSH32 0x17307EAB39AB6107E8899845AD3D59BD9653F200F220920489CA2B5937696C31 PUSH1 0x20 CALLER SWAP3 LOG3 STOP JUMPDEST POP PUSH32 0x5B08BA1800000000000000000000000000000000000000000000000000000000 PUSH0 MSTORE PUSH1 0x4 MSTORE PUSH1 0x24 PUSH0 REVERT JUMPDEST PUSH32 0xA9FBF51F00000000000000000000000000000000000000000000000000000000 PUSH0 MSTORE PUSH0 PUSH1 0x4 MSTORE PUSH1 0x24 PUSH0 REVERT JUMPDEST CALLVALUE PUSH2 0x219 JUMPI PUSH0 PUSH32 0xFFFFFFFFFFFFFFFFFFFFFFFFFFFFFFFFFFFFFFFFFFFFFFFFFFFFFFFFFFFFFFFC CALLDATASIZE ADD SLT PUSH2 0x219 JUMPI PUSH1 0x40 MLOAD PUSH0 PUSH1 0x1 SLOAD PUSH2 0x6EB DUP2 PUSH2 0x1BF1 JUMP JUMPDEST DUP1 DUP5 MSTORE SWAP1 PUSH1 0x1 DUP2 AND SWAP1 DUP2 ISZERO PUSH2 0x771 JUMPI POP PUSH1 0x1 EQ PUSH2 0x713 JUMPI JUMPDEST PUSH2 0x438 DUP4 PUSH2 0x424 DUP2 DUP6 SUB DUP3 PUSH2 0x1B40 JUMP JUMPDEST SWAP2 SWAP1 POP PUSH1 0x1 PUSH0 MSTORE PUSH32 0xB10E2D527612073B26EECDFD717E6A320CF44B4AFAC2B0732D9FCBE2B7FA0CF6 SWAP2 PUSH0 SWAP1 JUMPDEST DUP1 DUP3 LT PUSH2 0x757 JUMPI POP SWAP1 SWAP2 POP DUP2 ADD PUSH1 0x20 ADD PUSH2 0x424 PUSH2 0x703 JUMP JUMPDEST SWAP2 SWAP3 PUSH1 0x1 DUP2 PUSH1 0x20 SWAP3 SLOAD DUP4 DUP6 DUP9 ADD ADD MSTORE ADD SWAP2 ADD SWAP1 SWAP3 SWAP2 PUSH2 0x73F JUMP JUMPDEST PUSH32 0xFFFFFFFFFFFFFFFFFFFFFFFFFFFFFFFFFFFFFFFFFFFFFFFFFFFFFFFFFFFFFF00 AND PUSH1 0x20 DUP1 DUP7 ADD SWAP2 SWAP1 SWAP2 MSTORE SWAP2 ISZERO ISZERO PUSH1 0x5 SHL DUP5 ADD SWAP1 SWAP2 ADD SWAP2 POP PUSH2 0x424 SWAP1 POP PUSH2 0x703 JUMP JUMPDEST CALLVALUE PUSH2 0x219 JUMPI PUSH1 0x40 PUSH32 0xFFFFFFFFFFFFFFFFFFFFFFFFFFFFFFFFFFFFFFFFFFFFFFFFFFFFFFFFFFFFFFFC CALLDATASIZE ADD SLT PUSH2 0x219 JUMPI PUSH1 0x4 CALLDATALOAD PUSH8 0xFFFFFFFFFFFFFFFF DUP2 GT PUSH2 0x219 JUMPI PUSH2 0x802 SWAP1 CALLDATASIZE SWAP1 PUSH1 0x4 ADD PUSH2 0x1A4E JUMP JUMPDEST PUSH1 0x24 CALLDATALOAD SWAP1 PUSH8 0xFFFFFFFFFFFFFFFF DUP3 GT PUSH2 0x219 JUMPI CALLDATASIZE PUSH1 0x23 DUP4 ADD SLT ISZERO PUSH2 0x219 JUMPI DUP2 PUSH1 0x4 ADD CALLDATALOAD SWAP1 PUSH8 0xFFFFFFFFFFFFFFFF DUP3 GT PUSH2 0x219 JUMPI PUSH1 0x24 DUP4 ADD SWAP3 PUSH1 0x24 CALLDATASIZE SWAP2 DUP5 PUSH1 0x5 SHL ADD ADD GT PUSH2 0x219 JUMPI PUSH2 0x8F8 SWAP4 PUSH32 0xCA52E62C367D81BB2E328EB795F7C7BA24AFB478408A26C0E201D155C449BC4A PUSH1 0x8 SLOAD SWAP6 DUP7 SWAP3 PUSH2 0x87D DUP5 PUSH2 0x1C80 JUMP JUMPDEST PUSH1 0x8 SSTORE PUSH2 0x88A DUP5 CALLER PUSH2 0x24F5 JUMP JUMPDEST PUSH2 0x898 PUSH2 0x2BD CALLDATASIZE DUP8 DUP5 PUSH2 0x1BBB JUMP JUMPDEST DUP4 PUSH0 MSTORE PUSH1 0x9 PUSH1 0x20 MSTORE PUSH1 0x40 PUSH0 KECCAK256 PUSH20 0xFFFFFFFFFFFFFFFFFFFFFFFFFFFFFFFFFFFFFFFF CALLER AND PUSH32 0xFFFFFFFFFFFFFFFFFFFFFFFF0000000000000000000000000000000000000000 DUP3 SLOAD AND OR SWAP1 SSTORE PUSH1 0x40 MLOAD SWAP2 DUP3 SWAP2 PUSH1 0x20 DUP4 MSTORE CALLER SWAP7 PUSH1 0x20 DUP5 ADD SWAP2 PUSH2 0x1C42 JUMP JUMPDEST SUB SWAP1 LOG3 PUSH0 JUMPDEST DUP2 DUP2 LT PUSH2 0x90F JUMPI PUSH1 0x20 DUP5 PUSH1 0x40 MLOAD SWAP1 DUP2 MSTORE RETURN JUMPDEST PUSH2 0x92D PUSH2 0x926 PUSH2 0x920 DUP4 DUP6 DUP8 PUSH2 0x2080 JUMP JUMPDEST DUP1 PUSH2 0x20ED JUMP JUMPDEST CALLDATASIZE SWAP2 PUSH2 0x1BBB JUMP JUMPDEST PUSH1 0x20 DUP2 MLOAD SWAP2 ADD KECCAK256 PUSH2 0x93C PUSH2 0x1FB3 JUMP JUMPDEST PUSH1 0x20 DUP2 MLOAD SWAP2 ADD KECCAK256 EQ PUSH2 0xB58 JUMPI PUSH2 0x960 PUSH2 0x956 DUP3 DUP5 DUP7 PUSH2 0x2080 JUMP JUMPDEST PUSH1 0x20 DUP2 ADD SWAP1 PUSH2 0x20ED JUMP JUMPDEST DUP6 PUSH0 MSTORE PUSH1 0xA PUSH1 0x20 MSTORE PUSH2 0x983 PUSH1 0x40 PUSH0 KECCAK256 PUSH2 0x97D PUSH2 0x920 DUP7 DUP9 DUP11 PUSH2 0x2080 JUMP JUMPDEST SWAP1 PUSH2 0x1FEE JUMP JUMPDEST SWAP2 PUSH8 0xFFFFFFFFFFFFFFFF DUP3 GT PUSH2 0xB2B JUMPI PUSH2 0x9A7 DUP3 PUSH2 0x9A1 DUP6 SLOAD PUSH2 0x1BF1 JUMP JUMPDEST DUP6 PUSH2 0x2007 JUMP JUMPDEST PUSH0 SWAP1 PUSH1 0x1F DUP4 GT PUSH1 0x1 EQ PUSH2 0xA86 JUMPI SWAP2 DUP1 PUSH2 0x9F8 SWAP3 PUSH1 0x1 SWAP7 SWAP6 SWAP5 PUSH0 SWAP3 PUSH2 0xA7B JUMPI JUMPDEST POP POP PUSH32 0xFFFFFFFFFFFFFFFFFFFFFFFFFFFFFFFFFFFFFFFFFFFFFFFFFFFFFFFFFFFFFFFF DUP3 PUSH1 0x1 SHL SWAP3 PUSH1 0x3 SHL SHR NOT AND OR SWAP1 JUMP JUMPDEST SWAP1 SSTORE JUMPDEST PUSH2 0xA71 DUP6 PUSH32 0x2C149ED548C6D2993CD73EFE187DF6ECCABE4538091B33ADBD25FAFDB8A1468B DUP6 DUP8 PUSH2 0xA30 PUSH2 0x920 DUP8 DUP5 DUP5 PUSH2 0x2080 JUMP JUMPDEST PUSH2 0xA50 PUSH2 0x956 DUP10 PUSH2 0xA48 PUSH2 0x920 DUP3 DUP10 DUP10 SWAP14 SWAP9 SWAP14 PUSH2 0x2080 JUMP JUMPDEST SWAP8 SWAP1 SWAP7 PUSH2 0x2080 JUMP JUMPDEST SWAP2 SWAP1 SWAP8 DUP2 PUSH1 0x40 MLOAD SWAP3 DUP4 SWAP3 DUP4 CALLDATACOPY DUP2 ADD PUSH0 DUP2 MSTORE SUB SWAP1 KECCAK256 SWAP7 PUSH1 0x40 MLOAD SWAP5 DUP6 SWAP5 DUP6 PUSH2 0x2056 JUMP JUMPDEST SUB SWAP1 LOG3 JUMPDEST ADD PUSH2 0x8FD JUMP JUMPDEST ADD CALLDATALOAD SWAP1 POP DUP10 DUP1 PUSH2 0x9C6 JUMP JUMPDEST PUSH32 0xFFFFFFFFFFFFFFFFFFFFFFFFFFFFFFFFFFFFFFFFFFFFFFFFFFFFFFFFFFFFFFE0 DUP4 AND SWAP2 DUP5 PUSH0 MSTORE PUSH1 0x20 PUSH0 KECCAK256 SWAP3 PUSH0 JUMPDEST DUP2 DUP2 LT PUSH2 0xB13 JUMPI POP SWAP2 PUSH1 0x1 SWAP7 SWAP6 SWAP5 SWAP3 SWAP2 DUP4 DUP9 SWAP6 SWAP4 LT PUSH2 0xADB JUMPI JUMPDEST POP POP POP DUP2 SHL ADD SWAP1 SSTORE PUSH2 0x9FB JUMP JUMPDEST PUSH32 0xFFFFFFFFFFFFFFFFFFFFFFFFFFFFFFFFFFFFFFFFFFFFFFFFFFFFFFFFFFFFFFFF PUSH1 0xF8 DUP6 PUSH1 0x3 SHL AND SHR NOT SWAP2 ADD CALLDATALOAD AND SWAP1 SSTORE DUP9 DUP1 DUP1 PUSH2 0xACE JUMP JUMPDEST DUP4 DUP4 ADD CALLDATALOAD DUP6 SSTORE PUSH1 0x1 SWAP1 SWAP5 ADD SWAP4 PUSH1 0x20 SWAP3 DUP4 ADD SWAP3 ADD PUSH2 0xAB4 JUMP JUMPDEST PUSH32 0x4E487B7100000000000000000000000000000000000000000000000000000000 PUSH0 MSTORE PUSH1 0x41 PUSH1 0x4 MSTORE PUSH1 0x24 PUSH0 REVERT JUMPDEST PUSH1 0x1 SWAP1 PUSH2 0xA75 JUMP JUMPDEST CALLVALUE PUSH2 0x219 JUMPI PUSH0 PUSH32 0xFFFFFFFFFFFFFFFFFFFFFFFFFFFFFFFFFFFFFFFFFFFFFFFFFFFFFFFFFFFFFFFC CALLDATASIZE ADD SLT PUSH2 0x219 JUMPI PUSH1 0x20 PUSH20 0xFFFFFFFFFFFFFFFFFFFFFFFFFFFFFFFFFFFFFFFF PUSH1 0x7 SLOAD AND PUSH1 0x40 MLOAD SWAP1 DUP2 MSTORE RETURN JUMPDEST CALLVALUE PUSH2 0x219 JUMPI PUSH0 PUSH32 0xFFFFFFFFFFFFFFFFFFFFFFFFFFFFFFFFFFFFFFFFFFFFFFFFFFFFFFFFFFFFFFFC CALLDATASIZE ADD SLT PUSH2 0x219 JUMPI PUSH2 0xBE7 PUSH2 0x2691 JUMP JUMPDEST PUSH0 PUSH20 0xFFFFFFFFFFFFFFFFFFFFFFFFFFFFFFFFFFFFFFFF PUSH1 0x7 SLOAD PUSH32 0xFFFFFFFFFFFFFFFFFFFFFFFF0000000000000000000000000000000000000000 DUP2 AND PUSH1 0x7 SSTORE AND PUSH32 0x8BE0079C531659141344CD1FD0A4F28419497F9722A3DAAFE3B4186F6B6457E0 DUP3 DUP1 LOG3 STOP JUMPDEST CALLVALUE PUSH2 0x219 JUMPI PUSH1 0x20 PUSH32 0xFFFFFFFFFFFFFFFFFFFFFFFFFFFFFFFFFFFFFFFFFFFFFFFFFFFFFFFFFFFFFFFC CALLDATASIZE ADD SLT PUSH2 0x219 JUMPI PUSH20 0xFFFFFFFFFFFFFFFFFFFFFFFFFFFFFFFFFFFFFFFF PUSH2 0xC99 PUSH2 0x1A08 JUMP JUMPDEST AND DUP1 ISZERO PUSH2 0xCB6 JUMPI PUSH0 MSTORE PUSH1 0x3 PUSH1 0x20 MSTORE PUSH1 0x20 PUSH1 0x40 PUSH0 KECCAK256 SLOAD PUSH1 0x40 MLOAD SWAP1 DUP2 MSTORE RETURN JUMPDEST PUSH32 0x89C62B6400000000000000000000000000000000000000000000000000000000 PUSH0 MSTORE PUSH0 PUSH1 0x4 MSTORE PUSH1 0x24 PUSH0 REVERT JUMPDEST CALLVALUE PUSH2 0x219 JUMPI PUSH1 0x20 PUSH32 0xFFFFFFFFFFFFFFFFFFFFFFFFFFFFFFFFFFFFFFFFFFFFFFFFFFFFFFFFFFFFFFFC CALLDATASIZE ADD SLT PUSH2 0x219 JUMPI PUSH1 0x20 PUSH2 0xD1E PUSH1 0x4 CALLDATALOAD PUSH2 0x231A JUMP JUMPDEST PUSH20 0xFFFFFFFFFFFFFFFFFFFFFFFFFFFFFFFFFFFFFFFF PUSH1 0x40 MLOAD SWAP2 AND DUP2 MSTORE RETURN JUMPDEST CALLVALUE PUSH2 0x219 JUMPI PUSH1 0x60 PUSH32 0xFFFFFFFFFFFFFFFFFFFFFFFFFFFFFFFFFFFFFFFFFFFFFFFFFFFFFFFFFFFFFFFC CALLDATASIZE ADD SLT PUSH2 0x219 JUMPI PUSH1 0x4 CALLDATALOAD PUSH1 0x24 CALLDATALOAD PUSH8 0xFFFFFFFFFFFFFFFF DUP2 GT PUSH2 0x219 JUMPI PUSH2 0xD8E SWAP1 CALLDATASIZE SWAP1 PUSH1 0x4 ADD PUSH2 0x1A4E JUMP JUMPDEST PUSH1 0x44 SWAP3 SWAP2 SWAP3 CALLDATALOAD PUSH8 0xFFFFFFFFFFFFFFFF DUP2 GT PUSH2 0x219 JUMPI PUSH2 0xDB1 SWAP1 CALLDATASIZE SWAP1 PUSH1 0x4 ADD PUSH2 0x1A4E JUMP JUMPDEST PUSH2 0xDBD DUP5 SWAP6 SWAP3 SWAP6 PUSH2 0x231A JUMP JUMPDEST POP DUP4 PUSH0 MSTORE PUSH1 0x2 PUSH1 0x20 MSTORE PUSH20 0xFFFFFFFFFFFFFFFFFFFFFFFFFFFFFFFFFFFFFFFF PUSH1 0x40 PUSH0 KECCAK256 SLOAD AND CALLER EQ ISZERO DUP1 PUSH2 0x100B JUMPI JUMPDEST PUSH2 0xFDF JUMPI PUSH2 0xDF9 CALLDATASIZE DUP5 DUP5 PUSH2 0x1BBB JUMP JUMPDEST PUSH1 0x20 DUP2 MLOAD SWAP2 ADD KECCAK256 PUSH2 0xE08 PUSH2 0x1FB3 JUMP JUMPDEST PUSH1 0x20 DUP2 MLOAD SWAP2 ADD KECCAK256 EQ PUSH2 0xFB7 JUMPI DUP4 PUSH0 MSTORE PUSH1 0xA PUSH1 0x20 MSTORE PUSH2 0xE2A PUSH1 0x40 PUSH0 KECCAK256 DUP5 DUP5 PUSH2 0x1FEE JUMP JUMPDEST PUSH8 0xFFFFFFFFFFFFFFFF DUP3 GT PUSH2 0xB2B JUMPI PUSH2 0xE4D DUP3 PUSH2 0xE47 DUP4 SLOAD PUSH2 0x1BF1 JUMP JUMPDEST DUP4 PUSH2 0x2007 JUMP JUMPDEST PUSH0 PUSH1 0x1F DUP4 GT PUSH1 0x1 EQ PUSH2 0xEF0 JUMPI SWAP2 PUSH2 0xEE0 SWAP2 PUSH2 0xEBF DUP3 DUP1 PUSH32 0x2C149ED548C6D2993CD73EFE187DF6ECCABE4538091B33ADBD25FAFDB8A1468B SWAP9 SWAP8 SWAP7 PUSH0 SWAP2 PUSH2 0xEE5 JUMPI JUMPDEST POP PUSH32 0xFFFFFFFFFFFFFFFFFFFFFFFFFFFFFFFFFFFFFFFFFFFFFFFFFFFFFFFFFFFFFFFF DUP3 PUSH1 0x1 SHL SWAP3 PUSH1 0x3 SHL SHR NOT AND OR SWAP1 JUMP JUMPDEST SWAP1 SSTORE JUMPDEST PUSH1 0x40 MLOAD DUP5 DUP5 DUP3 CALLDATACOPY DUP1 DUP6 DUP2 ADD PUSH0 DUP2 MSTORE SUB SWAP1 KECCAK256 SWAP7 PUSH1 0x40 MLOAD SWAP5 DUP6 SWAP5 DUP6 PUSH2 0x2056 JUMP JUMPDEST SUB SWAP1 LOG3 STOP JUMPDEST SWAP1 POP DUP11 ADD CALLDATALOAD DUP12 PUSH2 0xE8E JUMP JUMPDEST PUSH32 0xFFFFFFFFFFFFFFFFFFFFFFFFFFFFFFFFFFFFFFFFFFFFFFFFFFFFFFFFFFFFFFE0 DUP4 AND SWAP1 DUP3 PUSH0 MSTORE PUSH1 0x20 PUSH0 KECCAK256 SWAP2 PUSH0 JUMPDEST DUP2 DUP2 LT PUSH2 0xF9F JUMPI POP SWAP2 PUSH2 0xEE0 SWAP4 SWAP2 DUP6 PUSH32 0x2C149ED548C6D2993CD73EFE187DF6ECCABE4538091B33ADBD25FAFDB8A1468B SWAP9 SWAP8 SWAP7 SWAP5 LT PUSH2 0xF67 JUMPI JUMPDEST POP POP PUSH1 0x1 DUP3 DUP2 SHL ADD SWAP1 SSTORE PUSH2 0xEC2 JUMP JUMPDEST PUSH32 0xFFFFFFFFFFFFFFFFFFFFFFFFFFFFFFFFFFFFFFFFFFFFFFFFFFFFFFFFFFFFFFFF PUSH1 0xF8 DUP6 PUSH1 0x3 SHL AND SHR NOT SWAP1 DUP11 ADD CALLDATALOAD AND SWAP1 SSTORE DUP9 DUP1 PUSH2 0xF58 JUMP JUMPDEST SWAP2 SWAP3 PUSH1 0x20 PUSH1 0x1 DUP2 SWAP3 DUP7 DUP14 ADD CALLDATALOAD DUP2 SSTORE ADD SWAP5 ADD SWAP3 ADD PUSH2 0xF1E JUMP JUMPDEST PUSH32 0xD335655800000000000000000000000000000000000000000000000000000000 PUSH0 MSTORE PUSH1 0x4 PUSH0 REVERT JUMPDEST PUSH32 0x118CDAA700000000000000000000000000000000000000000000000000000000 PUSH0 MSTORE CALLER PUSH1 0x4 MSTORE PUSH1 0x24 PUSH0 REVERT JUMPDEST POP PUSH0 DUP5 DUP2 MSTORE PUSH1 0x2 PUSH1 0x20 SWAP1 DUP2 MSTORE PUSH1 0x40 DUP1 DUP4 KECCAK256 SLOAD PUSH20 0xFFFFFFFFFFFFFFFFFFFFFFFFFFFFFFFFFFFFFFFF AND DUP4 MSTORE PUSH1 0x5 DUP3 MSTORE DUP1 DUP4 KECCAK256 CALLER DUP5 MSTORE SWAP1 SWAP2 MSTORE SWAP1 KECCAK256 SLOAD PUSH1 0xFF AND ISZERO PUSH2 0xDEA JUMP JUMPDEST CALLVALUE PUSH2 0x219 JUMPI PUSH2 0x57C PUSH2 0x105F CALLDATASIZE PUSH2 0x1ACE JUMP JUMPDEST SWAP1 PUSH1 0x40 MLOAD SWAP3 PUSH2 0x106F PUSH1 0x20 DUP6 PUSH2 0x1B40 JUMP JUMPDEST PUSH0 DUP5 MSTORE PUSH2 0x213E JUMP JUMPDEST CALLVALUE PUSH2 0x219 JUMPI PUSH1 0x20 PUSH32 0xFFFFFFFFFFFFFFFFFFFFFFFFFFFFFFFFFFFFFFFFFFFFFFFFFFFFFFFFFFFFFFFC CALLDATASIZE ADD SLT PUSH2 0x219 JUMPI PUSH1 0x4 CALLDATALOAD PUSH2 0x10B2 DUP2 PUSH2 0x231A JUMP JUMPDEST POP DUP1 PUSH0 MSTORE PUSH1 0x2 PUSH1 0x20 MSTORE PUSH20 0xFFFFFFFFFFFFFFFFFFFFFFFFFFFFFFFFFFFFFFFF PUSH1 0x40 PUSH0 KECCAK256 SLOAD AND CALLER EQ ISZERO DUP1 PUSH2 0x1118 JUMPI JUMPDEST PUSH2 0xFDF JUMPI PUSH0 MSTORE PUSH1 0x9 PUSH1 0x20 MSTORE PUSH1 0x40 PUSH0 KECCAK256 PUSH32 0xFFFFFFFFFFFFFFFFFFFFFFFF0000000000000000000000000000000000000000 DUP2 SLOAD AND SWAP1 SSTORE PUSH0 DUP1 RETURN JUMPDEST POP PUSH0 DUP2 DUP2 MSTORE PUSH1 0x2 PUSH1 0x20 SWAP1 DUP2 MSTORE PUSH1 0x40 DUP1 DUP4 KECCAK256 SLOAD PUSH20 0xFFFFFFFFFFFFFFFFFFFFFFFFFFFFFFFFFFFFFFFF AND DUP4 MSTORE PUSH1 0x5 DUP3 MSTORE DUP1 DUP4 KECCAK256 CALLER DUP5 MSTORE SWAP1 SWAP2 MSTORE SWAP1 KECCAK256 SLOAD PUSH1 0xFF AND ISZERO PUSH2 0x10DF JUMP JUMPDEST CALLVALUE PUSH2 0x219 JUMPI PUSH1 0x80 PUSH32 0xFFFFFFFFFFFFFFFFFFFFFFFFFFFFFFFFFFFFFFFFFFFFFFFFFFFFFFFFFFFFFFFC CALLDATASIZE ADD SLT PUSH2 0x219 JUMPI PUSH1 0x4 CALLDATALOAD PUSH2 0x1195 PUSH2 0x1A2B JUMP JUMPDEST SWAP1 PUSH1 0x44 CALLDATALOAD SWAP1 PUSH1 0x64 CALLDATALOAD PUSH8 0xFFFFFFFFFFFFFFFF DUP2 GT PUSH2 0x219 JUMPI PUSH2 0x11BA SWAP1 CALLDATASIZE SWAP1 PUSH1 0x4 ADD PUSH2 0x1A4E JUMP JUMPDEST PUSH2 0x11C6 DUP4 SWAP5 SWAP3 SWAP5 PUSH2 0x231A JUMP JUMPDEST POP TIMESTAMP DUP3 LT PUSH2 0x13B5 JUMPI PUSH2 0x1352 PUSH2 0x1349 PUSH20 0xFFFFFFFFFFFFFFFFFFFFFFFFFFFFFFFFFFFFFFFF SWAP3 PUSH2 0x1343 PUSH1 0x40 MLOAD SWAP9 DUP6 PUSH1 0x20 DUP12 ADD SWAP2 PUSH32 0xA3181B3F6075B6C71999C3CC621B869E7D9267AE4BEFCD6FD724006E9E0AD765 DUP4 MSTORE DUP10 PUSH1 0x40 DUP14 ADD MSTORE AND SWAP10 DUP11 SWAP8 DUP9 PUSH1 0x60 DUP4 ADD MSTORE PUSH1 0x80 DUP3 ADD MSTORE PUSH1 0x80 DUP2 MSTORE PUSH2 0x123E PUSH1 0xA0 DUP3 PUSH2 0x1B40 JUMP JUMPDEST MLOAD SWAP1 KECCAK256 SWAP8 PUSH1 0x42 PUSH1 0x40 SWAP10 DUP11 PUSH1 0x1C PUSH1 0x20 DUP3 MLOAD PUSH2 0x1258 DUP5 DUP3 PUSH2 0x1B40 JUMP JUMPDEST DUP3 DUP2 MSTORE ADD PUSH32 0x4167656E7457616C6C6574204964656E74697479526567697374727900000000 DUP2 MSTORE KECCAK256 PUSH1 0x1 PUSH1 0x20 DUP4 MLOAD PUSH2 0x1290 DUP6 DUP3 PUSH2 0x1B40 JUMP JUMPDEST DUP3 DUP2 MSTORE ADD PUSH32 0x3100000000000000000000000000000000000000000000000000000000000000 DUP2 MSTORE KECCAK256 DUP3 MLOAD SWAP2 PUSH1 0x20 DUP4 ADD SWAP4 PUSH32 0x8B73C3C69BB8FE3D512ECC4CF759CC79239F7B179B0FFACAA9A75D522B39400F DUP6 MSTORE DUP4 ADD MSTORE PUSH1 0x60 DUP3 ADD MSTORE CHAINID PUSH1 0x80 DUP3 ADD MSTORE ADDRESS PUSH1 0xA0 DUP3 ADD MSTORE PUSH1 0xA0 DUP2 MSTORE PUSH2 0x1306 PUSH1 0xC0 DUP3 PUSH2 0x1B40 JUMP JUMPDEST MLOAD SWAP1 KECCAK256 SWAP1 DUP12 MLOAD SWAP2 PUSH32 0x1901000000000000000000000000000000000000000000000000000000000000 DUP4 MSTORE PUSH1 0x2 DUP4 ADD MSTORE PUSH1 0x22 DUP3 ADD MSTORE KECCAK256 SWAP3 CALLDATASIZE SWAP2 PUSH2 0x1BBB JUMP JUMPDEST SWAP1 PUSH2 0x282D JUMP JUMPDEST SWAP1 SWAP3 SWAP2 SWAP3 PUSH2 0x2867 JUMP JUMPDEST AND SUB PUSH2 0x138D JUMPI PUSH0 MSTORE PUSH1 0x9 PUSH1 0x20 MSTORE PUSH0 KECCAK256 SWAP1 PUSH32 0xFFFFFFFFFFFFFFFFFFFFFFFF0000000000000000000000000000000000000000 DUP3 SLOAD AND OR SWAP1 SSTORE PUSH0 DUP1 RETURN JUMPDEST PUSH32 0x8BAA579F00000000000000000000000000000000000000000000000000000000 PUSH0 MSTORE PUSH1 0x4 PUSH0 REVERT JUMPDEST PUSH32 0x819BDCD00000000000000000000000000000000000000000000000000000000 PUSH0 MSTORE PUSH1 0x4 PUSH0 REVERT JUMPDEST CALLVALUE PUSH2 0x219 JUMPI PUSH2 0x57C PUSH2 0x13EE CALLDATASIZE PUSH2 0x1ACE JUMP JUMPDEST SWAP2 PUSH2 0x1CDA JUMP JUMPDEST CALLVALUE PUSH2 0x219 JUMPI PUSH0 PUSH32 0xFFFFFFFFFFFFFFFFFFFFFFFFFFFFFFFFFFFFFFFFFFFFFFFFFFFFFFFFFFFFFFFC CALLDATASIZE ADD SLT PUSH2 0x219 JUMPI PUSH1 0x20 PUSH1 0x8 SLOAD PUSH2 0x1430 DUP2 PUSH2 0x1C80 JUMP JUMPDEST PUSH1 0x8 SSTORE PUSH2 0x143D DUP2 CALLER PUSH2 0x24F5 JUMP JUMPDEST DUP1 PUSH0 MSTORE PUSH1 0x9 DUP3 MSTORE PUSH1 0x40 PUSH0 KECCAK256 PUSH20 0xFFFFFFFFFFFFFFFFFFFFFFFFFFFFFFFFFFFFFFFF CALLER AND PUSH32 0xFFFFFFFFFFFFFFFFFFFFFFFF0000000000000000000000000000000000000000 DUP3 SLOAD AND OR SWAP1 SSTORE PUSH1 0x40 MLOAD DUP3 DUP2 MSTORE PUSH0 DUP4 DUP3 ADD MSTORE DUP2 PUSH32 0xCA52E62C367D81BB2E328EB795F7C7BA24AFB478408A26C0E201D155C449BC4A PUSH1 0x40 CALLER SWAP4 LOG3 PUSH1 0x40 MLOAD SWAP1 DUP2 MSTORE RETURN JUMPDEST CALLVALUE PUSH2 0x219 JUMPI PUSH2 0x14CE CALLDATASIZE PUSH2 0x1A7C JUMP JUMPDEST SWAP2 SWAP1 PUSH2 0x14D9 DUP3 PUSH2 0x231A JUMP JUMPDEST POP DUP2 PUSH0 MSTORE PUSH1 0x2 PUSH1 0x20 MSTORE PUSH20 0xFFFFFFFFFFFFFFFFFFFFFFFFFFFFFFFFFFFFFFFF PUSH1 0x40 PUSH0 KECCAK256 SLOAD AND CALLER EQ ISZERO DUP1 PUSH2 0x1553 JUMPI JUMPDEST PUSH2 0xFDF JUMPI PUSH2 0xEE0 PUSH32 0x3A2C7FFFC2CBA7582C690E3B82C453EA02A308326A98A3AD7576C606336409FB SWAP2 PUSH2 0x153D PUSH2 0x2BD CALLDATASIZE DUP8 DUP5 PUSH2 0x1BBB JUMP JUMPDEST PUSH1 0x40 MLOAD SWAP2 DUP3 SWAP2 PUSH1 0x20 DUP4 MSTORE CALLER SWAP7 PUSH1 0x20 DUP5 ADD SWAP2 PUSH2 0x1C42 JUMP JUMPDEST POP PUSH0 DUP3 DUP2 MSTORE PUSH1 0x2 PUSH1 0x20 SWAP1 DUP2 MSTORE PUSH1 0x40 DUP1 DUP4 KECCAK256 SLOAD PUSH20 0xFFFFFFFFFFFFFFFFFFFFFFFFFFFFFFFFFFFFFFFF AND DUP4 MSTORE PUSH1 0x5 DUP3 MSTORE DUP1 DUP4 KECCAK256 CALLER DUP5 MSTORE SWAP1 SWAP2 MSTORE SWAP1 KECCAK256 SLOAD PUSH1 0xFF AND ISZERO PUSH2 0x1506 JUMP JUMPDEST CALLVALUE PUSH2 0x219 JUMPI PUSH1 0x40 PUSH32 0xFFFFFFFFFFFFFFFFFFFFFFFFFFFFFFFFFFFFFFFFFFFFFFFFFFFFFFFFFFFFFFFC CALLDATASIZE ADD SLT PUSH2 0x219 JUMPI PUSH2 0x15CD PUSH2 0x1A08 JUMP JUMPDEST PUSH1 0x24 CALLDATALOAD PUSH2 0x15D9 DUP2 PUSH2 0x231A JUMP JUMPDEST CALLER ISZERO ISZERO DUP1 PUSH2 0x16F2 JUMPI JUMPDEST DUP1 PUSH2 0x16A5 JUMPI JUMPDEST PUSH2 0x1679 JUMPI DUP2 SWAP1 PUSH20 0xFFFFFFFFFFFFFFFFFFFFFFFFFFFFFFFFFFFFFFFF DUP1 DUP6 AND SWAP2 AND PUSH32 0x8C5BE1E5EBEC7D5BD14F71427D1E84F3DD0314C0F7B2291E5B200AC8C7C3B925 PUSH0 DUP1 LOG4 PUSH0 MSTORE PUSH1 0x4 PUSH1 0x20 MSTORE PUSH20 0xFFFFFFFFFFFFFFFFFFFFFFFFFFFFFFFFFFFFFFFF PUSH1 0x40 PUSH0 KECCAK256 SWAP2 AND PUSH32 0xFFFFFFFFFFFFFFFFFFFFFFFF0000000000000000000000000000000000000000 DUP3 SLOAD AND OR SWAP1 SSTORE PUSH0 DUP1 RETURN JUMPDEST PUSH32 0xA9FBF51F00000000000000000000000000000000000000000000000000000000 PUSH0 MSTORE CALLER PUSH1 0x4 MSTORE PUSH1 0x24 PUSH0 REVERT JUMPDEST POP PUSH20 0xFFFFFFFFFFFFFFFFFFFFFFFFFFFFFFFFFFFFFFFF DUP2 AND PUSH0 MSTORE PUSH1 0x5 PUSH1 0x20 MSTORE PUSH1 0x40 PUSH0 KECCAK256 PUSH20 0xFFFFFFFFFFFFFFFFFFFFFFFFFFFFFFFFFFFFFFFF CALLER AND PUSH0 MSTORE PUSH1 0x20 MSTORE PUSH1 0xFF PUSH1 0x40 PUSH0 KECCAK256 SLOAD AND ISZERO PUSH2 0x15E8 JUMP JUMPDEST POP CALLER PUSH20 0xFFFFFFFFFFFFFFFFFFFFFFFFFFFFFFFFFFFFFFFF DUP3 AND EQ ISZERO PUSH2 0x15E2 JUMP JUMPDEST CALLVALUE PUSH2 0x219 JUMPI PUSH1 0x20 PUSH32 0xFFFFFFFFFFFFFFFFFFFFFFFFFFFFFFFFFFFFFFFFFFFFFFFFFFFFFFFFFFFFFFFC CALLDATASIZE ADD SLT PUSH2 0x219 JUMPI PUSH1 0x4 CALLDATALOAD PUSH2 0x174D DUP2 PUSH2 0x231A JUMP JUMPDEST POP PUSH0 MSTORE PUSH1 0x4 PUSH1 0x20 MSTORE PUSH1 0x20 PUSH20 0xFFFFFFFFFFFFFFFFFFFFFFFFFFFFFFFFFFFFFFFF PUSH1 0x40 PUSH0 KECCAK256 SLOAD AND PUSH1 0x40 MLOAD SWAP1 DUP2 MSTORE RETURN JUMPDEST CALLVALUE PUSH2 0x219 JUMPI PUSH0 PUSH32 0xFFFFFFFFFFFFFFFFFFFFFFFFFFFFFFFFFFFFFFFFFFFFFFFFFFFFFFFFFFFFFFFC CALLDATASIZE ADD SLT PUSH2 0x219 JUMPI PUSH1 0x40 MLOAD PUSH0 PUSH0 SLOAD PUSH2 0x17B7 DUP2 PUSH2 0x1BF1 JUMP JUMPDEST DUP1 DUP5 MSTORE SWAP1 PUSH1 0x1 DUP2 AND SWAP1 DUP2 ISZERO PUSH2 0x771 JUMPI POP PUSH1 0x1 EQ PUSH2 0x17DE JUMPI PUSH2 0x438 DUP4 PUSH2 0x424 DUP2 DUP6 SUB DUP3 PUSH2 0x1B40 JUMP JUMPDEST PUSH0 DUP1 DUP1 MSTORE PUSH32 0x290DECD9548B62A8D60345A988386FC84BA6BC95484008F6362F93160EF3E563 SWAP4 SWAP3 POP SWAP1 JUMPDEST DUP1 DUP3 LT PUSH2 0x1820 JUMPI POP SWAP1 SWAP2 POP DUP2 ADD PUSH1 0x20 ADD PUSH2 0x424 PUSH2 0x703 JUMP JUMPDEST SWAP2 SWAP3 PUSH1 0x1 DUP2 PUSH1 0x20 SWAP3 SLOAD DUP4 DUP6 DUP9 ADD ADD MSTORE ADD SWAP2 ADD SWAP1 SWAP3 SWAP2 PUSH2 0x1808 JUMP JUMPDEST CALLVALUE PUSH2 0x219 JUMPI PUSH1 0x20 PUSH32 0xFFFFFFFFFFFFFFFFFFFFFFFFFFFFFFFFFFFFFFFFFFFFFFFFFFFFFFFFFFFFFFFC CALLDATASIZE ADD SLT PUSH2 0x219 JUMPI PUSH1 0x4 CALLDATALOAD PUSH32 0xFFFFFFFF00000000000000000000000000000000000000000000000000000000 DUP2 AND DUP1 SWAP2 SUB PUSH2 0x219 JUMPI DUP1 PUSH32 0x4906490600000000000000000000000000000000000000000000000000000000 PUSH1 0x20 SWAP3 EQ SWAP1 DUP2 ISZERO PUSH2 0x18CF JUMPI JUMPDEST POP PUSH1 0x40 MLOAD SWAP1 ISZERO ISZERO DUP2 MSTORE RETURN JUMPDEST PUSH32 0x80AC58CD00000000000000000000000000000000000000000000000000000000 DUP2 EQ SWAP2 POP DUP2 ISZERO PUSH2 0x1933 JUMPI JUMPDEST DUP2 ISZERO PUSH2 0x1909 JUMPI JUMPDEST POP DUP3 PUSH2 0x18C4 JUMP JUMPDEST PUSH32 0x1FFC9A700000000000000000000000000000000000000000000000000000000 SWAP2 POP EQ DUP3 PUSH2 0x1902 JUMP JUMPDEST PUSH32 0x5B5E139F00000000000000000000000000000000000000000000000000000000 DUP2 EQ SWAP2 POP PUSH2 0x18FB JUMP JUMPDEST CALLVALUE PUSH2 0x219 JUMPI PUSH1 0x20 PUSH32 0xFFFFFFFFFFFFFFFFFFFFFFFFFFFFFFFFFFFFFFFFFFFFFFFFFFFFFFFFFFFFFFFC CALLDATASIZE ADD SLT PUSH2 0x219 JUMPI PUSH1 0x4 CALLDATALOAD PUSH2 0x1998 DUP2 PUSH2 0x231A JUMP JUMPDEST POP PUSH0 MSTORE PUSH1 0x9 PUSH1 0x20 MSTORE PUSH1 0x20 PUSH20 0xFFFFFFFFFFFFFFFFFFFFFFFFFFFFFFFFFFFFFFFF PUSH1 0x40 PUSH0 KECCAK256 SLOAD AND PUSH1 0x40 MLOAD SWAP1 DUP2 MSTORE RETURN JUMPDEST SWAP1 PUSH32 0xFFFFFFFFFFFFFFFFFFFFFFFFFFFFFFFFFFFFFFFFFFFFFFFFFFFFFFFFFFFFFFE0 PUSH1 0x1F PUSH1 0x20 DUP1 SWAP5 DUP1 MLOAD SWAP2 DUP3 SWAP2 DUP3 DUP8 MSTORE ADD DUP7 DUP7 ADD MCOPY PUSH0 DUP6 DUP3 DUP7 ADD ADD MSTORE ADD AND ADD ADD SWAP1 JUMP JUMPDEST PUSH1 0x4 CALLDATALOAD SWAP1 PUSH20 0xFFFFFFFFFFFFFFFFFFFFFFFFFFFFFFFFFFFFFFFF DUP3 AND DUP3 SUB PUSH2 0x219 JUMPI JUMP JUMPDEST PUSH1 0x24 CALLDATALOAD SWAP1 PUSH20 0xFFFFFFFFFFFFFFFFFFFFFFFFFFFFFFFFFFFFFFFF DUP3 AND DUP3 SUB PUSH2 0x219 JUMPI JUMP JUMPDEST SWAP2 DUP2 PUSH1 0x1F DUP5 ADD SLT ISZERO PUSH2 0x219 JUMPI DUP3 CALLDATALOAD SWAP2 PUSH8 0xFFFFFFFFFFFFFFFF DUP4 GT PUSH2 0x219 JUMPI PUSH1 0x20 DUP4 DUP2 DUP7 ADD SWAP6 ADD ADD GT PUSH2 0x219 JUMPI JUMP JUMPDEST SWAP1 PUSH1 0x40 PUSH32 0xFFFFFFFFFFFFFFFFFFFFFFFFFFFFFFFFFFFFFFFFFFFFFFFFFFFFFFFFFFFFFFFC DUP4 ADD SLT PUSH2 0x219 JUMPI PUSH1 0x4 CALLDATALOAD SWAP2 PUSH1 0x24 CALLDATALOAD SWAP1 PUSH8 0xFFFFFFFFFFFFFFFF DUP3 GT PUSH2 0x219 JUMPI PUSH2 0x1ACA SWAP2 PUSH1 0x4 ADD PUSH2 0x1A4E JUMP JUMPDEST SWAP1 SWAP2 JUMP JUMPDEST PUSH32 0xFFFFFFFFFFFFFFFFFFFFFFFFFFFFFFFFFFFFFFFFFFFFFFFFFFFFFFFFFFFFFFFC PUSH1 0x60 SWAP2 ADD SLT PUSH2 0x219 JUMPI PUSH1 0x4 CALLDATALOAD PUSH20 0xFFFFFFFFFFFFFFFFFFFFFFFFFFFFFFFFFFFFFFFF DUP2 AND DUP2 SUB PUSH2 0x219 JUMPI SWAP1 PUSH1 0x24 CALLDATALOAD PUSH20 0xFFFFFFFFFFFFFFFFFFFFFFFFFFFFFFFFFFFFFFFF DUP2 AND DUP2 SUB PUSH2 0x219 JUMPI SWAP1 PUSH1 0x44 CALLDATALOAD SWAP1 JUMP JUMPDEST SWAP1 PUSH1 0x1F PUSH32 0xFFFFFFFFFFFFFFFFFFFFFFFFFFFFFFFFFFFFFFFFFFFFFFFFFFFFFFFFFFFFFFE0 SWAP2 ADD AND DUP2 ADD SWAP1 DUP2 LT PUSH8 0xFFFFFFFFFFFFFFFF DUP3 GT OR PUSH2 0xB2B JUMPI PUSH1 0x40 MSTORE JUMP JUMPDEST PUSH8 0xFFFFFFFFFFFFFFFF DUP2 GT PUSH2 0xB2B JUMPI PUSH1 0x1F ADD PUSH32 0xFFFFFFFFFFFFFFFFFFFFFFFFFFFFFFFFFFFFFFFFFFFFFFFFFFFFFFFFFFFFFFE0 AND PUSH1 0x20 ADD SWAP1 JUMP JUMPDEST SWAP3 SWAP2 SWAP3 PUSH2 0x1BC7 DUP3 PUSH2 0x1B81 JUMP JUMPDEST SWAP2 PUSH2 0x1BD5 PUSH1 0x40 MLOAD SWAP4 DUP5 PUSH2 0x1B40 JUMP JUMPDEST DUP3 SWAP5 DUP2 DUP5 MSTORE DUP2 DUP4 ADD GT PUSH2 0x219 JUMPI DUP3 DUP2 PUSH1 0x20 SWAP4 DUP5 PUSH0 SWAP7 ADD CALLDATACOPY ADD ADD MSTORE JUMP JUMPDEST SWAP1 PUSH1 0x1 DUP3 DUP2 SHR SWAP3 AND DUP1 ISZERO PUSH2 0x1C38 JUMPI JUMPDEST PUSH1 0x20 DUP4 LT EQ PUSH2 0x1C0B JUMPI JUMP JUMPDEST PUSH32 0x4E487B7100000000000000000000000000000000000000000000000000000000 PUSH0 MSTORE PUSH1 0x22 PUSH1 0x4 MSTORE PUSH1 0x24 PUSH0 REVERT JUMPDEST SWAP2 PUSH1 0x7F AND SWAP2 PUSH2 0x1C00 JUMP JUMPDEST PUSH1 0x1F DUP3 PUSH1 0x20 SWAP5 SWAP4 PUSH32 0xFFFFFFFFFFFFFFFFFFFFFFFFFFFFFFFFFFFFFFFFFFFFFFFFFFFFFFFFFFFFFFE0 SWAP4 DUP2 DUP7 MSTORE DUP7 DUP7 ADD CALLDATACOPY PUSH0 DUP6 DUP3 DUP7 ADD ADD MSTORE ADD AND ADD ADD SWAP1 JUMP JUMPDEST PUSH32 0xFFFFFFFFFFFFFFFFFFFFFFFFFFFFFFFFFFFFFFFFFFFFFFFFFFFFFFFFFFFFFFFF DUP2 EQ PUSH2 0x1CAD JUMPI PUSH1 0x1 ADD SWAP1 JUMP JUMPDEST PUSH32 0x4E487B7100000000000000000000000000000000000000000000000000000000 PUSH0 MSTORE PUSH1 0x11 PUSH1 0x4 MSTORE PUSH1 0x24 PUSH0 REVERT JUMPDEST SWAP2 SWAP1 PUSH20 0xFFFFFFFFFFFFFFFFFFFFFFFFFFFFFFFFFFFFFFFF AND DUP1 ISZERO PUSH2 0x1F87 JUMPI PUSH0 DUP3 DUP2 MSTORE PUSH1 0x2 PUSH1 0x20 MSTORE PUSH1 0x40 SWAP1 KECCAK256 SLOAD PUSH20 0xFFFFFFFFFFFFFFFFFFFFFFFFFFFFFFFFFFFFFFFF AND SWAP3 CALLER ISZERO ISZERO SWAP2 DUP5 SWAP1 DUP5 SWAP1 DUP5 PUSH2 0x1E9C JUMPI JUMPDEST PUSH20 0xFFFFFFFFFFFFFFFFFFFFFFFFFFFFFFFFFFFFFFFF SWAP5 POP DUP7 PUSH2 0x1E2E JUMPI JUMPDEST DUP1 PUSH0 MSTORE PUSH1 0x3 PUSH1 0x20 MSTORE PUSH1 0x40 PUSH0 KECCAK256 PUSH1 0x1 DUP2 SLOAD ADD SWAP1 SSTORE DUP2 PUSH0 MSTORE PUSH1 0x2 PUSH1 0x20 MSTORE PUSH1 0x40 PUSH0 KECCAK256 DUP2 PUSH32 0xFFFFFFFFFFFFFFFFFFFFFFFF0000000000000000000000000000000000000000 DUP3 SLOAD AND OR SWAP1 SSTORE DUP7 PUSH32 0xDDF252AD1BE2C89B69C2B068FC378DAA952BA7F163C4A11628F55A4DF523B3EF PUSH0 DUP1 LOG4 PUSH2 0x1DF7 JUMPI JUMPDEST AND DUP1 DUP4 SUB PUSH2 0x1DC6 JUMPI POP POP POP JUMP JUMPDEST PUSH32 0x64283D7B00000000000000000000000000000000000000000000000000000000 PUSH0 MSTORE PUSH1 0x4 MSTORE PUSH1 0x24 MSTORE PUSH1 0x44 MSTORE PUSH1 0x64 PUSH0 REVERT JUMPDEST DUP3 PUSH0 MSTORE PUSH1 0x9 PUSH1 0x20 MSTORE PUSH1 0x40 PUSH0 KECCAK256 PUSH32 0xFFFFFFFFFFFFFFFFFFFFFFFF0000000000000000000000000000000000000000 DUP2 SLOAD AND SWAP1 SSTORE PUSH2 0x1DB9 JUMP JUMPDEST PUSH2 0x1E65 DUP3 PUSH0 MSTORE PUSH1 0x4 PUSH1 0x20 MSTORE PUSH1 0x40 PUSH0 KECCAK256 PUSH32 0xFFFFFFFFFFFFFFFFFFFFFFFF0000000000000000000000000000000000000000 DUP2 SLOAD AND SWAP1 SSTORE JUMP JUMPDEST DUP7 PUSH0 MSTORE PUSH1 0x3 PUSH1 0x20 MSTORE PUSH1 0x40 PUSH0 KECCAK256 PUSH32 0xFFFFFFFFFFFFFFFFFFFFFFFFFFFFFFFFFFFFFFFFFFFFFFFFFFFFFFFFFFFFFFFF DUP2 SLOAD ADD SWAP1 SSTORE PUSH2 0x1D48 JUMP JUMPDEST SWAP2 SWAP3 SWAP4 DUP1 SWAP2 POP SWAP1 PUSH2 0x1F16 JUMPI JUMPDEST ISZERO PUSH2 0x1EB6 JUMPI SWAP1 DUP4 DUP4 SWAP3 PUSH2 0x1D2B JUMP JUMPDEST DUP4 DUP6 PUSH2 0x1EE7 JUMPI PUSH32 0x7E27328900000000000000000000000000000000000000000000000000000000 PUSH0 MSTORE PUSH1 0x4 MSTORE PUSH1 0x24 PUSH0 REVERT JUMPDEST PUSH32 0x177E802F00000000000000000000000000000000000000000000000000000000 PUSH0 MSTORE CALLER PUSH1 0x4 MSTORE PUSH1 0x24 MSTORE PUSH1 0x44 PUSH0 REVERT JUMPDEST POP CALLER DUP6 EQ DUP1 ISZERO PUSH2 0x1F51 JUMPI JUMPDEST DUP1 PUSH2 0x1EA8 JUMPI POP DUP4 PUSH0 MSTORE PUSH1 0x4 PUSH1 0x20 MSTORE CALLER PUSH20 0xFFFFFFFFFFFFFFFFFFFFFFFFFFFFFFFFFFFFFFFF PUSH1 0x40 PUSH0 KECCAK256 SLOAD AND EQ PUSH2 0x1EA8 JUMP JUMPDEST POP DUP5 PUSH0 MSTORE PUSH1 0x5 PUSH1 0x20 MSTORE PUSH1 0x40 PUSH0 KECCAK256 PUSH20 0xFFFFFFFFFFFFFFFFFFFFFFFFFFFFFFFFFFFFFFFF CALLER AND PUSH0 MSTORE PUSH1 0x20 MSTORE PUSH1 0xFF PUSH1 0x40 PUSH0 KECCAK256 SLOAD AND PUSH2 0x1F21 JUMP JUMPDEST PUSH32 0x64A0AE9200000000000000000000000000000000000000000000000000000000 PUSH0 MSTORE PUSH0 PUSH1 0x4 MSTORE PUSH1 0x24 PUSH0 REVERT JUMPDEST PUSH1 0x40 MLOAD SWAP1 PUSH2 0x1FC2 PUSH1 0x40 DUP4 PUSH2 0x1B40 JUMP JUMPDEST PUSH1 0xB DUP3 MSTORE PUSH32 0x6167656E7457616C6C6574000000000000000000000000000000000000000000 PUSH1 0x20 DUP4 ADD MSTORE JUMP JUMPDEST PUSH1 0x20 SWAP2 SWAP3 DUP4 PUSH1 0x40 MLOAD SWAP5 DUP6 SWAP4 DUP5 CALLDATACOPY DUP3 ADD SWAP1 DUP2 MSTORE SUB ADD SWAP1 KECCAK256 SWAP1 JUMP JUMPDEST PUSH1 0x1F DUP3 GT PUSH2 0x2014 JUMPI POP POP POP JUMP JUMPDEST PUSH0 MSTORE PUSH1 0x20 PUSH0 KECCAK256 SWAP1 PUSH1 0x20 PUSH1 0x1F DUP5 ADD PUSH1 0x5 SHR DUP4 ADD SWAP4 LT PUSH2 0x204C JUMPI JUMPDEST PUSH1 0x1F ADD PUSH1 0x5 SHR ADD SWAP1 JUMPDEST DUP2 DUP2 LT PUSH2 0x2041 JUMPI POP POP JUMP JUMPDEST PUSH0 DUP2 SSTORE PUSH1 0x1 ADD PUSH2 0x2036 JUMP JUMPDEST SWAP1 SWAP2 POP DUP2 SWAP1 PUSH2 0x202D JUMP JUMPDEST SWAP3 SWAP1 PUSH2 0x206F SWAP1 PUSH2 0x207D SWAP6 SWAP4 PUSH1 0x40 DUP7 MSTORE PUSH1 0x40 DUP7 ADD SWAP2 PUSH2 0x1C42 JUMP JUMPDEST SWAP3 PUSH1 0x20 DUP2 DUP6 SUB SWAP2 ADD MSTORE PUSH2 0x1C42 JUMP JUMPDEST SWAP1 JUMP JUMPDEST SWAP2 SWAP1 DUP2 LT ISZERO PUSH2 0x20C0 JUMPI PUSH1 0x5 SHL DUP2 ADD CALLDATALOAD SWAP1 PUSH32 0xFFFFFFFFFFFFFFFFFFFFFFFFFFFFFFFFFFFFFFFFFFFFFFFFFFFFFFFFFFFFFFC1 DUP2 CALLDATASIZE SUB ADD DUP3 SLT ISZERO PUSH2 0x219 JUMPI ADD SWAP1 JUMP JUMPDEST PUSH32 0x4E487B7100000000000000000000000000000000000000000000000000000000 PUSH0 MSTORE PUSH1 0x32 PUSH1 0x4 MSTORE PUSH1 0x24 PUSH0 REVERT JUMPDEST SWAP1 CALLDATALOAD SWAP1 PUSH32 0xFFFFFFFFFFFFFFFFFFFFFFFFFFFFFFFFFFFFFFFFFFFFFFFFFFFFFFFFFFFFFFE1 DUP2 CALLDATASIZE SUB ADD DUP3 SLT ISZERO PUSH2 0x219 JUMPI ADD DUP1 CALLDATALOAD SWAP1 PUSH8 0xFFFFFFFFFFFFFFFF DUP3 GT PUSH2 0x219 JUMPI PUSH1 0x20 ADD SWAP2 DUP2 CALLDATASIZE SUB DUP4 SGT PUSH2 0x219 JUMPI JUMP JUMPDEST SWAP1 PUSH2 0x214A DUP4 DUP3 DUP5 PUSH2 0x1CDA JUMP JUMPDEST DUP1 EXTCODESIZE PUSH2 0x2157 JUMPI JUMPDEST POP POP POP POP JUMP JUMPDEST PUSH1 0x20 SWAP2 PUSH2 0x21C3 PUSH20 0xFFFFFFFFFFFFFFFFFFFFFFFFFFFFFFFFFFFFFFFF DUP1 SWAP4 AND SWAP6 PUSH1 0x40 MLOAD SWAP6 DUP7 SWAP5 DUP6 SWAP5 PUSH32 0x150B7A0200000000000000000000000000000000000000000000000000000000 DUP7 MSTORE CALLER PUSH1 0x4 DUP8 ADD MSTORE AND PUSH1 0x24 DUP6 ADD MSTORE PUSH1 0x44 DUP5 ADD MSTORE PUSH1 0x80 PUSH1 0x64 DUP5 ADD MSTORE PUSH1 0x84 DUP4 ADD SWAP1 PUSH2 0x19C5 JUMP JUMPDEST SUB DUP2 PUSH0 DUP7 GAS CALL PUSH0 SWAP2 DUP2 PUSH2 0x22BD JUMPI JUMPDEST POP PUSH2 0x223F JUMPI POP RETURNDATASIZE ISZERO PUSH2 0x2238 JUMPI RETURNDATASIZE PUSH2 0x21E7 DUP2 PUSH2 0x1B81 JUMP JUMPDEST SWAP1 PUSH2 0x21F5 PUSH1 0x40 MLOAD SWAP3 DUP4 PUSH2 0x1B40 JUMP JUMPDEST DUP2 MSTORE RETURNDATASIZE PUSH0 PUSH1 0x20 DUP4 ADD RETURNDATACOPY JUMPDEST DUP1 MLOAD SWAP1 DUP2 PUSH2 0x2233 JUMPI DUP3 PUSH32 0x64A0AE9200000000000000000000000000000000000000000000000000000000 PUSH0 MSTORE PUSH1 0x4 MSTORE PUSH1 0x24 PUSH0 REVERT JUMPDEST PUSH1 0x20 ADD REVERT JUMPDEST PUSH1 0x60 PUSH2 0x21FF JUMP JUMPDEST PUSH32 0xFFFFFFFF00000000000000000000000000000000000000000000000000000000 PUSH32 0x150B7A0200000000000000000000000000000000000000000000000000000000 SWAP2 AND SUB PUSH2 0x2292 JUMPI POP PUSH0 DUP1 DUP1 DUP1 PUSH2 0x2151 JUMP JUMPDEST PUSH32 0x64A0AE9200000000000000000000000000000000000000000000000000000000 PUSH0 MSTORE PUSH1 0x4 MSTORE PUSH1 0x24 PUSH0 REVERT JUMPDEST SWAP1 SWAP2 POP PUSH1 0x20 DUP2 RETURNDATASIZE PUSH1 0x20 GT PUSH2 0x2312 JUMPI JUMPDEST DUP2 PUSH2 0x22D9 PUSH1 0x20 SWAP4 DUP4 PUSH2 0x1B40 JUMP JUMPDEST DUP2 ADD SUB SLT PUSH2 0x219 JUMPI MLOAD PUSH32 0xFFFFFFFF00000000000000000000000000000000000000000000000000000000 DUP2 AND DUP2 SUB PUSH2 0x219 JUMPI SWAP1 PUSH0 PUSH2 0x21D1 JUMP JUMPDEST RETURNDATASIZE SWAP2 POP PUSH2 0x22CC JUMP JUMPDEST DUP1 PUSH0 MSTORE PUSH1 0x2 PUSH1 0x20 MSTORE PUSH20 0xFFFFFFFFFFFFFFFFFFFFFFFFFFFFFFFFFFFFFFFF PUSH1 0x40 PUSH0 KECCAK256 SLOAD AND SWAP1 DUP2 ISZERO PUSH2 0x2348 JUMPI POP SWAP1 JUMP JUMPDEST PUSH32 0x7E27328900000000000000000000000000000000000000000000000000000000 PUSH0 MSTORE PUSH1 0x4 MSTORE PUSH1 0x24 PUSH0 REVERT JUMPDEST SWAP2 SWAP1 SWAP2 DUP1 PUSH0 MSTORE PUSH1 0x6 PUSH1 0x20 MSTORE PUSH1 0x40 PUSH0 KECCAK256 DUP4 MLOAD PUSH8 0xFFFFFFFFFFFFFFFF DUP2 GT PUSH2 0xB2B JUMPI PUSH2 0x23A7 DUP2 PUSH2 0x23A1 DUP5 SLOAD PUSH2 0x1BF1 JUMP JUMPDEST DUP5 PUSH2 0x2007 JUMP JUMPDEST PUSH1 0x20 PUSH1 0x1F DUP3 GT PUSH1 0x1 EQ PUSH2 0x2430 JUMPI DUP2 PUSH1 0x20 SWAP5 SWAP4 SWAP3 PUSH2 0x2419 SWAP3 PUSH32 0xF8E1A15ABA9398E019F0B49DF1A4FDE98EE17AE345CB5F6B5E2C27F5033E8CE7 SWAP8 SWAP9 PUSH0 SWAP3 PUSH2 0x2425 JUMPI POP POP PUSH32 0xFFFFFFFFFFFFFFFFFFFFFFFFFFFFFFFFFFFFFFFFFFFFFFFFFFFFFFFFFFFFFFFF DUP3 PUSH1 0x1 SHL SWAP3 PUSH1 0x3 SHL SHR NOT AND OR SWAP1 JUMP JUMPDEST SWAP1 SSTORE JUMPDEST PUSH1 0x40 MLOAD SWAP1 DUP2 MSTORE LOG1 JUMP JUMPDEST ADD MLOAD SWAP1 POP PUSH0 DUP1 PUSH2 0x9C6 JUMP JUMPDEST PUSH32 0xFFFFFFFFFFFFFFFFFFFFFFFFFFFFFFFFFFFFFFFFFFFFFFFFFFFFFFFFFFFFFFE0 DUP3 AND SWAP6 DUP4 PUSH0 MSTORE DUP2 PUSH0 KECCAK256 SWAP7 PUSH0 JUMPDEST DUP2 DUP2 LT PUSH2 0x24DD JUMPI POP SWAP7 PUSH1 0x1 SWAP3 DUP5 SWAP3 PUSH1 0x20 SWAP8 SWAP7 SWAP6 PUSH32 0xF8E1A15ABA9398E019F0B49DF1A4FDE98EE17AE345CB5F6B5E2C27F5033E8CE7 SWAP10 SWAP11 LT PUSH2 0x24A6 JUMPI JUMPDEST POP POP POP DUP2 SHL ADD SWAP1 SSTORE PUSH2 0x241C JUMP JUMPDEST ADD MLOAD PUSH32 0xFFFFFFFFFFFFFFFFFFFFFFFFFFFFFFFFFFFFFFFFFFFFFFFFFFFFFFFFFFFFFFFF PUSH1 0xF8 DUP5 PUSH1 0x3 SHL AND SHR NOT AND SWAP1 SSTORE PUSH0 DUP1 DUP1 PUSH2 0x2499 JUMP JUMPDEST DUP4 DUP4 ADD MLOAD DUP10 SSTORE PUSH1 0x1 SWAP1 SWAP9 ADD SWAP8 PUSH1 0x20 SWAP4 DUP5 ADD SWAP4 ADD PUSH2 0x245D JUMP JUMPDEST PUSH20 0xFFFFFFFFFFFFFFFFFFFFFFFFFFFFFFFFFFFFFFFF AND SWAP1 DUP2 ISZERO PUSH2 0x1F87 JUMPI PUSH0 DUP2 DUP2 MSTORE PUSH1 0x2 PUSH1 0x20 MSTORE PUSH1 0x40 SWAP1 KECCAK256 SLOAD PUSH20 0xFFFFFFFFFFFFFFFFFFFFFFFFFFFFFFFFFFFFFFFF AND DUP1 ISZERO ISZERO SWAP3 SWAP1 SWAP2 SWAP1 DUP3 SWAP1 DUP3 SWAP1 DUP6 PUSH2 0x2623 JUMPI JUMPDEST DUP1 PUSH0 MSTORE PUSH1 0x3 PUSH1 0x20 MSTORE PUSH1 0x40 PUSH0 KECCAK256 PUSH1 0x1 DUP2 SLOAD ADD SWAP1 SSTORE DUP2 PUSH0 MSTORE PUSH1 0x2 PUSH1 0x20 MSTORE PUSH1 0x40 PUSH0 KECCAK256 DUP2 PUSH32 0xFFFFFFFFFFFFFFFFFFFFFFFF0000000000000000000000000000000000000000 DUP3 SLOAD AND OR SWAP1 SSTORE DUP5 PUSH32 0xDDF252AD1BE2C89B69C2B068FC378DAA952BA7F163C4A11628F55A4DF523B3EF PUSH0 DUP1 LOG4 PUSH2 0x25EC JUMPI JUMPDEST POP POP PUSH2 0x25C0 JUMPI JUMP JUMPDEST PUSH32 0x73C6AC6E00000000000000000000000000000000000000000000000000000000 PUSH0 MSTORE PUSH0 PUSH1 0x4 MSTORE PUSH1 0x24 PUSH0 REVERT JUMPDEST PUSH0 MSTORE PUSH1 0x9 PUSH1 0x20 MSTORE PUSH1 0x40 PUSH0 KECCAK256 PUSH32 0xFFFFFFFFFFFFFFFFFFFFFFFF0000000000000000000000000000000000000000 DUP2 SLOAD AND SWAP1 SSTORE PUSH0 PUSH2 0x25B8 JUMP JUMPDEST PUSH2 0x265A DUP3 PUSH0 MSTORE PUSH1 0x4 PUSH1 0x20 MSTORE PUSH1 0x40 PUSH0 KECCAK256 PUSH32 0xFFFFFFFFFFFFFFFFFFFFFFFF0000000000000000000000000000000000000000 DUP2 SLOAD AND SWAP1 SSTORE JUMP JUMPDEST DUP5 PUSH0 MSTORE PUSH1 0x3 PUSH1 0x20 MSTORE PUSH1 0x40 PUSH0 KECCAK256 PUSH32 0xFFFFFFFFFFFFFFFFFFFFFFFFFFFFFFFFFFFFFFFFFFFFFFFFFFFFFFFFFFFFFFFF DUP2 SLOAD ADD SWAP1 SSTORE PUSH2 0x2547 JUMP JUMPDEST PUSH20 0xFFFFFFFFFFFFFFFFFFFFFFFFFFFFFFFFFFFFFFFF PUSH1 0x7 SLOAD AND CALLER SUB PUSH2 0xFDF JUMPI JUMP JUMPDEST PUSH2 0x26BB DUP2 PUSH2 0x231A JUMP JUMPDEST POP PUSH1 0x20 SWAP1 PUSH1 0x40 MLOAD PUSH2 0x26CC DUP4 DUP3 PUSH2 0x1B40 JUMP JUMPDEST PUSH0 DUP2 MSTORE DUP2 PUSH0 MSTORE PUSH1 0x6 DUP4 MSTORE PUSH1 0x40 PUSH0 KECCAK256 PUSH1 0x40 MLOAD PUSH0 SWAP2 DUP2 DUP2 SLOAD SWAP4 PUSH2 0x26EC DUP6 PUSH2 0x1BF1 JUMP JUMPDEST SWAP3 DUP4 DUP4 MSTORE DUP9 DUP4 ADD SWAP6 DUP10 PUSH1 0x1 DUP3 AND SWAP2 DUP3 PUSH0 EQ PUSH2 0x27F1 JUMPI POP POP PUSH1 0x1 EQ PUSH2 0x27B5 JUMPI JUMPDEST POP PUSH2 0x2718 SWAP3 POP SUB DUP3 PUSH2 0x1B40 JUMP JUMPDEST DUP3 MLOAD ISZERO PUSH2 0x27AD JUMPI SWAP1 DUP2 DUP6 SWAP3 MLOAD PUSH2 0x2758 JUMPI POP POP POP POP PUSH2 0x2735 SWAP1 PUSH2 0x231A JUMP JUMPDEST POP PUSH0 PUSH1 0x40 MLOAD PUSH2 0x2744 DUP4 DUP3 PUSH2 0x1B40 JUMP JUMPDEST MSTORE PUSH2 0x2752 PUSH1 0x40 MLOAD SWAP2 DUP3 PUSH2 0x1B40 JUMP JUMPDEST PUSH0 DUP2 MSTORE SWAP1 JUMP JUMPDEST PUSH2 0x207D SWAP5 POP PUSH1 0x40 MLOAD SWAP6 DUP5 DUP8 SWAP6 MLOAD SWAP2 DUP3 SWAP2 ADD DUP6 DUP8 ADD MCOPY DUP5 ADD SWAP1 DUP4 DUP3 ADD SWAP1 PUSH0 DUP3 MSTORE MLOAD SWAP3 DUP4 SWAP2 MCOPY ADD ADD PUSH0 DUP2 MSTORE SUB PUSH32 0xFFFFFFFFFFFFFFFFFFFFFFFFFFFFFFFFFFFFFFFFFFFFFFFFFFFFFFFFFFFFFFE0 DUP2 ADD DUP4 MSTORE DUP3 PUSH2 0x1B40 JUMP JUMPDEST SWAP4 POP POP POP POP SWAP1 JUMP JUMPDEST SWAP2 POP POP PUSH0 MSTORE DUP2 DUP7 DUP1 PUSH0 KECCAK256 PUSH0 SWAP1 JUMPDEST DUP5 DUP3 LT PUSH2 0x27D8 JUMPI POP PUSH2 0x2718 SWAP4 POP DUP3 ADD ADD PUSH0 PUSH2 0x270B JUMP JUMPDEST PUSH1 0x1 SWAP2 SWAP4 POP DUP1 SLOAD DUP4 DUP6 DUP9 ADD ADD MSTORE ADD SWAP2 ADD DUP8 SWAP1 DUP5 SWAP3 PUSH2 0x27C2 JUMP JUMPDEST PUSH32 0xFFFFFFFFFFFFFFFFFFFFFFFFFFFFFFFFFFFFFFFFFFFFFFFFFFFFFFFFFFFFFF00 AND DUP9 MSTORE PUSH2 0x2718 SWAP6 ISZERO ISZERO PUSH1 0x5 SHL DUP6 ADD ADD SWAP3 POP PUSH0 SWAP2 POP PUSH2 0x270B SWAP1 POP JUMP JUMPDEST DUP2 MLOAD SWAP2 SWAP1 PUSH1 0x41 DUP4 SUB PUSH2 0x285D JUMPI PUSH2 0x2856 SWAP3 POP PUSH1 0x20 DUP3 ADD MLOAD SWAP1 PUSH1 0x60 PUSH1 0x40 DUP5 ADD MLOAD SWAP4 ADD MLOAD PUSH0 BYTE SWAP1 PUSH2 0x293F JUMP JUMPDEST SWAP2 SWAP3 SWAP1 SWAP2 SWAP1 JUMP JUMPDEST POP POP PUSH0 SWAP2 PUSH1 0x2 SWAP2 SWAP1 JUMP JUMPDEST PUSH1 0x4 DUP2 LT ISZERO PUSH2 0x2912 JUMPI DUP1 PUSH2 0x2879 JUMPI POP POP JUMP JUMPDEST PUSH1 0x1 DUP2 SUB PUSH2 0x28A9 JUMPI PUSH32 0xF645EEDF00000000000000000000000000000000000000000000000000000000 PUSH0 MSTORE PUSH1 0x4 PUSH0 REVERT JUMPDEST PUSH1 0x2 DUP2 SUB PUSH2 0x28DD JUMPI POP PUSH32 0xFCE698F700000000000000000000000000000000000000000000000000000000 PUSH0 MSTORE PUSH1 0x4 MSTORE PUSH1 0x24 PUSH0 REVERT JUMPDEST PUSH1 0x3 EQ PUSH2 0x28E7 JUMPI POP JUMP JUMPDEST PUSH32 0xD78BCE0C00000000000000000000000000000000000000000000000000000000 PUSH0 MSTORE PUSH1 0x4 MSTORE PUSH1 0x24 PUSH0 REVERT JUMPDEST PUSH32 0x4E487B7100000000000000000000000000000000000000000000000000000000 PUSH0 MSTORE PUSH1 0x21 PUSH1 0x4 MSTORE PUSH1 0x24 PUSH0 REVERT JUMPDEST SWAP2 SWAP1 PUSH32 0x7FFFFFFFFFFFFFFFFFFFFFFFFFFFFFFF5D576E7357A4501DDFE92F46681B20A0 DUP5 GT PUSH2 0x29CE JUMPI SWAP2 PUSH1 0x20 SWAP4 PUSH1 0x80 SWAP3 PUSH1 0xFF PUSH0 SWAP6 PUSH1 0x40 MLOAD SWAP5 DUP6 MSTORE AND DUP7 DUP5 ADD MSTORE PUSH1 0x40 DUP4 ADD MSTORE PUSH1 0x60 DUP3 ADD MSTORE DUP3 DUP1 MSTORE PUSH1 0x1 GAS STATICCALL ISZERO PUSH2 0x29C3 JUMPI PUSH0 MLOAD PUSH20 0xFFFFFFFFFFFFFFFFFFFFFFFFFFFFFFFFFFFFFFFF DUP2 AND ISZERO PUSH2 0x29B9 JUMPI SWAP1 PUSH0 SWAP1 PUSH0 SWAP1 JUMP JUMPDEST POP PUSH0 SWAP1 PUSH1 0x1 SWAP1 PUSH0 SWAP1 JUMP JUMPDEST PUSH1 0x40 MLOAD RETURNDATASIZE PUSH0 DUP3 RETURNDATACOPY RETURNDATASIZE SWAP1 REVERT JUMPDEST POP POP POP PUSH0 SWAP2 PUSH1 0x3 SWAP2 SWAP1 JUMP INVALID LOG2 PUSH5 0x6970667358 0x22 SLT KECCAK256 REVERT CALLDATALOAD 0xC3 EXTCODESIZE 0xC7 SWAP9 MUL 0xD8 0xEB PUSH12 0xFDAF1E9E10280412E13318AA PUSH17 0x4C0E9123315C00CDAA64736F6C63430008 SHR STOP CALLER "},"methodIdentifiers":{"approve(address,uint256)":"095ea7b3","balanceOf(address)":"70a08231","getAgentWallet(uint256)":"00339509","getApproved(uint256)":"081812fc","getMetadata(uint256,string)":"cb4799f2","isApprovedForAll(address,address)":"e985e9c5","name()":"06fdde03","owner()":"8da5cb5b","ownerOf(uint256)":"6352211e","register()":"1aa3a008","register(string)":"f2c298be","register(string,(string,bytes)[])":"8ea42286","renounceOwnership()":"715018a6","safeTransferFrom(address,address,uint256)":"42842e0e","safeTransferFrom(address,address,uint256,bytes)":"b88d4fde","setAgentURI(uint256,string)":"0af28bd3","setAgentWallet(uint256,address,uint256,bytes)":"2d1ef5ae","setApprovalForAll(address,bool)":"a22cb465","setMetadata(uint256,string,bytes)":"466648da","supportsInterface(bytes4)":"01ffc9a7","symbol()":"95d89b41","tokenURI(uint256)":"c87b56dd","transferFrom(address,address,uint256)":"23b872dd","transferOwnership(address)":"f2fde38b","unsetAgentWallet(uint256)":"3fddcf19"}}}}}