{"contracts/ReputationRegistry.sol":{"ReputationRegistry":{"abi":[{"inputs":[],"name":"CallerCannotGiveFeedback","type":"error"},{"inputs":[],"name":"FeedbackAlreadyRevoked","type":"error"},{"inputs":[],"name":"InvalidFeedbackIndex","type":"error"},{"inputs":[],"name":"InvalidValueDecimals","type":"error"},{"inputs":[],"name":"RegistryAlreadyInitialized","type":"error"},{"anonymous":false,"inputs":[{"indexed":true,"internalType":"uint256","name":"agentId","type":"uint256"},{"indexed":true,"internalType":"address","name":"clientAddress","type":"address"},{"indexed":true,"internalType":"uint64","name":"feedbackIndex","type":"uint64"}],"name":"FeedbackRevoked","type":"event"},{"anonymous":false,"inputs":[{"indexed":true,"internalType":"uint256","name":"agentId","type":"uint256"},{"indexed":true,"internalType":"address","name":"clientAddress","type":"address"},{"indexed":false,"internalType":"uint64","name":"feedbackIndex","type":"uint64"},{"indexed":false,"internalType":"int128","name":"value","type":"int128"},{"indexed":false,"internalType":"uint8","name":"valueDecimals","type":"uint8"},{"indexed":true,"internalType":"string","name":"indexedTag1","type":"string"},{"indexed":false,"internalType":"string","name":"tag1","type":"string"},{"indexed":false,"internalType":"string","name":"tag2","type":"string"},{"indexed":false,"internalType":"string","name":"endpoint","type":"string"},{"indexed":false,"internalType":"string","name":"feedbackURI","type":"string"},{"indexed":false,"internalType":"bytes32","name":"feedbackHash","type":"bytes32"}],"name":"NewFeedback","type":"event"},{"anonymous":false,"inputs":[{"indexed":true,"internalType":"uint256","name":"agentId","type":"uint256"},{"indexed":true,"internalType":"address","name":"clientAddress","type":"address"},{"indexed":false,"internalType":"uint64","name":"feedbackIndex","type":"uint64"},{"indexed":true,"internalType":"address","name":"responder","type":"address"},{"indexed":false,"internalType":"string","name":"responseURI","type":"string"},{"indexed":false,"internalType":"bytes32","name":"responseHash","type":"bytes32"}],"name":"ResponseAppended","type":"event"},{"inputs":[{"internalType":"uint256","name":"agentId","type":"uint256"},{"internalType":"address","name":"clientAddress","type":"address"},{"internalType":"uint64","name":"feedbackIndex","type":"uint64"},{"internalType":"string","name":"responseURI","type":"string"},{"internalType":"bytes32","name":"responseHash","type":"bytes32"}],"name":"appendResponse","outputs":[],"stateMutability":"nonpayable","type":"function"},{"inputs":[{"internalType":"uint256","name":"agentId","type":"uint256"}],"name":"getActiveFeedbackCount","outputs":[{"internalType":"uint64","name":"","type":"uint64"}],"stateMutability":"view","type":"function"},{"inputs":[{"internalType":"uint256","name":"agentId","type":"uint256"},{"internalType":"address[]","name":"clientAddresses","type":"address[]"},{"internalType":"string","name":"tag1","type":"string"},{"internalType":"string","name":"tag2","type":"string"}],"name":"getSummary","outputs":[{"internalType":"uint64","name":"count","type":"uint64"},{"internalType":"int128","name":"summaryValue","type":"int128"},{"internalType":"uint8","name":"summaryValueDecimals","type":"uint8"}],"stateMutability":"view","type":"function"},{"inputs":[{"internalType":"uint256","name":"agentId","type":"uint256"},{"internalType":"int128","name":"value","type":"int128"},{"internalType":"uint8","name":"valueDecimals","type":"uint8"},{"internalType":"string","name":"tag1","type":"string"},{"internalType":"string","name":"tag2","type":"string"},{"internalType":"string","name":"endpoint","type":"string"},{"internalType":"string","name":"feedbackURI","type":"string"},{"internalType":"bytes32","name":"feedbackHash","type":"bytes32"}],"name":"giveFeedback","outputs":[],"stateMutability":"nonpayable","type":"function"},{"inputs":[],"name":"identityRegistry","outputs":[{"internalType":"address","name":"","type":"address"}],"stateMutability":"view","type":"function"},{"inputs":[{"internalType":"address","name":"identityRegistry_","type":"address"}],"name":"initialize","outputs":[],"stateMutability":"nonpayable","type":"function"},{"inputs":[{"internalType":"uint256","name":"agentId","type":"uint256"},{"internalType":"address","name":"clientAddress","type":"address"},{"internalType":"uint64","name":"feedbackIndex","type":"uint64"}],"name":"readFeedback","outputs":[{"internalType":"int128","name":"value","type":"int128"},{"internalType":"uint8","name":"valueDecimals","type":"uint8"},{"internalType":"string","name":"tag1","type":"string"},{"internalType":"string","name":"tag2","type":"string"},{"internalType":"bool","name":"isRevoked","type":"bool"}],"stateMutability":"view","type":"function"},{"inputs":[{"internalType":"uint256","name":"agentId","type":"uint256"},{"internalType":"uint64","name":"feedbackIndex","type":"uint64"}],"name":"revokeFeedback","outputs":[],"stateMutability":"nonpayable","type":"function"}],"evm":{"bytecode":{"linkReferences":{},"object":"608080604052346015576115b5908161001a8239f35b5f80fdfe6080806040526004361015610012575f80fd5b5f3560e01c908163134e18f41461104a57508063232b081014610f115780633c036a7e146107855780634ab3ca99146105ed57806381bbba581461032c578063c2349ab2146101ea578063c4d66de8146100ca5763e0596b2a14610074575f80fd5b346100c65760207ffffffffffffffffffffffffffffffffffffffffffffffffffffffffffffffffc3601126100c6576004355f526002602052602067ffffffffffffffff60405f205416604051908152f35b5f80fd5b346100c65760207ffffffffffffffffffffffffffffffffffffffffffffffffffffffffffffffffc3601126100c65760043573ffffffffffffffffffffffffffffffffffffffff81168091036100c6575f5473ffffffffffffffffffffffffffffffffffffffff81166101c2578115610164577fffffffffffffffffffffffff000000000000000000000000000000000000000016175f55005b60646040517f08c379a000000000000000000000000000000000000000000000000000000000815260206004820152601860248201527f696e76616c6964207265676973747279206164647265737300000000000000006044820152fd5b7fe45872b6000000000000000000000000000000000000000000000000000000005f5260045ffd5b346100c65760a07ffffffffffffffffffffffffffffffffffffffffffffffffffffffffffffffffc3601126100c657600435610224611097565b9061022d6110ba565b906064359167ffffffffffffffff83116100c65761025867ffffffffffffffff933690600401611114565b9390911692831580156102f7575b6102cf577fb1c6be0b5b8aef6539e2fac0fd131a2faa7b49edf8e505b5eb0ad487d56051d4916102a7916040519586526060602087015260608601916113a6565b9260843560408201528073ffffffffffffffffffffffffffffffffffffffff339616940390a4005b7f311f7a38000000000000000000000000000000000000000000000000000000005f5260045ffd5b50825f52600160205260405f2073ffffffffffffffffffffffffffffffffffffffff86165f5260205260405f20548411610266565b346100c65760807ffffffffffffffffffffffffffffffffffffffffffffffffffffffffffffffffc3601126100c65767ffffffffffffffff602435116100c6573660236024350112156100c6576024356004013567ffffffffffffffff81116100c6573660248260051b81350101116100c65760443567ffffffffffffffff81116100c6576103bf903690600401611114565b60649291923567ffffffffffffffff81116100c6576103e2903690600401611114565b90935f5f955f9385151591811515925f965f5b8a8110156105c6576004355f52600160205260405f2060248260051b813501013573ffffffffffffffffffffffffffffffffffffffff811681036100c65773ffffffffffffffffffffffffffffffffffffffff165f5260205260405f205f908054915b82811061046a575050506001016103f5565b6104748183611181565b50998d60ff60038d0154166105bb5787908d8d83610589575b50505061055257898061055c575b610552576104a890611387565b99549e8f6f7fffffffffffffffffffffffffffffff7fffffffffffffffffffffffffffffffff8000000000000000000000000000000082600f0b84600f0b011291600f0b83600f0b011317610525578f600f0b90600f0b019e8c15610513575b506001905b01610458565b60019c5060801c60ff1694508b610508565b7f4e487b71000000000000000000000000000000000000000000000000000000005f52601160045260245ffd5b995060019061050d565b5061056960028c01611259565b6020815191012061057b368b8b611351565b60208151910120141561049b565b6105aa929350600161059b9101611259565b60208151910120923691611351565b6020815191012014158e8d8d61048d565b50995060019061050d565b60608760ff848f67ffffffffffffffff60405194168452600f0b6020840152166040820152f35b346100c65760407ffffffffffffffffffffffffffffffffffffffffffffffffffffffffffffffffc3601126100c6576004356024359067ffffffffffffffff8216918281036100c657815f52600160205260405f2073ffffffffffffffffffffffffffffffffffffffff33165f5260205260405f20908315801561077b575b6102cf5760039161067f61068592611142565b90611181565b5001805460ff8116610753577fffffffffffffffffffffffffffffffffffffffffffffffffffffffffffffff0060019116179055805f52600260205260405f2067ffffffffffffffff8154168015610525577fffffffffffffffffffffffffffffffffffffffffffffffffffffffffffffffff67ffffffffffffffff9101167fffffffffffffffffffffffffffffffffffffffffffffffff000000000000000082541617905533907f25156fd3288212246d8b008d5921fde376c71ed14ac2e072a506eb06fde6d09d5f80a4005b7ff00a0dd0000000000000000000000000000000000000000000000000000000005f5260045ffd5b508154841161066c565b346100c6576101007ffffffffffffffffffffffffffffffffffffffffffffffffffffffffffffffffc3601126100c6576004356024359081600f0b8092036100c6576044359060ff82168092036100c65760643567ffffffffffffffff81116100c6576107f6903690600401611114565b9060843567ffffffffffffffff81116100c657610817903690600401611114565b9060a43567ffffffffffffffff81116100c657610838903690600401611114565b91909260c43567ffffffffffffffff81116100c65761085b903690600401611114565b9590965f8073ffffffffffffffffffffffffffffffffffffffff81541660405160208101907f6352211e0000000000000000000000000000000000000000000000000000000082528d6024820152602481526108b8604482611218565b51915afa6108c46113e4565b81610f05575b5015610ea7576108da338a611413565b610e7f5760128a11610e5757885f52600160205260405f2073ffffffffffffffffffffffffffffffffffffffff33165f5260205260405f20998a549a60018c019b8c8111610525576040519060a0820182811067ffffffffffffffff821117610d05578f9060405282528d6020830185815261095736888a611351565b916040850192835261096a368b8d611351565b936060860194855260808601965f885268010000000000000000821015610d0557610996928155611181565b949094610e2b5751845491517fffffffffffffffffffffffffffffff0000000000000000000000000000000000929092166fffffffffffffffffffffffffffffffff9091161760809190911b70ff0000000000000000000000000000000016178355518051600184019167ffffffffffffffff8211610d05578190610a1b84546111c7565b601f8111610ddb575b50602090601f8311600114610d3d575f92610d32575b50507fffffffffffffffffffffffffffffffffffffffffffffffffffffffffffffffff8260011b9260031b1c19161790555b518051600283019167ffffffffffffffff8211610d0557610a8d83546111c7565b601f8111610cc0575b50602090601f8311600114610c1d576003949392915f9183610c12575b50507fffffffffffffffffffffffffffffffffffffffffffffffffffffffffffffffff8260011b92861b1c19161790555b019051151581547fffffffffffffffffffffffffffffffffffffffffffffffffffffffffffffff00169060ff16179055895f52600260205260405f20805467ffffffffffffffff16610b3590611387565b67ffffffffffffffff1681547fffffffffffffffffffffffffffffffffffffffffffffffff00000000000000001617905560405182848237808381015f81520390209b6040519b67ffffffffffffffff168c5260208c015260408b015260608a0161010090526101008a0190610baa926113a6565b9088820360808a0152610bbc926113a6565b9086820360a0880152610bce926113a6565b9084820360c0860152610be0926113a6565b9160e43560e0820152803393037f6a4a61743519c9d648a14e6493f47dbe3ff1aa29e7785c96c8326a205e58febc91a4005b015190505f80610ab3565b907fffffffffffffffffffffffffffffffffffffffffffffffffffffffffffffffe0831691845f52815f20925f5b818110610ca8575091600193918560039897969410610c72575b505050811b019055610ae4565b01517fffffffffffffffffffffffffffffffffffffffffffffffffffffffffffffffff60f884891b161c191690555f8080610c65565b92936020600181928786015181550195019301610c4b565b835f5260205f20601f840160051c81019160208510610cfb575b601f0160051c01905b818110610cf05750610a96565b5f8155600101610ce3565b9091508190610cda565b7f4e487b71000000000000000000000000000000000000000000000000000000005f52604160045260245ffd5b015190505f80610a3a565b5f858152828120937fffffffffffffffffffffffffffffffffffffffffffffffffffffffffffffffe016905b818110610dc35750908460019594939210610d8c575b505050811b019055610a6c565b01517fffffffffffffffffffffffffffffffffffffffffffffffffffffffffffffffff60f88460031b161c191690555f8080610d7f565b92936020600181928786015181550195019301610d69565b909150835f5260205f20601f840160051c81019160208510610e21575b90601f859493920160051c01905b818110610e135750610a24565b5f8155849350600101610e06565b9091508190610df8565b7f4e487b71000000000000000000000000000000000000000000000000000000005f525f60045260245ffd5b7f565c8a5a000000000000000000000000000000000000000000000000000000005f5260045ffd5b7f45aa09a5000000000000000000000000000000000000000000000000000000005f5260045ffd5b60646040517f08c379a000000000000000000000000000000000000000000000000000000000815260206004820152601460248201527f6167656e7420646f6573206e6f742065786973740000000000000000000000006044820152fd5b6020915051148c6108ca565b346100c65760607ffffffffffffffffffffffffffffffffffffffffffffffffffffffffffffffffc3601126100c657600435610f4b611097565b90610f546110ba565b67ffffffffffffffff81168015908115611014575b506102cf5760ff92610fa9925f52600160205273ffffffffffffffffffffffffffffffffffffffff60405f2091165f5260205261067f60405f2091611142565b508054906110088360038301541691610ffa610fd36002610fcc60018501611259565b9301611259565b9160405196868897600f0b885260801c16602087015260a0604087015260a08601906110d1565b9084820360608601526110d1565b90151560808301520390f35b9050825f52600160205260405f2073ffffffffffffffffffffffffffffffffffffffff85165f5260205260405f20541084610f69565b346100c6575f7ffffffffffffffffffffffffffffffffffffffffffffffffffffffffffffffffc3601126100c65760209073ffffffffffffffffffffffffffffffffffffffff5f54168152f35b6024359073ffffffffffffffffffffffffffffffffffffffff821682036100c657565b6044359067ffffffffffffffff821682036100c657565b907fffffffffffffffffffffffffffffffffffffffffffffffffffffffffffffffe0601f602080948051918291828752018686015e5f8582860101520116010190565b9181601f840112156100c65782359167ffffffffffffffff83116100c657602083818601950101116100c657565b67ffffffffffffffff7fffffffffffffffffffffffffffffffffffffffffffffffffffffffffffffffff9116019067ffffffffffffffff821161052557565b805482101561119a575f5260205f209060021b01905f90565b7f4e487b71000000000000000000000000000000000000000000000000000000005f52603260045260245ffd5b90600182811c9216801561120e575b60208310146111e157565b7f4e487b71000000000000000000000000000000000000000000000000000000005f52602260045260245ffd5b91607f16916111d6565b90601f7fffffffffffffffffffffffffffffffffffffffffffffffffffffffffffffffe0910116810190811067ffffffffffffffff821117610d0557604052565b9060405191825f82549261126c846111c7565b80845293600181169081156112d75750600114611293575b5061129192500383611218565b565b90505f9291925260205f20905f915b8183106112bb575050906020611291928201015f611284565b60209193508060019154838589010152019101909184926112a2565b602093506112919592507fffffffffffffffffffffffffffffffffffffffffffffffffffffffffffffff0091501682840152151560051b8201015f611284565b67ffffffffffffffff8111610d0557601f017fffffffffffffffffffffffffffffffffffffffffffffffffffffffffffffffe01660200190565b92919261135d82611317565b9161136b6040519384611218565b8294818452818301116100c6578281602093845f960137010152565b67ffffffffffffffff1667ffffffffffffffff81146105255760010190565b601f82602094937fffffffffffffffffffffffffffffffffffffffffffffffffffffffffffffffe093818652868601375f8582860101520116010190565b3d1561140e573d906113f582611317565b916114036040519384611218565b82523d5f602084013e565b606090565b5f8073ffffffffffffffffffffffffffffffffffffffff8154169260405160208101917f6352211e00000000000000000000000000000000000000000000000000000000835260248201526024815261146d604482611218565b5190845afa61147a6113e4565b90158015611573575b61156c576020818051810103126100c657602001519173ffffffffffffffffffffffffffffffffffffffff83168093036100c65773ffffffffffffffffffffffffffffffffffffffff1690818314611564575f9283926040519060208201927fe985e9c5000000000000000000000000000000000000000000000000000000008452602483015260448201526044815261151e606482611218565b51915afa61152a6113e4565b81611558575b81611539575090565b90506020818051810103126100c6576020015180151581036100c65790565b80516020149150611530565b505050600190565b5050505f90565b5060208151141561148356fea2646970667358221220e00227ac8b62adfdb34ab1c562d6e05553d504bdf6638c1fbd9b26f10e8fe17064736f6c634300081c0033","opcodes":"PUSH1 0x80 DUP1 PUSH1 0x40 MSTORE CALLVALUE PUSH1 0x15 JUMPI PUSH2 0x15B5 SWAP1 DUP2 PUSH2 0x1A DUP3 CODECOPY RETURN JUMPDEST PUSH0 DUP1 REVERT INVALID PUSH1 0x80 DUP1 PUSH1 0x40 MSTORE PUSH1 0x4 CALLDATASIZE LT ISZERO PUSH2 0x12 JUMPI PUSH0 DUP1 REVERT JUMPDEST PUSH0 CALLDATALOAD PUSH1 0xE0 SHR SWAP1 DUP2 PUSH4 0x134E18F4 EQ PUSH2 0x104A JUMPI POP DUP1 PUSH4 0x232B0810 EQ PUSH2 0xF11 JUMPI DUP1 PUSH4 0x3C036A7E EQ PUSH2 0x785 JUMPI DUP1 PUSH4 0x4AB3CA99 EQ PUSH2 0x5ED JUMPI DUP1 PUSH4 0x81BBBA58 EQ PUSH2 0x32C JUMPI DUP1 PUSH4 0xC2349AB2 EQ PUSH2 0x1EA JUMPI DUP1 PUSH4 0xC4D66DE8 EQ PUSH2 0xCA JUMPI PUSH4 0xE0596B2A EQ PUSH2 0x74 JUMPI PUSH0 DUP1 REVERT JUMPDEST CALLVALUE PUSH2 0xC6 JUMPI PUSH1 0x20 PUSH32 0xFFFFFFFFFFFFFFFFFFFFFFFFFFFFFFFFFFFFFFFFFFFFFFFFFFFFFFFFFFFFFFFC CALLDATASIZE ADD SLT PUSH2 0xC6 JUMPI PUSH1 0x4 CALLDATALOAD PUSH0 MSTORE PUSH1 0x2 PUSH1 0x20 MSTORE PUSH1 0x20 PUSH8 0xFFFFFFFFFFFFFFFF PUSH1 0x40 PUSH0 KECCAK256 SLOAD AND PUSH1 0x40 MLOAD SWAP1 DUP2 MSTORE RETURN JUMPDEST PUSH0 DUP1 REVERT JUMPDEST CALLVALUE PUSH2 0xC6 JUMPI PUSH1 0x20 PUSH32 0xFFFFFFFFFFFFFFFFFFFFFFFFFFFFFFFFFFFFFFFFFFFFFFFFFFFFFFFFFFFFFFFC CALLDATASIZE ADD SLT PUSH2 0xC6 JUMPI PUSH1 0x4 CALLDATALOAD PUSH20 0xFFFFFFFFFFFFFFFFFFFFFFFFFFFFFFFFFFFFFFFF DUP2 AND DUP1 SWAP2 SUB PUSH2 0xC6 JUMPI PUSH0 SLOAD PUSH20 0xFFFFFFFFFFFFFFFFFFFFFFFFFFFFFFFFFFFFFFFF DUP2 AND PUSH2 0x1C2 JUMPI DUP2 ISZERO PUSH2 0x164 JUMPI PUSH32 0xFFFFFFFFFFFFFFFFFFFFFFFF0000000000000000000000000000000000000000 AND OR PUSH0 SSTORE STOP JUMPDEST PUSH1 0x64 PUSH1 0x40 MLOAD PUSH32 0x8C379A000000000000000000000000000000000000000000000000000000000 DUP2 MSTORE PUSH1 0x20 PUSH1 0x4 DUP3 ADD MSTORE PUSH1 0x18 PUSH1 0x24 DUP3 ADD MSTORE PUSH32 0x696E76616C696420726567697374727920616464726573730000000000000000 PUSH1 0x44 DUP3 ADD MSTORE REVERT JUMPDEST PUSH32 0xE45872B600000000000000000000000000000000000000000000000000000000 PUSH0 MSTORE PUSH1 0x4 PUSH0 REVERT JUMPDEST CALLVALUE PUSH2 0xC6 JUMPI PUSH1 0xA0 PUSH32 0xFFFFFFFFFFFFFFFFFFFFFFFFFFFFFFFFFFFFFFFFFFFFFFFFFFFFFFFFFFFFFFFC CALLDATASIZE ADD SLT PUSH2 0xC6 JUMPI PUSH1 0x4 CALLDATALOAD PUSH2 0x224 PUSH2 0x1097 JUMP JUMPDEST SWAP1 PUSH2 0x22D PUSH2 0x10BA JUMP JUMPDEST SWAP1 PUSH1 0x64 CALLDATALOAD SWAP2 PUSH8 0xFFFFFFFFFFFFFFFF DUP4 GT PUSH2 0xC6 JUMPI PUSH2 0x258 PUSH8 0xFFFFFFFFFFFFFFFF SWAP4 CALLDATASIZE SWAP1 PUSH1 0x4 ADD PUSH2 0x1114 JUMP JUMPDEST SWAP4 SWAP1 SWAP2 AND SWAP3 DUP4 ISZERO DUP1 ISZERO PUSH2 0x2F7 JUMPI JUMPDEST PUSH2 0x2CF JUMPI PUSH32 0xB1C6BE0B5B8AEF6539E2FAC0FD131A2FAA7B49EDF8E505B5EB0AD487D56051D4 SWAP2 PUSH2 0x2A7 SWAP2 PUSH1 0x40 MLOAD SWAP6 DUP7 MSTORE PUSH1 0x60 PUSH1 0x20 DUP8 ADD MSTORE PUSH1 0x60 DUP7 ADD SWAP2 PUSH2 0x13A6 JUMP JUMPDEST SWAP3 PUSH1 0x84 CALLDATALOAD PUSH1 0x40 DUP3 ADD MSTORE DUP1 PUSH20 0xFFFFFFFFFFFFFFFFFFFFFFFFFFFFFFFFFFFFFFFF CALLER SWAP7 AND SWAP5 SUB SWAP1 LOG4 STOP JUMPDEST PUSH32 0x311F7A3800000000000000000000000000000000000000000000000000000000 PUSH0 MSTORE PUSH1 0x4 PUSH0 REVERT JUMPDEST POP DUP3 PUSH0 MSTORE PUSH1 0x1 PUSH1 0x20 MSTORE PUSH1 0x40 PUSH0 KECCAK256 PUSH20 0xFFFFFFFFFFFFFFFFFFFFFFFFFFFFFFFFFFFFFFFF DUP7 AND PUSH0 MSTORE PUSH1 0x20 MSTORE PUSH1 0x40 PUSH0 KECCAK256 SLOAD DUP5 GT PUSH2 0x266 JUMP JUMPDEST CALLVALUE PUSH2 0xC6 JUMPI PUSH1 0x80 PUSH32 0xFFFFFFFFFFFFFFFFFFFFFFFFFFFFFFFFFFFFFFFFFFFFFFFFFFFFFFFFFFFFFFFC CALLDATASIZE ADD SLT PUSH2 0xC6 JUMPI PUSH8 0xFFFFFFFFFFFFFFFF PUSH1 0x24 CALLDATALOAD GT PUSH2 0xC6 JUMPI CALLDATASIZE PUSH1 0x23 PUSH1 0x24 CALLDATALOAD ADD SLT ISZERO PUSH2 0xC6 JUMPI PUSH1 0x24 CALLDATALOAD PUSH1 0x4 ADD CALLDATALOAD PUSH8 0xFFFFFFFFFFFFFFFF DUP2 GT PUSH2 0xC6 JUMPI CALLDATASIZE PUSH1 0x24 DUP3 PUSH1 0x5 SHL DUP2 CALLDATALOAD ADD ADD GT PUSH2 0xC6 JUMPI PUSH1 0x44 CALLDATALOAD PUSH8 0xFFFFFFFFFFFFFFFF DUP2 GT PUSH2 0xC6 JUMPI PUSH2 0x3BF SWAP1 CALLDATASIZE SWAP1 PUSH1 0x4 ADD PUSH2 0x1114 JUMP JUMPDEST PUSH1 0x64 SWAP3 SWAP2 SWAP3 CALLDATALOAD PUSH8 0xFFFFFFFFFFFFFFFF DUP2 GT PUSH2 0xC6 JUMPI PUSH2 0x3E2 SWAP1 CALLDATASIZE SWAP1 PUSH1 0x4 ADD PUSH2 0x1114 JUMP JUMPDEST SWAP1 SWAP4 PUSH0 PUSH0 SWAP6 PUSH0 SWAP4 DUP6 ISZERO ISZERO SWAP2 DUP2 ISZERO ISZERO SWAP3 PUSH0 SWAP7 PUSH0 JUMPDEST DUP11 DUP2 LT ISZERO PUSH2 0x5C6 JUMPI PUSH1 0x4 CALLDATALOAD PUSH0 MSTORE PUSH1 0x1 PUSH1 0x20 MSTORE PUSH1 0x40 PUSH0 KECCAK256 PUSH1 0x24 DUP3 PUSH1 0x5 SHL DUP2 CALLDATALOAD ADD ADD CALLDATALOAD PUSH20 0xFFFFFFFFFFFFFFFFFFFFFFFFFFFFFFFFFFFFFFFF DUP2 AND DUP2 SUB PUSH2 0xC6 JUMPI PUSH20 0xFFFFFFFFFFFFFFFFFFFFFFFFFFFFFFFFFFFFFFFF AND PUSH0 MSTORE PUSH1 0x20 MSTORE PUSH1 0x40 PUSH0 KECCAK256 PUSH0 SWAP1 DUP1 SLOAD SWAP2 JUMPDEST DUP3 DUP2 LT PUSH2 0x46A JUMPI POP POP POP PUSH1 0x1 ADD PUSH2 0x3F5 JUMP JUMPDEST PUSH2 0x474 DUP2 DUP4 PUSH2 0x1181 JUMP JUMPDEST POP SWAP10 DUP14 PUSH1 0xFF PUSH1 0x3 DUP14 ADD SLOAD AND PUSH2 0x5BB JUMPI DUP8 SWAP1 DUP14 DUP14 DUP4 PUSH2 0x589 JUMPI JUMPDEST POP POP POP PUSH2 0x552 JUMPI DUP10 DUP1 PUSH2 0x55C JUMPI JUMPDEST PUSH2 0x552 JUMPI PUSH2 0x4A8 SWAP1 PUSH2 0x1387 JUMP JUMPDEST SWAP10 SLOAD SWAP15 DUP16 PUSH16 0x7FFFFFFFFFFFFFFFFFFFFFFFFFFFFFFF PUSH32 0xFFFFFFFFFFFFFFFFFFFFFFFFFFFFFFFF80000000000000000000000000000000 DUP3 PUSH1 0xF SIGNEXTEND DUP5 PUSH1 0xF SIGNEXTEND ADD SLT SWAP2 PUSH1 0xF SIGNEXTEND DUP4 PUSH1 0xF SIGNEXTEND ADD SGT OR PUSH2 0x525 JUMPI DUP16 PUSH1 0xF SIGNEXTEND SWAP1 PUSH1 0xF SIGNEXTEND ADD SWAP15 DUP13 ISZERO PUSH2 0x513 JUMPI JUMPDEST POP PUSH1 0x1 SWAP1 JUMPDEST ADD PUSH2 0x458 JUMP JUMPDEST PUSH1 0x1 SWAP13 POP PUSH1 0x80 SHR PUSH1 0xFF AND SWAP5 POP DUP12 PUSH2 0x508 JUMP JUMPDEST PUSH32 0x4E487B7100000000000000000000000000000000000000000000000000000000 PUSH0 MSTORE PUSH1 0x11 PUSH1 0x4 MSTORE PUSH1 0x24 PUSH0 REVERT JUMPDEST SWAP10 POP PUSH1 0x1 SWAP1 PUSH2 0x50D JUMP JUMPDEST POP PUSH2 0x569 PUSH1 0x2 DUP13 ADD PUSH2 0x1259 JUMP JUMPDEST PUSH1 0x20 DUP2 MLOAD SWAP2 ADD KECCAK256 PUSH2 0x57B CALLDATASIZE DUP12 DUP12 PUSH2 0x1351 JUMP JUMPDEST PUSH1 0x20 DUP2 MLOAD SWAP2 ADD KECCAK256 EQ ISZERO PUSH2 0x49B JUMP JUMPDEST PUSH2 0x5AA SWAP3 SWAP4 POP PUSH1 0x1 PUSH2 0x59B SWAP2 ADD PUSH2 0x1259 JUMP JUMPDEST PUSH1 0x20 DUP2 MLOAD SWAP2 ADD KECCAK256 SWAP3 CALLDATASIZE SWAP2 PUSH2 0x1351 JUMP JUMPDEST PUSH1 0x20 DUP2 MLOAD SWAP2 ADD KECCAK256 EQ ISZERO DUP15 DUP14 DUP14 PUSH2 0x48D JUMP JUMPDEST POP SWAP10 POP PUSH1 0x1 SWAP1 PUSH2 0x50D JUMP JUMPDEST PUSH1 0x60 DUP8 PUSH1 0xFF DUP5 DUP16 PUSH8 0xFFFFFFFFFFFFFFFF PUSH1 0x40 MLOAD SWAP5 AND DUP5 MSTORE PUSH1 0xF SIGNEXTEND PUSH1 0x20 DUP5 ADD MSTORE AND PUSH1 0x40 DUP3 ADD MSTORE RETURN JUMPDEST CALLVALUE PUSH2 0xC6 JUMPI PUSH1 0x40 PUSH32 0xFFFFFFFFFFFFFFFFFFFFFFFFFFFFFFFFFFFFFFFFFFFFFFFFFFFFFFFFFFFFFFFC CALLDATASIZE ADD SLT PUSH2 0xC6 JUMPI PUSH1 0x4 CALLDATALOAD PUSH1 0x24 CALLDATALOAD SWAP1 PUSH8 0xFFFFFFFFFFFFFFFF DUP3 AND SWAP2 DUP3 DUP2 SUB PUSH2 0xC6 JUMPI DUP2 PUSH0 MSTORE PUSH1 0x1 PUSH1 0x20 MSTORE PUSH1 0x40 PUSH0 KECCAK256 PUSH20 0xFFFFFFFFFFFFFFFFFFFFFFFFFFFFFFFFFFFFFFFF CALLER AND PUSH0 MSTORE PUSH1 0x20 MSTORE PUSH1 0x40 PUSH0 KECCAK256 SWAP1 DUP4 ISZERO DUP1 ISZERO PUSH2 0x77B JUMPI JUMPDEST PUSH2 0x2CF JUMPI PUSH1 0x3 SWAP2 PUSH2 0x67F PUSH2 0x685 SWAP3 PUSH2 0x1142 JUMP JUMPDEST SWAP1 PUSH2 0x1181 JUMP JUMPDEST POP ADD DUP1 SLOAD PUSH1 0xFF DUP2 AND PUSH2 0x753 JUMPI PUSH32 0xFFFFFFFFFFFFFFFFFFFFFFFFFFFFFFFFFFFFFFFFFFFFFFFFFFFFFFFFFFFFFF00 PUSH1 0x1 SWAP2 AND OR SWAP1 SSTORE DUP1 PUSH0 MSTORE PUSH1 0x2 PUSH1 0x20 MSTORE PUSH1 0x40 PUSH0 KECCAK256 PUSH8 0xFFFFFFFFFFFFFFFF DUP2 SLOAD AND DUP1 ISZERO PUSH2 0x525 JUMPI PUSH32 0xFFFFFFFFFFFFFFFFFFFFFFFFFFFFFFFFFFFFFFFFFFFFFFFFFFFFFFFFFFFFFFFF PUSH8 0xFFFFFFFFFFFFFFFF SWAP2 ADD AND PUSH32 0xFFFFFFFFFFFFFFFFFFFFFFFFFFFFFFFFFFFFFFFFFFFFFFFF0000000000000000 DUP3 SLOAD AND OR SWAP1 SSTORE CALLER SWAP1 PUSH32 0x25156FD3288212246D8B008D5921FDE376C71ED14AC2E072A506EB06FDE6D09D PUSH0 DUP1 LOG4 STOP JUMPDEST PUSH32 0xF00A0DD000000000000000000000000000000000000000000000000000000000 PUSH0 MSTORE PUSH1 0x4 PUSH0 REVERT JUMPDEST POP DUP2 SLOAD DUP5 GT PUSH2 0x66C JUMP JUMPDEST CALLVALUE PUSH2 0xC6 JUMPI PUSH2 0x100 PUSH32 0xFFFFFFFFFFFFFFFFFFFFFFFFFFFFFFFFFFFFFFFFFFFFFFFFFFFFFFFFFFFFFFFC CALLDATASIZE ADD SLT PUSH2 0xC6 JUMPI PUSH1 0x4 CALLDATALOAD PUSH1 0x24 CALLDATALOAD SWAP1 DUP2 PUSH1 0xF SIGNEXTEND DUP1 SWAP3 SUB PUSH2 0xC6 JUMPI PUSH1 0x44 CALLDATALOAD SWAP1 PUSH1 0xFF DUP3 AND DUP1 SWAP3 SUB PUSH2 0xC6 JUMPI PUSH1 0x64 CALLDATALOAD PUSH8 0xFFFFFFFFFFFFFFFF DUP2 GT PUSH2 0xC6 JUMPI PUSH2 0x7F6 SWAP1 CALLDATASIZE SWAP1 PUSH1 0x4 ADD PUSH2 0x1114 JUMP JUMPDEST SWAP1 PUSH1 0x84 CALLDATALOAD PUSH8 0xFFFFFFFFFFFFFFFF DUP2 GT PUSH2 0xC6 JUMPI PUSH2 0x817 SWAP1 CALLDATASIZE SWAP1 PUSH1 0x4 ADD PUSH2 0x1114 JUMP JUMPDEST SWAP1 PUSH1 0xA4 CALLDATALOAD PUSH8 0xFFFFFFFFFFFFFFFF DUP2 GT PUSH2 0xC6 JUMPI PUSH2 0x838 SWAP1 CALLDATASIZE SWAP1 PUSH1 0x4 ADD PUSH2 0x1114 JUMP JUMPDEST SWAP2 SWAP1 SWAP3 PUSH1 0xC4 CALLDATALOAD PUSH8 0xFFFFFFFFFFFFFFFF DUP2 GT PUSH2 0xC6 JUMPI PUSH2 0x85B SWAP1 CALLDATASIZE SWAP1 PUSH1 0x4 ADD PUSH2 0x1114 JUMP JUMPDEST SWAP6 SWAP1 SWAP7 PUSH0 DUP1 PUSH20 0xFFFFFFFFFFFFFFFFFFFFFFFFFFFFFFFFFFFFFFFF DUP2 SLOAD AND PUSH1 0x40 MLOAD PUSH1 0x20 DUP2 ADD SWAP1 PUSH32 0x6352211E00000000000000000000000000000000000000000000000000000000 DUP3 MSTORE DUP14 PUSH1 0x24 DUP3 ADD MSTORE PUSH1 0x24 DUP2 MSTORE PUSH2 0x8B8 PUSH1 0x44 DUP3 PUSH2 0x1218 JUMP JUMPDEST MLOAD SWAP2 GAS STATICCALL PUSH2 0x8C4 PUSH2 0x13E4 JUMP JUMPDEST DUP2 PUSH2 0xF05 JUMPI JUMPDEST POP ISZERO PUSH2 0xEA7 JUMPI PUSH2 0x8DA CALLER DUP11 PUSH2 0x1413 JUMP JUMPDEST PUSH2 0xE7F JUMPI PUSH1 0x12 DUP11 GT PUSH2 0xE57 JUMPI DUP9 PUSH0 MSTORE PUSH1 0x1 PUSH1 0x20 MSTORE PUSH1 0x40 PUSH0 KECCAK256 PUSH20 0xFFFFFFFFFFFFFFFFFFFFFFFFFFFFFFFFFFFFFFFF CALLER AND PUSH0 MSTORE PUSH1 0x20 MSTORE PUSH1 0x40 PUSH0 KECCAK256 SWAP10 DUP11 SLOAD SWAP11 PUSH1 0x1 DUP13 ADD SWAP12 DUP13 DUP2 GT PUSH2 0x525 JUMPI PUSH1 0x40 MLOAD SWAP1 PUSH1 0xA0 DUP3 ADD DUP3 DUP2 LT PUSH8 0xFFFFFFFFFFFFFFFF DUP3 GT OR PUSH2 0xD05 JUMPI DUP16 SWAP1 PUSH1 0x40 MSTORE DUP3 MSTORE DUP14 PUSH1 0x20 DUP4 ADD DUP6 DUP2 MSTORE PUSH2 0x957 CALLDATASIZE DUP9 DUP11 PUSH2 0x1351 JUMP JUMPDEST SWAP2 PUSH1 0x40 DUP6 ADD SWAP3 DUP4 MSTORE PUSH2 0x96A CALLDATASIZE DUP12 DUP14 PUSH2 0x1351 JUMP JUMPDEST SWAP4 PUSH1 0x60 DUP7 ADD SWAP5 DUP6 MSTORE PUSH1 0x80 DUP7 ADD SWAP7 PUSH0 DUP9 MSTORE PUSH9 0x10000000000000000 DUP3 LT ISZERO PUSH2 0xD05 JUMPI PUSH2 0x996 SWAP3 DUP2 SSTORE PUSH2 0x1181 JUMP JUMPDEST SWAP5 SWAP1 SWAP5 PUSH2 0xE2B JUMPI MLOAD DUP5 SLOAD SWAP2 MLOAD PUSH32 0xFFFFFFFFFFFFFFFFFFFFFFFFFFFFFF0000000000000000000000000000000000 SWAP3 SWAP1 SWAP3 AND PUSH16 0xFFFFFFFFFFFFFFFFFFFFFFFFFFFFFFFF SWAP1 SWAP2 AND OR PUSH1 0x80 SWAP2 SWAP1 SWAP2 SHL PUSH17 0xFF00000000000000000000000000000000 AND OR DUP4 SSTORE MLOAD DUP1 MLOAD PUSH1 0x1 DUP5 ADD SWAP2 PUSH8 0xFFFFFFFFFFFFFFFF DUP3 GT PUSH2 0xD05 JUMPI DUP2 SWAP1 PUSH2 0xA1B DUP5 SLOAD PUSH2 0x11C7 JUMP JUMPDEST PUSH1 0x1F DUP2 GT PUSH2 0xDDB JUMPI JUMPDEST POP PUSH1 0x20 SWAP1 PUSH1 0x1F DUP4 GT PUSH1 0x1 EQ PUSH2 0xD3D JUMPI PUSH0 SWAP3 PUSH2 0xD32 JUMPI JUMPDEST POP POP PUSH32 0xFFFFFFFFFFFFFFFFFFFFFFFFFFFFFFFFFFFFFFFFFFFFFFFFFFFFFFFFFFFFFFFF DUP3 PUSH1 0x1 SHL SWAP3 PUSH1 0x3 SHL SHR NOT AND OR SWAP1 SSTORE JUMPDEST MLOAD DUP1 MLOAD PUSH1 0x2 DUP4 ADD SWAP2 PUSH8 0xFFFFFFFFFFFFFFFF DUP3 GT PUSH2 0xD05 JUMPI PUSH2 0xA8D DUP4 SLOAD PUSH2 0x11C7 JUMP JUMPDEST PUSH1 0x1F DUP2 GT PUSH2 0xCC0 JUMPI JUMPDEST POP PUSH1 0x20 SWAP1 PUSH1 0x1F DUP4 GT PUSH1 0x1 EQ PUSH2 0xC1D JUMPI PUSH1 0x3 SWAP5 SWAP4 SWAP3 SWAP2 PUSH0 SWAP2 DUP4 PUSH2 0xC12 JUMPI JUMPDEST POP POP PUSH32 0xFFFFFFFFFFFFFFFFFFFFFFFFFFFFFFFFFFFFFFFFFFFFFFFFFFFFFFFFFFFFFFFF DUP3 PUSH1 0x1 SHL SWAP3 DUP7 SHL SHR NOT AND OR SWAP1 SSTORE JUMPDEST ADD SWAP1 MLOAD ISZERO ISZERO DUP2 SLOAD PUSH32 0xFFFFFFFFFFFFFFFFFFFFFFFFFFFFFFFFFFFFFFFFFFFFFFFFFFFFFFFFFFFFFF00 AND SWAP1 PUSH1 0xFF AND OR SWAP1 SSTORE DUP10 PUSH0 MSTORE PUSH1 0x2 PUSH1 0x20 MSTORE PUSH1 0x40 PUSH0 KECCAK256 DUP1 SLOAD PUSH8 0xFFFFFFFFFFFFFFFF AND PUSH2 0xB35 SWAP1 PUSH2 0x1387 JUMP JUMPDEST PUSH8 0xFFFFFFFFFFFFFFFF AND DUP2 SLOAD PUSH32 0xFFFFFFFFFFFFFFFFFFFFFFFFFFFFFFFFFFFFFFFFFFFFFFFF0000000000000000 AND OR SWAP1 SSTORE PUSH1 0x40 MLOAD DUP3 DUP5 DUP3 CALLDATACOPY DUP1 DUP4 DUP2 ADD PUSH0 DUP2 MSTORE SUB SWAP1 KECCAK256 SWAP12 PUSH1 0x40 MLOAD SWAP12 PUSH8 0xFFFFFFFFFFFFFFFF AND DUP13 MSTORE PUSH1 0x20 DUP13 ADD MSTORE PUSH1 0x40 DUP12 ADD MSTORE PUSH1 0x60 DUP11 ADD PUSH2 0x100 SWAP1 MSTORE PUSH2 0x100 DUP11 ADD SWAP1 PUSH2 0xBAA SWAP3 PUSH2 0x13A6 JUMP JUMPDEST SWAP1 DUP9 DUP3 SUB PUSH1 0x80 DUP11 ADD MSTORE PUSH2 0xBBC SWAP3 PUSH2 0x13A6 JUMP JUMPDEST SWAP1 DUP7 DUP3 SUB PUSH1 0xA0 DUP9 ADD MSTORE PUSH2 0xBCE SWAP3 PUSH2 0x13A6 JUMP JUMPDEST SWAP1 DUP5 DUP3 SUB PUSH1 0xC0 DUP7 ADD MSTORE PUSH2 0xBE0 SWAP3 PUSH2 0x13A6 JUMP JUMPDEST SWAP2 PUSH1 0xE4 CALLDATALOAD PUSH1 0xE0 DUP3 ADD MSTORE DUP1 CALLER SWAP4 SUB PUSH32 0x6A4A61743519C9D648A14E6493F47DBE3FF1AA29E7785C96C8326A205E58FEBC SWAP2 LOG4 STOP JUMPDEST ADD MLOAD SWAP1 POP PUSH0 DUP1 PUSH2 0xAB3 JUMP JUMPDEST SWAP1 PUSH32 0xFFFFFFFFFFFFFFFFFFFFFFFFFFFFFFFFFFFFFFFFFFFFFFFFFFFFFFFFFFFFFFE0 DUP4 AND SWAP2 DUP5 PUSH0 MSTORE DUP2 PUSH0 KECCAK256 SWAP3 PUSH0 JUMPDEST DUP2 DUP2 LT PUSH2 0xCA8 JUMPI POP SWAP2 PUSH1 0x1 SWAP4 SWAP2 DUP6 PUSH1 0x3 SWAP9 SWAP8 SWAP7 SWAP5 LT PUSH2 0xC72 JUMPI JUMPDEST POP POP POP DUP2 SHL ADD SWAP1 SSTORE PUSH2 0xAE4 JUMP JUMPDEST ADD MLOAD PUSH32 0xFFFFFFFFFFFFFFFFFFFFFFFFFFFFFFFFFFFFFFFFFFFFFFFFFFFFFFFFFFFFFFFF PUSH1 0xF8 DUP5 DUP10 SHL AND SHR NOT AND SWAP1 SSTORE PUSH0 DUP1 DUP1 PUSH2 0xC65 JUMP JUMPDEST SWAP3 SWAP4 PUSH1 0x20 PUSH1 0x1 DUP2 SWAP3 DUP8 DUP7 ADD MLOAD DUP2 SSTORE ADD SWAP6 ADD SWAP4 ADD PUSH2 0xC4B JUMP JUMPDEST DUP4 PUSH0 MSTORE PUSH1 0x20 PUSH0 KECCAK256 PUSH1 0x1F DUP5 ADD PUSH1 0x5 SHR DUP2 ADD SWAP2 PUSH1 0x20 DUP6 LT PUSH2 0xCFB JUMPI JUMPDEST PUSH1 0x1F ADD PUSH1 0x5 SHR ADD SWAP1 JUMPDEST DUP2 DUP2 LT PUSH2 0xCF0 JUMPI POP PUSH2 0xA96 JUMP JUMPDEST PUSH0 DUP2 SSTORE PUSH1 0x1 ADD PUSH2 0xCE3 JUMP JUMPDEST SWAP1 SWAP2 POP DUP2 SWAP1 PUSH2 0xCDA JUMP JUMPDEST PUSH32 0x4E487B7100000000000000000000000000000000000000000000000000000000 PUSH0 MSTORE PUSH1 0x41 PUSH1 0x4 MSTORE PUSH1 0x24 PUSH0 REVERT JUMPDEST ADD MLOAD SWAP1 POP PUSH0 DUP1 PUSH2 0xA3A JUMP JUMPDEST PUSH0 DUP6 DUP2 MSTORE DUP3 DUP2 KECCAK256 SWAP4 PUSH32 0xFFFFFFFFFFFFFFFFFFFFFFFFFFFFFFFFFFFFFFFFFFFFFFFFFFFFFFFFFFFFFFE0 AND SWAP1 JUMPDEST DUP2 DUP2 LT PUSH2 0xDC3 JUMPI POP SWAP1 DUP5 PUSH1 0x1 SWAP6 SWAP5 SWAP4 SWAP3 LT PUSH2 0xD8C JUMPI JUMPDEST POP POP POP DUP2 SHL ADD SWAP1 SSTORE PUSH2 0xA6C JUMP JUMPDEST ADD MLOAD PUSH32 0xFFFFFFFFFFFFFFFFFFFFFFFFFFFFFFFFFFFFFFFFFFFFFFFFFFFFFFFFFFFFFFFF PUSH1 0xF8 DUP5 PUSH1 0x3 SHL AND SHR NOT AND SWAP1 SSTORE PUSH0 DUP1 DUP1 PUSH2 0xD7F JUMP JUMPDEST SWAP3 SWAP4 PUSH1 0x20 PUSH1 0x1 DUP2 SWAP3 DUP8 DUP7 ADD MLOAD DUP2 SSTORE ADD SWAP6 ADD SWAP4 ADD PUSH2 0xD69 JUMP JUMPDEST SWAP1 SWAP2 POP DUP4 PUSH0 MSTORE PUSH1 0x20 PUSH0 KECCAK256 PUSH1 0x1F DUP5 ADD PUSH1 0x5 SHR DUP2 ADD SWAP2 PUSH1 0x20 DUP6 LT PUSH2 0xE21 JUMPI JUMPDEST SWAP1 PUSH1 0x1F DUP6 SWAP5 SWAP4 SWAP3 ADD PUSH1 0x5 SHR ADD SWAP1 JUMPDEST DUP2 DUP2 LT PUSH2 0xE13 JUMPI POP PUSH2 0xA24 JUMP JUMPDEST PUSH0 DUP2 SSTORE DUP5 SWAP4 POP PUSH1 0x1 ADD PUSH2 0xE06 JUMP JUMPDEST SWAP1 SWAP2 POP DUP2 SWAP1 PUSH2 0xDF8 JUMP JUMPDEST PUSH32 0x4E487B7100000000000000000000000000000000000000000000000000000000 PUSH0 MSTORE PUSH0 PUSH1 0x4 MSTORE PUSH1 0x24 PUSH0 REVERT JUMPDEST PUSH32 0x565C8A5A00000000000000000000000000000000000000000000000000000000 PUSH0 MSTORE PUSH1 0x4 PUSH0 REVERT JUMPDEST PUSH32 0x45AA09A500000000000000000000000000000000000000000000000000000000 PUSH0 MSTORE PUSH1 0x4 PUSH0 REVERT JUMPDEST PUSH1 0x64 PUSH1 0x40 MLOAD PUSH32 0x8C379A000000000000000000000000000000000000000000000000000000000 DUP2 MSTORE PUSH1 0x20 PUSH1 0x4 DUP3 ADD MSTORE PUSH1 0x14 PUSH1 0x24 DUP3 ADD MSTORE PUSH32 0x6167656E7420646F6573206E6F74206578697374000000000000000000000000 PUSH1 0x44 DUP3 ADD MSTORE REVERT JUMPDEST PUSH1 0x20 SWAP2 POP MLOAD EQ DUP13 PUSH2 0x8CA JUMP JUMPDEST CALLVALUE PUSH2 0xC6 JUMPI PUSH1 0x60 PUSH32 0xFFFFFFFFFFFFFFFFFFFFFFFFFFFFFFFFFFFFFFFFFFFFFFFFFFFFFFFFFFFFFFFC CALLDATASIZE ADD SLT PUSH2 0xC6 JUMPI PUSH1 0x4 CALLDATALOAD PUSH2 0xF4B PUSH2 0x1097 JUMP JUMPDEST SWAP1 PUSH2 0xF54 PUSH2 0x10BA JUMP JUMPDEST PUSH8 0xFFFFFFFFFFFFFFFF DUP2 AND DUP1 ISZERO SWAP1 DUP2 ISZERO PUSH2 0x1014 JUMPI JUMPDEST POP PUSH2 0x2CF JUMPI PUSH1 0xFF SWAP3 PUSH2 0xFA9 SWAP3 PUSH0 MSTORE PUSH1 0x1 PUSH1 0x20 MSTORE PUSH20 0xFFFFFFFFFFFFFFFFFFFFFFFFFFFFFFFFFFFFFFFF PUSH1 0x40 PUSH0 KECCAK256 SWAP2 AND PUSH0 MSTORE PUSH1 0x20 MSTORE PUSH2 0x67F PUSH1 0x40 PUSH0 KECCAK256 SWAP2 PUSH2 0x1142 JUMP JUMPDEST POP DUP1 SLOAD SWAP1 PUSH2 0x1008 DUP4 PUSH1 0x3 DUP4 ADD SLOAD AND SWAP2 PUSH2 0xFFA PUSH2 0xFD3 PUSH1 0x2 PUSH2 0xFCC PUSH1 0x1 DUP6 ADD PUSH2 0x1259 JUMP JUMPDEST SWAP4 ADD PUSH2 0x1259 JUMP JUMPDEST SWAP2 PUSH1 0x40 MLOAD SWAP7 DUP7 DUP9 SWAP8 PUSH1 0xF SIGNEXTEND DUP9 MSTORE PUSH1 0x80 SHR AND PUSH1 0x20 DUP8 ADD MSTORE PUSH1 0xA0 PUSH1 0x40 DUP8 ADD MSTORE PUSH1 0xA0 DUP7 ADD SWAP1 PUSH2 0x10D1 JUMP JUMPDEST SWAP1 DUP5 DUP3 SUB PUSH1 0x60 DUP7 ADD MSTORE PUSH2 0x10D1 JUMP JUMPDEST SWAP1 ISZERO ISZERO PUSH1 0x80 DUP4 ADD MSTORE SUB SWAP1 RETURN JUMPDEST SWAP1 POP DUP3 PUSH0 MSTORE PUSH1 0x1 PUSH1 0x20 MSTORE PUSH1 0x40 PUSH0 KECCAK256 PUSH20 0xFFFFFFFFFFFFFFFFFFFFFFFFFFFFFFFFFFFFFFFF DUP6 AND PUSH0 MSTORE PUSH1 0x20 MSTORE PUSH1 0x40 PUSH0 KECCAK256 SLOAD LT DUP5 PUSH2 0xF69 JUMP JUMPDEST CALLVALUE PUSH2 0xC6 JUMPI PUSH0 PUSH32 0xFFFFFFFFFFFFFFFFFFFFFFFFFFFFFFFFFFFFFFFFFFFFFFFFFFFFFFFFFFFFFFFC CALLDATASIZE ADD SLT PUSH2 0xC6 JUMPI PUSH1 0x20 SWAP1 PUSH20 0xFFFFFFFFFFFFFFFFFFFFFFFFFFFFFFFFFFFFFFFF PUSH0 SLOAD AND DUP2 MSTORE RETURN JUMPDEST PUSH1 0x24 CALLDATALOAD SWAP1 PUSH20 0xFFFFFFFFFFFFFFFFFFFFFFFFFFFFFFFFFFFFFFFF DUP3 AND DUP3 SUB PUSH2 0xC6 JUMPI JUMP JUMPDEST PUSH1 0x44 CALLDATALOAD SWAP1 PUSH8 0xFFFFFFFFFFFFFFFF DUP3 AND DUP3 SUB PUSH2 0xC6 JUMPI JUMP JUMPDEST SWAP1 PUSH32 0xFFFFFFFFFFFFFFFFFFFFFFFFFFFFFFFFFFFFFFFFFFFFFFFFFFFFFFFFFFFFFFE0 PUSH1 0x1F PUSH1 0x20 DUP1 SWAP5 DUP1 MLOAD SWAP2 DUP3 SWAP2 DUP3 DUP8 MSTORE ADD DUP7 DUP7 ADD MCOPY PUSH0 DUP6 DUP3 DUP7 ADD ADD MSTORE ADD AND ADD ADD SWAP1 JUMP JUMPDEST SWAP2 DUP2 PUSH1 0x1F DUP5 ADD SLT ISZERO PUSH2 0xC6 JUMPI DUP3 CALLDATALOAD SWAP2 PUSH8 0xFFFFFFFFFFFFFFFF DUP4 GT PUSH2 0xC6 JUMPI PUSH1 0x20 DUP4 DUP2 DUP7 ADD SWAP6 ADD ADD GT PUSH2 0xC6 JUMPI JUMP JUMPDEST PUSH8 0xFFFFFFFFFFFFFFFF PUSH32 0xFFFFFFFFFFFFFFFFFFFFFFFFFFFFFFFFFFFFFFFFFFFFFFFFFFFFFFFFFFFFFFFF SWAP2 AND ADD SWAP1 PUSH8 0xFFFFFFFFFFFFFFFF DUP3 GT PUSH2 0x525 JUMPI JUMP JUMPDEST DUP1 SLOAD DUP3 LT ISZERO PUSH2 0x119A JUMPI PUSH0 MSTORE PUSH1 0x20 PUSH0 KECCAK256 SWAP1 PUSH1 0x2 SHL ADD SWAP1 PUSH0 SWAP1 JUMP JUMPDEST PUSH32 0x4E487B7100000000000000000000000000000000000000000000000000000000 PUSH0 MSTORE PUSH1 0x32 PUSH1 0x4 MSTORE PUSH1 0x24 PUSH0 REVERT JUMPDEST SWAP1 PUSH1 0x1 DUP3 DUP2 SHR SWAP3 AND DUP1 ISZERO PUSH2 0x120E JUMPI JUMPDEST PUSH1 0x20 DUP4 LT EQ PUSH2 0x11E1 JUMPI JUMP JUMPDEST PUSH32 0x4E487B7100000000000000000000000000000000000000000000000000000000 PUSH0 MSTORE PUSH1 0x22 PUSH1 0x4 MSTORE PUSH1 0x24 PUSH0 REVERT JUMPDEST SWAP2 PUSH1 0x7F AND SWAP2 PUSH2 0x11D6 JUMP JUMPDEST SWAP1 PUSH1 0x1F PUSH32 0xFFFFFFFFFFFFFFFFFFFFFFFFFFFFFFFFFFFFFFFFFFFFFFFFFFFFFFFFFFFFFFE0 SWAP2 ADD AND DUP2 ADD SWAP1 DUP2 LT PUSH8 0xFFFFFFFFFFFFFFFF DUP3 GT OR PUSH2 0xD05 JUMPI PUSH1 0x40 MSTORE JUMP JUMPDEST SWAP1 PUSH1 0x40 MLOAD SWAP2 DUP3 PUSH0 DUP3 SLOAD SWAP3 PUSH2 0x126C DUP5 PUSH2 0x11C7 JUMP JUMPDEST DUP1 DUP5 MSTORE SWAP4 PUSH1 0x1 DUP2 AND SWAP1 DUP2 ISZERO PUSH2 0x12D7 JUMPI POP PUSH1 0x1 EQ PUSH2 0x1293 JUMPI JUMPDEST POP PUSH2 0x1291 SWAP3 POP SUB DUP4 PUSH2 0x1218 JUMP JUMPDEST JUMP JUMPDEST SWAP1 POP PUSH0 SWAP3 SWAP2 SWAP3 MSTORE PUSH1 0x20 PUSH0 KECCAK256 SWAP1 PUSH0 SWAP2 JUMPDEST DUP2 DUP4 LT PUSH2 0x12BB JUMPI POP POP SWAP1 PUSH1 0x20 PUSH2 0x1291 SWAP3 DUP3 ADD ADD PUSH0 PUSH2 0x1284 JUMP JUMPDEST PUSH1 0x20 SWAP2 SWAP4 POP DUP1 PUSH1 0x1 SWAP2 SLOAD DUP4 DUP6 DUP10 ADD ADD MSTORE ADD SWAP2 ADD SWAP1 SWAP2 DUP5 SWAP3 PUSH2 0x12A2 JUMP JUMPDEST PUSH1 0x20 SWAP4 POP PUSH2 0x1291 SWAP6 SWAP3 POP PUSH32 0xFFFFFFFFFFFFFFFFFFFFFFFFFFFFFFFFFFFFFFFFFFFFFFFFFFFFFFFFFFFFFF00 SWAP2 POP AND DUP3 DUP5 ADD MSTORE ISZERO ISZERO PUSH1 0x5 SHL DUP3 ADD ADD PUSH0 PUSH2 0x1284 JUMP JUMPDEST PUSH8 0xFFFFFFFFFFFFFFFF DUP2 GT PUSH2 0xD05 JUMPI PUSH1 0x1F ADD PUSH32 0xFFFFFFFFFFFFFFFFFFFFFFFFFFFFFFFFFFFFFFFFFFFFFFFFFFFFFFFFFFFFFFE0 AND PUSH1 0x20 ADD SWAP1 JUMP JUMPDEST SWAP3 SWAP2 SWAP3 PUSH2 0x135D DUP3 PUSH2 0x1317 JUMP JUMPDEST SWAP2 PUSH2 0x136B PUSH1 0x40 MLOAD SWAP4 DUP5 PUSH2 0x1218 JUMP JUMPDEST DUP3 SWAP5 DUP2 DUP5 MSTORE DUP2 DUP4 ADD GT PUSH2 0xC6 JUMPI DUP3 DUP2 PUSH1 0x20 SWAP4 DUP5 PUSH0 SWAP7 ADD CALLDATACOPY ADD ADD MSTORE JUMP JUMPDEST PUSH8 0xFFFFFFFFFFFFFFFF AND PUSH8 0xFFFFFFFFFFFFFFFF DUP2 EQ PUSH2 0x525 JUMPI PUSH1 0x1 ADD SWAP1 JUMP JUMPDEST PUSH1 0x1F DUP3 PUSH1 0x20 SWAP5 SWAP4 PUSH32 0xFFFFFFFFFFFFFFFFFFFFFFFFFFFFFFFFFFFFFFFFFFFFFFFFFFFFFFFFFFFFFFE0 SWAP4 DUP2 DUP7 MSTORE DUP7 DUP7 ADD CALLDATACOPY PUSH0 DUP6 DUP3 DUP7 ADD ADD MSTORE ADD AND ADD ADD SWAP1 JUMP JUMPDEST RETURNDATASIZE ISZERO PUSH2 0x140E JUMPI RETURNDATASIZE SWAP1 PUSH2 0x13F5 DUP3 PUSH2 0x1317 JUMP JUMPDEST SWAP2 PUSH2 0x1403 PUSH1 0x40 MLOAD SWAP4 DUP5 PUSH2 0x1218 JUMP JUMPDEST DUP3 MSTORE RETURNDATASIZE PUSH0 PUSH1 0x20 DUP5 ADD RETURNDATACOPY JUMP JUMPDEST PUSH1 0x60 SWAP1 JUMP JUMPDEST PUSH0 DUP1 PUSH20 0xFFFFFFFFFFFFFFFFFFFFFFFFFFFFFFFFFFFFFFFF DUP2 SLOAD AND SWAP3 PUSH1 0x40 MLOAD PUSH1 0x20 DUP2 ADD SWAP2 PUSH32 0x6352211E00000000000000000000000000000000000000000000000000000000 DUP4 MSTORE PUSH1 0x24 DUP3 ADD MSTORE PUSH1 0x24 DUP2 MSTORE PUSH2 0x146D PUSH1 0x44 DUP3 PUSH2 0x1218 JUMP JUMPDEST MLOAD SWAP1 DUP5 GAS STATICCALL PUSH2 0x147A PUSH2 0x13E4 JUMP JUMPDEST SWAP1 ISZERO DUP1 ISZERO PUSH2 0x1573 JUMPI JUMPDEST PUSH2 0x156C JUMPI PUSH1 0x20 DUP2 DUP1 MLOAD DUP2 ADD SUB SLT PUSH2 0xC6 JUMPI PUSH1 0x20 ADD MLOAD SWAP2 PUSH20 0xFFFFFFFFFFFFFFFFFFFFFFFFFFFFFFFFFFFFFFFF DUP4 AND DUP1 SWAP4 SUB PUSH2 0xC6 JUMPI PUSH20 0xFFFFFFFFFFFFFFFFFFFFFFFFFFFFFFFFFFFFFFFF AND SWAP1 DUP2 DUP4 EQ PUSH2 0x1564 JUMPI PUSH0 SWAP3 DUP4 SWAP3 PUSH1 0x40 MLOAD SWAP1 PUSH1 0x20 DUP3 ADD SWAP3 PUSH32 0xE985E9C500000000000000000000000000000000000000000000000000000000 DUP5 MSTORE PUSH1 0x24 DUP4 ADD MSTORE PUSH1 0x44 DUP3 ADD MSTORE PUSH1 0x44 DUP2 MSTORE PUSH2 0x151E PUSH1 0x64 DUP3 PUSH2 0x1218 JUMP JUMPDEST MLOAD SWAP2 GAS STATICCALL PUSH2 0x152A PUSH2 0x13E4 JUMP JUMPDEST DUP2 PUSH2 0x1558 JUMPI JUMPDEST DUP2 PUSH2 0x1539 JUMPI POP SWAP1 JUMP JUMPDEST SWAP1 POP PUSH1 0x20 DUP2 DUP1 MLOAD DUP2 ADD SUB SLT PUSH2 0xC6 JUMPI PUSH1 0x20 ADD MLOAD DUP1 ISZERO ISZERO DUP2 SUB PUSH2 0xC6 JUMPI SWAP1 JUMP JUMPDEST DUP1 MLOAD PUSH1 0x20 EQ SWAP2 POP PUSH2 0x1530 JUMP JUMPDEST POP POP POP PUSH1 0x1 SWAP1 JUMP JUMPDEST POP POP POP PUSH0 SWAP1 JUMP JUMPDEST POP PUSH1 0x20 DUP2 MLOAD EQ ISZERO PUSH2 0x1483 JUMP INVALID LOG2 PUSH5 0x6970667358 0x22 SLT KECCAK256 0xE0 MUL 0x27 0xAC DUP12 PUSH3 0xADFDB3 BLOBBASEFEE 0xB1 0xC5 PUSH3 0xD6E055 MSTORE8 0xD5 DIV 0xBD 0xF6 PUSH4 0x8C1FBD9B 0x26 CALL 0xE DUP16 0xE1 PUSH17 0x64736F6C634300081C0033000000000000 "},"methodIdentifiers":{"appendResponse(uint256,address,uint64,string,bytes32)":"c2349ab2","getActiveFeedbackCount(uint256)":"e0596b2a","getSummary(uint256,address[],string,string)":"81bbba58","giveFeedback(uint256,int128,uint8,string,string,string,string,bytes32)":"3c036a7e","identityRegistry()":"134e18f4","initialize(address)":"c4d66de8","readFeedback(uint256,address,uint64)":"232b0810","revokeFeedback(uint256,uint64)":"4ab3ca99"}}}}}